:020000040800F2
:10000000E8060020E5010008E9010008EB0100080E
:10001000ED010008EF010008F101000800000000F8
:10002000000000000000000000000000F3010008D4
:10003000F501000800000000F7010008F9010008C0
:10004000FB010008FB010008FB010008FB010008A0
:10005000FB010008FB010008FB010008FB01000890
:10006000FB010008FB010008FB010008FB01000880
:10007000FB010008FB010008FB010008FB01000870
:10008000FB010008FB010008FB010008FB01000860
:10009000FB010008FB010008FB010008FB01000850
:1000A000FB010008FB010008FB010008FB01000840
:1000B000FB010008FB0100087D0C0008FB010008A3
:1000C000FB010008FB010008FB010008FB01000820
:1000D000FB010008AF08000825090008FB01000823
:1000E000FB010008FB010008FB01000800F002F81A
:1000F00000F067F80AA090E8000C82448344AAF15B
:100100000107DA4501D100F05CF8AFF2090EBAE858
:100110000F0013F0010F18BFFB1A43F0010318473B
:100120004C2C00006C2C00000A444FF0000C10F81E
:10013000013B13F0070408BF10F8014B1D1108BF65
:1001400010F8015B641E05D010F8016B641E01F805
:10015000016BF9D113F0080F1EBF10F8014BAD1C55
:100160000C1B09D16D1E58BF01F801CBFAD505E073
:1001700014F8016B01F8016B6D1EF9D59142D6D3CD
:10018000704700000023002400250026103A28BFF5
:1001900078C1FBD8520728BF30C148BF0B607047F9
:1001A000662902F09685002070471FB501F00EFA0F
:1001B00004000020002101F061FFE0601FBD10B5C8
:1001C00010BD01F019FB1146FFF7EFFF00F024F816
:1001D00001F037FB03B4FFF7F2FF03BC00F058FB5C
:1001E00030BF000008480047FEE7FEE7FEE7FEE7F5
:1001F000FEE7FEE7FEE7FEE7FEE7FEE70348044909
:10020000024A044B70470000ED000008E80400209B
:10021000E8060020E8040020DFF8B092092000F092
:10022000DCFA482000F06EF94FF41651482000F037
:100230009CFB4FF4E131242000F002FC00F0B8FDFB
:1002400000F0EEFDA249098888B2002100F07CFC94
:1002500000F0CCFC38E100F0E6FC054602F09EFB25
:100260009C49086008460068002848D100F046FE16
:1002700099494868494602F0B7FC054602F08EFBF2
:1002800000281ADA002403E000F0FAFD601CC4B272
:1002900091494868494602F0A7FC824602F02EFACE
:1002A00007468E4A8E4B01F03DFF21F00041054686
:1002B00002F090F8A042E7DC21E08749486849460F
:1002C00002F092FC054602F069FB002817DD0024CD
:1002D00003E000F0C1FD601CC4B27F494868494694
:1002E00002F082FC824602F009FA07467B4A7C4B08
:1002F00001F018FF054602F06DF8A042E9DC7548F0
:10030000006800282ADD77480068002826DD71484B
:1003100000687449096888420CDB73486D490968B4
:1003200050F821106F4A126850F82200081A6F49DD
:10033000086072E0674800686A49096888426CDAB8
:100340006B486449096850F821006949654A126898
:1003500051F82210401A654908605EE05D48006867
:10036000002857DA5F480068002853DA59480068C7
:100370005C490968884223DC5648006802F059F855
:1003800021F00041054602F025F85A490860554819
:10039000006802F04EF821F00041054602F01AF81C
:1003A0005549086055485349096850F82100534998
:1003B000514A126851F82210401A4C4908602CE04A
:1003C0004448006847490968884226DD414800687A
:1003D00002F02FF821F00041054601F0FBFF4549EE
:1003E00008604048006802F024F821F0004105460A
:1003F00001F0F0FF4049086041483E49096850F863
:1004000021003F493C4A126851F82210401A3749EE
:10041000086002E00020354908602E480068002886
:1004200025DD3248006800280ADD002403E000F0E2
:1004300013FD601CC4B22D4800688442F7DB3FE026
:10044000002403E000F01CFD601CC4B227480068D3
:1004500001F0EFFF21F000460546204602F000F8CB
:1004600007462A46334602F00FF829D2EAE7194830
:100470000068002824DA1D48006800280ADD0024EE
:1004800003E000F0FDFC601CC4B218480068844220
:10049000F7DB15E0002403E000F0DEFC601CC4B2D2
:1004A0001248006801F0C5FF21F0004605462046CD
:1004B00001F0D6FF07462A46334601F0E5FFEBD3AD
:1004C0000448006807490860C5E60000000040C114
:1004D00018040020F00300207C040020CDCCCCCCFC
:1004E000CCCCCC3FF403002000000020040400200A
:1004F000FC000020F8030020FC030020F80100208D
:10050000F40200204FF0E021096921F004014FF0CE
:10051000E0221161C21700EB5272C2F3C702234BF3
:100520001A701946097801EB4102C2EBC1114FF66E
:10053000FF7202EAC1011E4A1180704701461C4A3F
:1005400012884A434FF0E0235A6100229A61012247
:100550001A6100BF4FF0E022106900F001021AB1E9
:1005600000F48032002AF5D000224FF0E0231A6117
:100570009A61704701460D4A12784A434FF0E023D2
:100580005A6100229A6101221A6100BF4FF0E022F5
:10059000106900F001021AB100F48032002AF5D08F
:1005A00000224FF0E0231A619A617047080400208E
:1005B0000A040020AA4A0A400243AA4B1A60704764
:1005C0000146072323EA01021202A64B1B1D1868ED
:1005D0004FF6FF031840A44B18431043A14B1B1DBB
:1005E000186070472DE9F0478046894614461D463D
:1005F0002046E11704EB9171C1F3870AE11704EB80
:1006000091718910A4EB8101CFB2042000EBC700E7
:10061000C7B22846FFF7D4FFC5F1040008FA00F678
:100620000F20284100EA0900064306F00F06202C9F
:1006300009DA8E4801680120A04001434FF0E02014
:10064000C0F800110BE08948001D0068A4F12001EA
:1006500001228A4010434FF0E021C1F80401844890
:1006600050F82A0006FA07F10843814941F82A00A8
:10067000BDE8F08770B504460B46CE1701EB9676C1
:10068000C6F38700CE1701EB9676B610A1EB86066F
:10069000B606350E774B9B6943F00103754EB36187
:1006A0004FEAB63353F820300F26AE40B343724EB4
:1006B00046F82030334653F8203004FA05F61E433E
:1006C0006D4B43F820606D4B1B6801268E40334311
:1006D0006A4E336002F0010343B1684B0C331B6870
:1006E00001268E403343654E0C36336002F0020320
:1006F00043B1624B08331E6801238B401E435F4B9E
:1007000008331E6070BD00B500205A490861C860FA
:100710001420486100208861C8610846006840F0E4
:100720000100086008464068554908405149486042
:1007300008460068534908404E490860084600686A
:1007400020F4802008600846406820F4FE004860DD
:100750000020886000214FF00060FFF72BFF00BDF4
:1007600010B540480830006840F004003D490831A9
:1007700008604048C06940F080503E49C861424826
:10078000406840F48070404948600846006840F086
:10079000040008600846006840F002000860FFF7A7
:1007A0001FFD10BD3048001D2E49091D086070470F
:1007B000014649062F4A926942F001022D4B9A6187
:1007C0002D4A083A526822F0E0622B4B083B5A60EF
:1007D0001A4652680A435A60704730B504460025ED
:1007E000FFF791FF2348006840F4803021490860FA
:1007F00000BF20480068400C0028FAD04FF4806009
:100800001C494860A01EC4B20846406840EA8440C3
:1008100048600846406840F4803048601B480068E3
:1008200040F03200194908601248006840F08070BA
:100830001049086000BF0F480068400E0028FAD039
:100840000C48406840F002000A49486005E0094849
:100850004068C0F3870505F00305022DF7D130BDD0
:1008600080FFFF1F08ED00E00000FA0500E100E056
:1008700000E400E0001002400800014000040140D4
:100880000000FFF8FFFFF6FE00700040002002406D
:10089000014600BF704700BFA24A128802F0400222
:1008A000002AF9D0C2B29F4B1B1D1A8070479D4988
:1008B000098801F0200111B39A49091D0988C8B2BD
:1008C0009949097801F08001C9B99749097801F07F
:1008D000400161B10A2803D00021934A117020E041
:1008E0009149097841F080018F4A117019E00D2873
:1008F00006D18D49097841F040018B4A117010E012
:100900008949097801F03F01884A5054864909789D
:10091000491C854A1170114609783F2901DD0021E3
:100920001170704782480088E8B100BF8048001D00
:10093000008880497C4A127888547B48007820B926
:1009400008460078552800D0704777480078401C4A
:1009500075490870084600780B2804D100200870FB
:1009600001207549087000BFEEE72DE9F05F0546EC
:100970000E46300102F04EF88146704905FB01F049
:1009800002F048F88246494601F046FF07463846DD
:1009900002F020F884B2204602F03CF88346394643
:1009A00002F018F982464FF0834102F047F8814681
:1009B00002F010F880464FF6FF7000EA041404EBD2
:1009C000080084B25E48806940F004005C49886198
:1009D0000846806940F4804088615A48006820F4E5
:1009E0007F60584908600846006840F40B60086062
:1009F0005348C06840F480405149C8600846C06808
:100A000020F48040C860474808300480001D0088FA
:100A100042F20C01084343490C3108800846008823
:100A200040F4807008800846008840F0200008806C
:100A30000223252203210846FFF7D4FDBDE8F09FDD
:100A40002DE9F05F05460E46300101F0E3FF8146D7
:100A50003A4905FB01F001F0DDFF8246494601F00D
:100A6000DBFE0746384601F0B5FF84B2204601F0B0
:100A7000D1FF8346394602F0ADF882464FF08341FC
:100A800001F0DCFF814601F0A5FF80464FF6FF70C4
:100A900000EA041404EB080084B22948806940F09D
:100AA0000400274988610846C06940F40030C861E5
:100AB0002448001F006820F47F402249091F086075
:100AC0000846006840F40B4008601D48006940F487
:100AD00000301B4908610846006920F400300861B5
:100AE000134808300480001D008842F20C010843BE
:100AF0000F490C3108800846008840F48070088057
:100B00000846008840F0200008800846008840F031
:100B1000040008800223262200210320FFF762FD43
:100B2000BDE8F09F00380140140400203B04002081
:100B300000440040300400200C04002040420F001C
:100B40000010024004080140854AD26942F00202C6
:100B5000834BDA611A46926942F004029A61814A33
:100B60001080121F1180804A126822F07F427E4B53
:100B70001A601A46126842F088421A60794A2C3A82
:100B8000128822F44072774B2C3B1A801A46128846
:100B900022F060021A80734A143A128842F001026D
:100BA000704B143B1A801A46128842F480721A80E5
:100BB0006C4A0C3A128822F002026A4B0C3B1A80F3
:100BC0001A46128822F020021A80664A143A1288C5
:100BD00042F03002634B143B1A80624A243A128876
:100BE00042F001025F4B243B1A8070475D482C386D
:100BF000008840F001005B492C3908807047594853
:100C00000838008840F2FE71884204DA55480838F6
:100C1000008800B270475348083800885349098853
:100C2000401A00B2F6E72DE9F047FFF7E8FF8246E9
:100C300001F0FFFB804600224D4B01F073FA06469F
:100C400000224C4B01F05CFC044622460B464AA0B5
:100C500000F0E0F9FFF7D3FF824601F0EAFB064619
:100C60000022434B01F05EFA04460022414B01F0A2
:100C700047FC804601F018FABDE8F0872DE9F047FF
:100C80004FF000094648008800F00100002839D0E4
:100C90004448006808B9012000E00020414908608C
:100CA0004148006841490968A0EB01093E480068D5
:100CB0003E490860B9F1010F0ADD002405E000F0AB
:100CC000CBF80220FFF73AFC641C4C45F7DB19E037
:100CD000B9F1FF3F16DA002405E000F0D1F8022058
:100CE000FFF72CFC641C484601F0A3FB21F00046F2
:100CF0000546204601F09DFB07462A46334601F093
:100D0000C3FBEAD32648008820F00100244908806C
:100D1000BDE8F08770B505460C461148C06940F043
:100D200004000F49C8611E481C300580001F048064
:100D30001B48001F008840F001001949091F088066
:100D400017481038008840F0010015491039088014
:100D500002231E2203210120FFF744FC70BD000086
:100D6000001002402C04004000080140180400203C
:100D70000000A040008076402F2F2F2F2F2F2F2FE5
:100D80002F2F2F2F2F2F2F2F2F2F2F2F2F2F2F2F73
:100D90002F2F2F2F2F2F25342E32660A0000000010
:100DA00010080040888122422804002024040020EA
:100DB0001848806940F00400164988610846806937
:100DC00040F0200088611448006820F00F001249AC
:100DD00008600846006840F0F30008600E480830DC
:100DE000006840F480700C49083108600B480068C6
:100DF00020F47060094908600846006840F44070BB
:100E0000086006480C30006840F0040003490C31CB
:100E100008607047001002400408014000140140BF
:100E20003248806940F004003049886130480068E9
:100E30006FF30B002E4908600846006840F233311A
:100E400008432B4908602A480C30006840F007002E
:100E500027490C310860704710B50020254908600B
:100E60002549C1F880014FF4FA70FFF783FB012098
:100E70002049091F08604FF4FA70FFF77BFB10BD93
:100E800010B501201B49086000201B49C1F88001F2
:100E90000120FFF753FB01201649091F0860FFF7E7
:100EA0004DFB10BD70B505460E4666B9002402E044
:100EB000FFF7D2FF641C05EBC50000EB0510B4EB97
:100EC000C00FF5DB10E0012E0ED1012009490860AA
:100ED000002402E0FFF7D4FF641C05EBC50000EB23
:100EE0000510B4EBC00FF5DB70BD00000010024030
:100EF0000008014084012142000021422DE9F04711
:100F00006DE039480078002869D000203649087023
:100F100036480078552862D134484078532856D155
:100F200033480068401C32490860304989782F4AAC
:100F3000D27841EA022108B201F07BFA8046002211
:100F40002C4B01F0EFF8064600222B4B01F0D8FAAB
:100F5000044601F0A9F82949086024490979234A7F
:100F6000527941EA022108B201F063FA06460022F2
:100F7000204B01F0D7F8044600221F4B01F0C0FAC5
:100F8000804601F091F81D49486018498979174A4F
:100F9000D27941EA022108B201F04BFA064600225A
:100FA000144B01F0BFF804460022134B01F0A8FADD
:100FB000804601F079F811498860486801F09EFB8D
:100FC000044622460B460EA000F024F800BF00BFE6
:100FD0000748006818B100200549086000E090E764
:100FE00000BFBDE8F08700000C04002030040020A2
:100FF0002C0400200000E040008066407C040020BB
:10100000C6BDCCA8BDC7B6C83A25342E32660A0084
:10101000704700000FB4044910B503AA029800F00D
:10102000C3FA10BC5DF814FB1004002070B5044630
:1010300085690068C10601D5302600E02026C0077A
:1010400007D070BDD4E9012130469047206A401C8A
:1010500020626D1EF6D570BD70B5044685690078B6
:10106000C00707D170BDD4E9012120209047206A34
:10107000401C20626D1EF6D570BD2DE9F0474FF083
:10108000000A89460446C0F820A02046E168884747
:10109000002876D0252806D0D4E901219047206A7F
:1010A000401C2062F1E7E168204600258847C4F82B
:1010B0001CA006460027C4F818A02A2E09D03046E6
:1010C00000F0D5FF38B304EB8708303EC8F818604D
:1010D00019E059F8041B204604EB87029161E1688E
:1010E0008847012F064618D1E069002820DA25F04C
:1010F00020051DE0D8F8180000EB800006EB40004A
:101100003038C8F818002046E1688847064600F0E5
:10111000AEFF0028EED1012F0AD02E2E08D1204696
:10112000E16888477F1C0646022F45F02005C4DB96
:10113000A069002803DA404245F00105A061E807F4
:1011400001D025F01005B6B1A6F14100192802D84A
:10115000203645F400654A463146204625604D4616
:10116000FFF71EF858B1012806D0ED1D25F0070045
:1011700000F1080989E704E005F1040985E7304634
:101180008AE7206ABDE8F08770477047704770476C
:1011900070472DE9FF4F0C461E464FF0FF378BB0CE
:1011A000D2E90001DDF860800A908A46C1F30A5551
:1011B00005B93D46002108464FF00000BAF1000F86
:1011C00000F4400005DA00EB80004FF4400101EA32
:1011D00050004FEA9059B9F1010F00DDB9460A9865
:1011E00050EA4A000ED044F61050A5F2FF354543B0
:1011F0002F14B8F1000F1ED07542291E1EDDC9F153
:1012000000021CE0B8F1010F4FF0000001D03021C6
:1012100003E0F24305E02154401CB042FBDB3046C2
:101220000022002121540B99C1F80880C1E9002057
:101230000FB0BDE8F08FBD1B6D1CDEE74A4600DA3B
:10124000694206A800F064FA06AB93E8070003AB16
:1012500083E8070050460A9900F03AFB8DE8070042
:10126000A0F500501F3800900398002D09DD42F2D0
:101270001F014A46084403A90390684600F099FDFF
:1012800008E0A0F500504A461F3803A903906846BD
:1012900000F0A3FD8DE807000004000C03D04FF020
:1012A000FF30410800E01046B8F1000F03D00022E3
:1012B000009215461EE0751E05D400F08BF9303201
:1012C00062556D1EF9D5B3460122084302D00022B3
:1012D0007F1C04E02078302801D100227F1E002AE4
:1012E000099786D01DE0112D07DA00F073F930322E
:1012F00062556D1C50EA0102F5D1084302D00098F6
:10130000C8B10EE00021681E05E0235C625C6354F6
:101310002254401E491C8142F7DBAB46A81B401EED
:101320000990002004F80B000B98099AC0F8088077
:10133000C0E9002B7CE711264FF0000859E72DE9A2
:10134000F04F88460446D21D22F0070191B0D1E942
:101350000001CDE90A0100F076FE02460B98C00FAD
:1013600001D02D2007E02068810701D52B2002E065
:10137000202101EAC000032A099001D0072A05DBD9
:1013800003464146204600F083F909E120788006B3
:1013900001D5E06900E00620B8F1650F814606D06E
:1013A000B8F1660F18D0B8F1670F70D131E00020A6
:1013B000B9F1110F009001DB112301E009F10103E4
:1013C0000AAA01A90CA8FFF7E4FEDDE90C700026CB
:1013D00009F10105834647E001204B4600904FF09C
:1013E00000470AAA01A90CA8FFF7D3FEDDE90DB05A
:1013F0000C995D46002610B909F101000D18B9EBF2
:10140000050003D4C0F1FF3609F10105A5EB090081
:101410002BE0B9F1010F01DA4FF001090020B9F119
:10142000110F0090484601DD112300E003460AAA8F
:1014300001A90CA8FFF7ADFEDDE90C704D460026B2
:101440008346207800070AD4AB4500DA5D4601A840
:10145000012D04DD411911F8011C302907D04F4539
:1014600002DA17F1040F04DA012082460FE06D1E44
:10147000EEE7002F02DCED1B3E4403E0781CA8429F
:1014800000DD7D1CB81B00F1010A4FF000472078F9
:10149000000703D4AA4501DB4FF0FF3A0021B7F162
:1014A000004F0DF143088DF8431022D002202B236A
:1014B000002F01DA7F422D234FF00A0C011EA0F10C
:1014C000010000DC47B197FBFCF10CFB11720F46E9
:1014D000303208F8012DF1E7A8F1010003702188EE
:1014E000090501D5452100E06521A0F1010800F8BA
:1014F000011C09980FA9A1EB0807FF1D00B10120ED
:10150000411901EBEA70A1693844081A401EA06134
:101510002078C00602D42046FFF788FD099828B13C
:10152000D4E901219047206A401C20622078C0063F
:1015300022D52046FFF77AFD1EE0002E04DBB345DE
:1015400002DD01A8805D00E03020D4E90121904750
:10155000206A401C2062761CAAF101005FEA000AA2
:101560000AD100F033F8C0680168405CD4E9012179
:101570009047206A401C2062281EA5F10105DCDC92
:1015800007E0D4E9012118F8010B9047206A401CBC
:101590002062381EA7F10107F3DC2046FFF75CFD4F
:1015A000022011B045E60000074B70B50D467B44A4
:1015B00000F05BF80446284600F016F910B14FF031
:1015C000FF3070BD204670BDE5F2FFFF0048704758
:1015D000A804002030B5B0F10A024FEA900E71F174
:1015E00000034EEA817EB0EB0E0061EB91014FEA01
:1015F000101E4EEA017E10EB0E0041EB11114FEA76
:10160000102E4EEA016E10EB0E0041EB11214FEA55
:10161000104E4EEA014E10EB0E0041EB1141401806
:1016200041F100014FEAD00040EA41704FEAD10198
:1016300010EB80054FEA810444EA907444EB010406
:101640006D1944EB0404521BA3414FF0000348BF43
:101650000A3200D530BD401C41F1000130BD000010
:1016600001694A1C02610878704700B58FB0CDE966
:1016700001310021059105497944CDE90310114656
:101680006846FFF7FAFC0FB000BD0000E5FFFFFF62
:101690002DE9F0411F46044603260168072A01F49C
:1016A000006004DB08B116A505E016A503E008B14B
:1016B00015A500E015A521F010002060A069C01E4E
:1016C000A0610FB1401EA0612046FFF7AFFC4FB1F3
:1016D000D4E9012138469047206A401C2062C01C92
:1016E000206206E0206AFAE7D4E9012115F8010B2F
:1016F0009047761EF8D22046FFF7AEFCBDE8F08199
:101700004E414E006E616E00494E4600696E6600A5
:101710002DE9F047814616468AB0324878440DC814
:101720008DE80D002F487844801C03AC0DC884E878
:101730000D0041F69B303722014491FBF2F0A0F1FD
:10174000800502FB10141B3C02D56442012000E01E
:101750000020DFF890A080460027FA44AAF1BA0AD8
:101760000DE0E00709D03246684607EB47010AEB77
:10177000810100F032FB8DE8070064107F1C002C13
:10178000EFD1184F7F44A83F18E0E80714D007EBCB
:1017900004100DF1180A90E80E008AE80E00C068E7
:1017A000F04201D198190890324606A903A800F02A
:1017B00014FB03AB83E807006D10641C002DE4D11B
:1017C00032466946B8F1000F03A802D000F0F1FAE2
:1017D00001E000F002FBC9E90001C9F808200AB0E5
:1017E000BDE8F08734160000007B00F080007047F1
:1017F00000487047880400207546FFF7F9FFAE46A1
:1018000005006946534620F00700854618B020B50C
:10181000FEF7F4FCBDE820404FF000064FF0000753
:101820004FF000084FF0000B21F00701AC46ACE888
:10183000C009ACE8C009ACE8C009ACE8C0098D46F5
:1018400070470446AFF300802046FEF7C3FC00005B
:101850004FF0013C50F8042B51F8043B9A4221D13F
:10186000A2EB0C03934313EACC1317D150F8042BCB
:1018700051F8043B9A4215D1A2EB0C03934313EAAF
:10188000CC130BD150F8042B51F8043B9A4209D1E8
:10189000A2EB0C03934313EACC13DBD04FF0000010
:1018A000704700BFD01A01BAB1FA81F101F01801F6
:1018B00022FA01F0CB40C1F12001DBB2C0B2C01A64
:1018C0002CFA01F3D11A914311EAC311E6D1704702
:1018D0005FEA400C08BF91F0000F4FEA8C234FEAFB
:1018E000C12243EA51514FEA1C5018BF00F5F040A5
:1018F0004FEA300018BF41F000415FEA6C5C00F035
:101900002980BCF1FF3F08BF40F080407047130CB6
:1019100006BF12044FF0100C4FF0000C130E04BF62
:1019200012020CF1080C130F04BF12010CF1040C8D
:10193000930F04BF92000CF1020CD30F04BF5200AE
:101940000CF1010C11464FF00002A0F11F00A0EBBA
:101950000C00704711F0004F08BF704731F0004194
:101960003FF4D5AF0B0C06BF09044FF0100C4FF03D
:10197000000C0B0E04BF09020CF1080C0B0F04BF86
:1019800009010CF1040C8B0F04BF89000CF1020C4F
:10199000CB0F04BF49000CF1010CCCF12003A0EBEC
:1019A0000C0022FA03F302FA0CF241EA030100F1FF
:1019B0000100704720F07F4C80EA030023F07F474E
:1019C000ACEB070303F57C5300F0004003F1FF0389
:1019D0002DE980494FEA154B09B44FEA144325EA33
:1019E0000B4E24EA03480FF2042606EB132749089E
:1019F0003E785FEA320203FB0667C7F5000707FB84
:101A000006F64FEA54374FEAD64606F1020607FBC0
:101A1000066CCCF1005C4FEA1C472CEA074C07FB34
:101A200006F40CFB06F504EB15464FEA961634BF98
:101A300000204FF000404FEAD13706FB07FC4FEA89
:101A40001C4C0CFB0BF7D21B03FB0CF761EB0701E3
:101A50000CFB0EF7B0EB074072EB17420CFB08F7DC
:101A600034BFA2EB0742B2EB074261EB17414FEAEA
:101A70000C444FEA910706FB07FC4FEA1C4C0CFB99
:101A80000BF7B0EBC74072EB573203FB0CF734BFD8
:101A9000A2EBC742B2EBC74261EB57310CFB0EF72A
:101AA000B0EBC70072EB57720CFB08F734BFA2EB28
:101AB000C702B2EBC70261EB5771039F4FEA816126
:101AC00041EA921104EBCC044FEAD1374FEA82622B
:101AD00006FB07FC42EA90124FEA80604FEA1C4C7A
:101AE0000CFB0BF7D21B03FB0CF761EB07010CFBA4
:101AF0000EF7B0EB074072EB17420CFB08F734BF50
:101B0000A2EB0742B2EB074261EB17414FEA8C555B
:101B10004FEA910704EB9C2406FB07FC4FEA1C4CA0
:101B20000CFB0BF7B0EBC74072EB573203FB0CF723
:101B300034BFA2EBC742B2EBC74261EB57310CFB9B
:101B40000EF7B0EBC70072EB57720CFB08F734BF0F
:101B5000A2EBC702B2EBC70261EB577115EB4C2544
:101B60004FEA816141EA92114FEA82624FEAD1372E
:101B700042EA901206FB07FC44F100044FEA806041
:101B80004FEA1C4C0CFB0BF7D21B03FB0CF761EB71
:101B900007010CFB0EF7B0EB074072EB17420CFB92
:101BA00008F734BFA2EB0742B2EB074261EB1741E3
:101BB00015EB1C154FEA813141EA92414FEA82321E
:101BC00042EA90424FEA80304FEA0C7644F100043A
:101BD00048EA03434EEA0B484FF0000EB2EB080C04
:101BE00071EB030724BF624639464EEB0E0E4FF0F1
:101BF000000B0018524149414BEB0B0BB2EB080CA8
:101C000071EB03077BF1000B24BF624639464EEBB4
:101C10000E0E4FF0000B0018524149414BEB0B0BDD
:101C2000B2EB080C71EB03077BF1000B24BF62469B
:101C300039464EEB0E0E51EA020718BF46F0010678
:101C400016EB0E7655F1000254F1000103D5BDE804
:101C50008901BDE80088BDE88901B619BDE80048E2
:101C6000524141EB0101A3F10103704780807F7E67
:101C70007D7C7B7A79787776767574737271717002
:101C80006F6E6E6D6C6C6B6A6A69686867666665B4
:101C90006464636362616160605F5F5E5E5D5D5C42
:101CA0005C5B5B5A5A5959585857575656555555B3
:101CB0005454535352525251515050504F4F4F4E13
:101CC0004E4D4D4D4C4C4C4B4B4B4A4A4A49494961
:101CD00048484847474747464646454545444444A3
:101CE000444343434342424242414141002B26D4B4
:101CF000770021D01CB54FEA370703B44FF010002E
:101D00004FF010014FF000000FBC0BF1010BBDE8CC
:101D10001040BBF1010F08BF5FEA170722BF12F1A5
:101D2000010211F101014FF0004143F1000300F005
:101D3000004043EA00007047F9D35708DAE746EA63
:101D4000064613F1400F4FEA16461FDD13F1200F30
:101D5000DFBF16430A46002120335B42C8D0C3F1DF
:101D6000200746EA064602FA07F74FEA164646EA11
:101D70000706C3F1200722FA03F201FA07F721FA56
:101D800003F14FF0000342EA0702B1E746EA020618
:101D900046EA06464FEA164646EA0106BCBF46EA50
:101DA0000646360C4FF000034FF000024FF00001E2
:101DB0009EE72DE9C048934630B491E8380007C843
:101DC00031EA400C48BF34EA430C03D5FFF7F2FD7B
:101DD000FFF78CFFF0BCBDE800882DE9C0489346B2
:101DE00030B491E8380007C810F0804F08BF13F0F6
:101DF000804F03D100F005F8FFF778FFF0BCBDE895
:101E0000008820F07F4780EA030023F07F4C07EB37
:101E10000C03A3F57C5300F00040A3F1FE0392F005
:101E2000000F00F0B38095F0000F00F077802DE9EF
:101E300001494FEA11404FEA144621EA004800FBED
:101E400006FC24EA064708FB06F607FB08F800FB39
:101E500007F718EB06484CEB164C4FEA124B18EB01
:101E600007484FEA15464CEB174022EA0B4E0BFB96
:101E700006FC25EA06470EFB06F607FB0EFE0BFBEB
:101E800007F71EEB064E4CEB164C4FF000061EEB10
:101E9000074E4CEB174B18EB0B0840F1000018EB0A
:101EA0000E0B58EB000840F100008F1A4FF00001B4
:101EB0003CBFC943661B14BFB5EB040C00213CBFFB
:101EC000C943F61B4FEA17444EEA8E0E27EA044533
:101ED0004FEA1C4704FB07622CEA074C05FB07F797
:101EE0000CFB05F604FB0CFC16EB074642EB174215
:101EF00016EB0C4642EB1C421BEB060658EB0202AB
:101F0000414146EA9E0601D5BDE80189B619524114
:101F100041EB0101A3F10103BDE801894FEA14453A
:101F20004FEA114724EA054621EA074C05FB07F46E
:101F300006FB07F70CFB06F105FB0CFC11EB074158
:101F400044EB17444FEA124711EB0C4144EB1C449D
:101F500022EA074C05FB07F206FB07F70CFB06F627
:101F600005FB0CFC16EB074642EB174216EB0C4642
:101F700042EB1C456A1854F1000148BF7047B6197E
:101F8000524141EB0101A3F10103704795F0000FAD
:101F900037D04FEA11424FEA144721EA024624EAB9
:101FA000074C02FB07F106FB07F70CFB06F402FBEC
:101FB0000CFC14EB074441EB17414FEA154714EBB7
:101FC0000C4441EB1C4125EA074C02FB07F506FBDC
:101FD00007F70CFB06F602FB0CFC16EB074645EB7D
:101FE000174516EB0C4645EB1C42121951F1000146
:101FF00048BF7047B619524141EB0101A3F10103FB
:1020000070474FEA14454FEA114724EA054621EA92
:10201000074C05FB07F106FB07F70CFB06F24FF038
:10202000000605FB0CFC12EB074241EB174112EBDB
:102030000C4251EB1C4148BF7047921841EB010123
:10204000A3F101037047490050EAC12018BF0420E2
:102050004A0D18BF40F0010040F2FF72B2EB515F31
:1020600008BF40F00200012808BF05207047303843
:102070000A2801D2012070470020704710B50029BE
:102080000AD00878002807D005487844FFF7E0FB1D
:10209000002801D0002010BD0248784410BD000087
:1020A000020D0000FA0C000021F00042A2F1605283
:1020B000B2F5801F01F0004328BFD2F17F6C0BD92D
:1020C0005FEA001C43EAC20242EB507018BF70473F
:1020D00028BF20F001007047B2F5801FBCBF184632
:1020E00070474FEA410C1CF5001F02D2084600F071
:1020F0006CBD70B500F0AEFA00000089FFF7F6BFC6
:102100004FF00040A0F580007047491058BFC1F162
:1021100040415B1058BFC3F140438B42EFF3008056
:10212000704700002DE9C04130B4DFF8A0C23CEA9E
:10213000111418BF3CEA131400F0EC8081EA030587
:102140001CEA111444EAD57418BF1CEA131500F0F8
:10215000C780A4EB05044FF0004545EAC12145EADC
:10216000C32341EA505143EA525304F17F74994228
:1021700004F500344FEAC0204FEAC22208BF904263
:1021800000F09C804FEA13650FF24016765D4FEA2F
:10219000134506FB05F7C7F1807706FB07F74FEA03
:1021A000D737A7FB03687642C8F58038A7FB06CE71
:1021B00038BFA8F1010807FB08E64FF0000EA6FBA8
:1021C000028CE6FB03CEDCF1000CCEF1004E38BFF2
:1021D000AEF1010EA6FB0C584FF000074FF00005C2
:1021E000E6FB0E87A1FB08C6A0FB07CE16EB0E068A
:1021F00045F10005E1FB076515F1E04E7EBFA4F552
:1022000080345FEA46066D4116F1800745F100050E
:102210004FEA17274FEA066647EA0567A6F1DE464A
:10222000B6F1805F4FEA15251FD9384624F0010C1E
:1022300005EBC471BCF1FE6F01EB0C1102D8F0BCD0
:10224000BDE8008124425CBF01F5801E9EEAC47F88
:1022500002D4F0BCBDE80081244238D4F0BCA1F126
:10226000C041BDE8004100F043BA4FEAD22242EA41
:1022700043524FEAD323A7FB02864FEAD02040EA1D
:10228000415007FB03661EEA0E0F4FEAD12105FB02
:10229000026658BFA6EB0056B6EB00564FEA520E48
:1022A0004EEAC37E18EB0E0E56EB530EBDD518EB5F
:1022B00002085E417F1C55F10005B6E74FF480151A
:1022C0004FF000074FF000064FF00008ADE7F0BCFC
:1022D0004FF0000001F1C04101F00041BDE8008174
:1022E00011EA0C1F0CEA131500D00CE013EA0C1FC6
:1022F00000F025804FF00000F0BC81EA030101F0FE
:102300000041BDE80081F0BC81EA0301BDE8004165
:1023100000F0EEB9F0BCBDE8004170B500F09AF9EC
:10232000097EFC3E00F007B881EA03014FF000008F
:1023300001F00041704781EA030100F0D9B9F0BC17
:102340004FF000002249BDE800417047FFFDFBF956
:10235000F7F5F4F2F0EEEDEBE9E8E6E4E3E1E0DED8
:10236000DDDBDAD8D7D5D4D3D1D0CFCDCCCBCAC84A
:10237000C7C6C5C4C2C1C0BFBEBDBCBBBAB9B8B771
:10238000B6B5B4B3B2B1B0AFAEADACABAAA9A8A864
:10239000A7A6A5A4A3A3A2A1A09F9F9E9D9C9C9B32
:1023A0009A999998979796959594939392919190DD
:1023B0008F8F8E8E8D8C8C8B8B8A8989888887876E
:1023C0008685858484838382828181800000FF07E3
:1023D0000000F87F4FEA41034FEA5353A3F58063AF
:1023E000D3F11E03C8BFD3F1210C0CDD4FF0004226
:1023F00042EAC12242EA505232FA03FC8CEAE17C02
:10240000ACEBE1707047102BC4BF0020704703F5A0
:10241000787CBCF1FF3F04D06FF0004282EA2100DB
:10242000704770B500F016F949922480002070477B
:10243000F2E710F0004248BF4042B0FA80F310FAD1
:1024400003F10AD0C3F11D0303F580634FEA415045
:1024500002EB035202EBD12170474FF000007047AE
:10246000B0FA80F310FA03F10AD0C3F11D0303F5AB
:1024700080634FEA41504FEA035202EBD12170478B
:102480004FF000007047000051EA030C17D41CF510
:10249000801F58BFBCF5801F00F10680994218BF0D
:1024A000704708BF9042704707D711F5801F58BF8B
:1024B00013F5801F19D499427047894270471CF563
:1024C000801F08D5BCF5801FF7D58B4218BF704719
:1024D00008BF824270474FF4001C1CEB410F38BF0D
:1024E0001CEB430F01D28B42704770B500F0B2F87D
:1024F000922449004FF000514FF08053FFF705BE82
:10250000DFF848C170B51CEA111E1EBF1CEA131586
:102510009EEA0C0F95EA0C0F00F06F8081EA03042D
:1025200023EA4C134EEAD47E21EA4C1141F4801187
:1025300043F48013AE44A1FB024CA0FB0365AEF153
:102540007F7E361955EB0C05A1FB034C4CF10003C3
:10255000A0FB021C16EB0C06654153F10003094277
:1025600018BF46F0010613F4007F0BD14FEA033188
:102570004FEA0530340341EA155140EA16506FF036
:1025800003020AE04FEAC3214FEAC520F40241EA00
:10259000555140EA56506FF0020202EB2E4201EB19
:1025A000025585EACE710AD05FEA440C18BF24F0C8
:1025B000004450F1000041F1000120EAD47040F2E3
:1025C000FE7C624500D270BDA84214BF4FF080442B
:1025D0004FF04044002E08BF0024BEF1806FA8BF1A
:1025E000A1F1C041BDE8704080F282804FF0000050
:1025F00001F1C04101F0004170479EEA0C0F0CEA66
:10260000131518BF95EA0C0F06D04FF0000081EAB1
:10261000030E0EF0004170BD00F01CF88900013E71
:1026200000F007B800F009B84FEA430C5FEA5C5CC1
:1026300008D081EA030100F05BB84FEA410C5FEA81
:102640005C5CF6D14FF00000014970470000FF07C5
:102650000000F87F0EF1020E2EF0030E5EF8046B00
:10266000364205D4012A43EB030515F5001F12D8A5
:10267000012841EB010C1CF5001F0CD80ED14FEACC
:10268000D17C15F5001F0CEB4C0C0CF1020C08BFB3
:102690004CEBD37C04E04FF0080C01E04FEAD37C14
:1026A0000CEB4C0526FA05F606F00706B6F1040C0D
:1026B00006D20EEB860CBDE870404CF0010C604772
:1026C000DFE80CF0090B02024FF000414FF0000070
:1026D000A1F5002170BD19461046012851EB0104F7
:1026E00018BFD4F5001484BF002001F0004170BD74
:1026F0000808A0F500114FEA3101704743004FEA86
:10270000D30C4FEA3C0C43401FBF40070CF1605113
:1027100013F0FE4F70471CF0006F03D100200CF047
:10272000004170470CF0004343EA507010B540EA96
:10273000CC0000F004FA00BF000000924FEA000154
:10274000FFF7D6BF4FF000414FF00000A1F5002188
:102750007047000090EA010F48BF81F0004100F18E
:102760004A82421A3CBF801A89184FEAD0524FF071
:102770007F4C1CEA410FA2EBD15318BF9CEA026FB9
:1027800000F03B804FF0004C4CEA00204CEA012165
:1027900021FA03FC10EB0C0C1ED202F1FF325FEAAF
:1027A0001C2040EBC25038BF70471CF07F0F4FEA2F
:1027B000400C18BFBCF17F4F38BF7047C3F12003F6
:1027C000994008BF20F00100BCF17F4F38BF70472F
:1027D000A0F1C04000F0F9B94FEA3C00000A40EB1C
:1027E000C25028BF1CF0FF0F4FEA400CE6D018BFC4
:1027F000BCF17F4F38BF7047EAE79CEA026F05D013
:1028000010EA5C0F08BF00F00040704710B500F000
:1028100096F900BF64FBBE3E4FF47F0C1CEAD01259
:102820001EBF1CEAD11392EA0C0F93EA0C0F00F0C2
:10283000858090EA010F48BF42F4807240F4000C9A
:1028400041F400002CF07F4120F07F4000B5814230
:10285000A2EB03020FF2081CACEB504EC0F10000DB
:102860009EF800E04FEA4E0E00FB0EFC38BF490018
:102870004FEA2C1C02F5FA020CFB0EF34FEACE1EB7
:102880004FEA112C4FEAC1210EEB635E42EB22426C
:102890000EFB0CFC4FEA1C5300FB03114FEA112CFA
:1028A0004FEA01310EFB0CFC4FEADC4C00FB0C1133
:1028B000C14228BF09184CEB03335DF804EB10EB61
:1028C000410143EBC250B2F57C0F38BF704729D5A8
:1028D00012F0F00F1CBF00F1C04000F00040704744
:1028E000008182838485868788898B8C8D8E8F91E9
:1028F0009293959697999A9C9D9FA0A2A3A5A7A80D
:10290000AAACAEB0B2B3B5B7B9BCBEC0C2C5C7C938
:10291000CCCED1D4D7D9DCDFE2E6E9ECF0F3F7FA9C
:10292000FE0000004FEA400C0CF1807CBCF17E4FB1
:1029300028BF7047B0F1C04000F047B990EA010FDE
:102940000CEAD11348BF42F48072624538BF634538
:1029500007D213F47F0F16D080EA010000F0004088
:10296000704710B500F0EBF8097EFC3E00F005B8AA
:1029700080EA010000F00040704780EA010000F0AA
:10298000004000F022B912F47F0F04BF02487047E4
:1029900080EA010000F019B90000C07F41000B0E71
:1029A000D3F19E0208D950F400034FEA032323FA1F
:1029B00002F048BF4042704710B500F0C0F800BFB9
:1029C00049922480002070476FF0004282EA200084
:1029D00070470000C10DD1F19E0206DB4FEA0023D3
:1029E00043F0004323FA02F07047004207D54FEA54
:1029F0004001B1F1FE4F02D24FF00000704710B518
:102A000000F09DF849922480002070476FEA200072
:102A100070470000B0FA80F310FA03F2C3F19D038F
:102A20000AD0D90501EB1220530638BF704700F1D8
:102A3000010008BF20F00100704700004FF47F0C38
:102A40001CEAD0121EBF1CEAD11392EA0C0F93EAC3
:102A50000C0F00F0478090EA010F48BF42F48072EB
:102A60004FF0004C4CEA00204CEA012102EB03023B
:102A7000A0FB0113A2F50002002918BF43F00103D7
:102A80005B0028BF4FEA330342EB22425FEA132C7C
:102A90004CEBC2502EBFBCEB436FB2F57C0F7047BE
:102AA0004FEA036CBCF1004F08BF20F00100B2F503
:102AB0007C0F38BF70470BD582F0FF0212F5803FC4
:102AC000C8BF704700F1C040D8BF00F00040704759
:102AD00000F5000C5FEA4C0C48BF7047B0F1C040F5
:102AE00000F073B890EA010F0CEAD11348BF42F42A
:102AF0008072624538BF634504D280EA010000F06D
:102B00000040704710B500F01AF800BF8900013E80
:102B100000F007B800F009B85FEA410C5FEA1C6CEE
:102B200008D080EA010000F050B85FEA400C5FEA8C
:102B30001C6CF6D14FF00040A0F5800070470EF1FC
:102B4000020E2EF0030E5EF8044B244204D44FEA2A
:102B50004102B2F17F4F11D84FEA4003B3F17F4FEA
:102B60000CD80ED14FEAD07CB2F17F4F0CEB4C0C5D
:102B70000CF1020C08BF4CEBD17C04E04FF0080CC8
:102B800001E04FEAD17C0CEB4C0324FA03F404F08F
:102B90000704B4F1040C06D20EEB840CBDE810401F
:102BA0004CF0010C6047DFE80CF0070802024FF020
:102BB0000040A0F5800010BD0846420018BFD2F1C9
:102BC000807288BF00F0004010BDFF2141EAD05064
:102BD000C005704780F0004090EA010F7FF5C1AD5D
:102BE00081F0004100F007B890EA010F48BF81F082
:102BF00000413FF5B6AD421A04D882F00042A0EB86
:102C0000020011444FEAD0524FF07F4C1CEA410FB2
:102C1000A2EBD15318BF9CEA026F4AD04FF0004C90
:102C20004CEA00204CEA012121FA03FCB0EB0C0C29
:102C30000FD412F0FE0F36D05FEA4C001DD5001203
:102C400040EBC25038BF70471CF03F0F18BF7047B1
:102C50000BE0A2F101025FEA1C2040EBC25038BF3A
:102C600070471CF07F0F18BF7047C3F120039940D5
:102C700014BF401E20F00100704780084FEA122365
:102C800008BF7047B0FA80FCA2EB0C02CCF1280C14
:102C900060FA0CF093EA122F04BF00EBC2507047A9
:102CA0004FEAC3707047130A5FEADC1008BF704731
:102CB000F6E79CEA026F04D010EA5C0F08BF002020
:102CC000704710B5FFF73BFF40DFF63E81F0004054
:102CD0007047FEF734BB000002400000000000A077
:102CE0000000000005400000000000C800000000D7
:102CF0000C4000000000409C000000001940000053
:102D00000020BCBE0000000034400000BFC91B8E84
:102D100000000004B5400000504BCFD06607E2CF62
:102D2000010000006C4100003E8251AADFEEA73492
:102D300001000000D9420000DCB5A0E23A301F9744
:102D4000FFFFFFFFB4450000FD25A0C8E9A3C14F68
:102D5000FFFFFFFFFF3F00000000008000000000B9
:102D6000FF3F00000000008000000000A82D0008C8
:102D70000000002030040000280100080C2F00088B
:102D800030040020B8020000840100081C0000008C
:102D900043000000F8FFFFFF0C0000000E000000E1
:102DA0000F0000002E000000411AFF01320832100F
:102DB0003218322032283230323832403212321455
:102DC0005A1624321A321C5A1E303222322332242E
:102DD0005A2640322A322C5A2E4C32323234323673
:102DE00032373239323B323D323F32413243324563
:102DF0003246324732485A4908324A324C324E3211
:102E000050325232543258325A325C325E32603270
:102E1000643268326A326E327032729A740469FCBB
:102E20003202320432063208320A320C320E0A51B1
:102E300010FC29185A2D1C5A2F205A31245A332895
:102E40005A352C0A5946FC4129F029EC29E829E495
:102E500029E029DC29D829D03209320A5A0B283234
:102E60000D320E5A0F34321132125A1340321532CB
:102E7000165A174C3219321A5A1B585A1E04296016
:102E800029049A22042970290432269A2804DA2A6D
:102E9000049A2C049A2E049A30045A3204DA340428
:102EA00001103202320332043205320632075A0868
:102EB000FC2904320A320B320C320D320E320F3240
:102EC00010321132123213321432153216321732D6
:102ED000183219321A321B5A1CFC290429FC290405
:102EE00069FC290429FC29049A26FC2904A9FC2947
:102EF0000469FC290469FC290469FC290429FC29CA
:0C2F000004091AFC011C2AFEE101130068
:04000005080000ED02
:00000001FF
