:020000040800F2
:10000000B0070020FD1B0008AD020008AF02000889
:10001000B3020008B7020008BB020008000000009D
:10002000000000000000000000000000BF02000807
:10003000C102000800000000C3020008C502000859
:10004000171C0008171C0008171C0008171C0008C4
:10005000171C0008171C0008171C0008171C0008B4
:10006000171C0008171C0008171C0008171C0008A4
:10007000171C0008171C0008171C0008171C000894
:10008000171C0008171C0008171C0008171C000884
:10009000171C0008171C0008171C0008171C000874
:1000A000171C0008171C0008171C0008171C000864
:1000B000171C0008171C0008171C0008171C000854
:1000C000171C0008171C0008171C0008171C000844
:1000D000171C0008491A0008171C0008711B0008AB
:1000E000171C0008171C0008171C0008171C000824
:1000F000171C0008171C0008171C0008171C000814
:10010000171C0008171C0008171C0008171C000803
:10011000171C0008171C0008171C0008171C0008F3
:10012000171C0008171C0008171C0008171C0008E3
:1001300000F002F800F03FF80AA090E8000C8244BA
:100140008344AAF10107DA4501D100F034F8AFF297
:10015000090EBAE80F0013F0010F18BFFB1A43F0A5
:1001600001031847E84B0000084C0000103A24BF78
:1001700078C878C1FAD8520724BF30C830C144BF0C
:1001800004680C607047000000230024002500264E
:10019000103A28BF78C1FBD8520728BF30C148BFEA
:1001A0000B607047642903F00F84002070471FB56F
:1001B0001FBD10B510BD03F025FD1146FFF7F7FF79
:1001C00000F027F803F043FD03B4FFF7F2FF03BC90
:1001D00001F0DCFB10B501F06FFB4FF4165001F09D
:1001E000E4FB01F0D8FA00F087FE4FF4E13001F0B3
:1001F00068FC00F021FF05E0C82001F09AFB25A073
:1002000003F0A2FB00F0B2FF0028F5D101F043F8A3
:1002100010BD0EB5FFF7DEFF0121214803F0B6F84F
:100220000121204803F0B2F833E004E0684601F011
:1002300015F800B900E0F9E700BF9DF8000031387B
:10024000052821D2DFE800F0030609131D0000F0A5
:100250002BF91AE000F0C2F917E000F0FDFA40F6C1
:10026000B83001F066FB00200F4908600DE000F097
:100270005FFC40F6B83001F05CFB00200A490860E2
:1002800003E000F05DFD00E000BF00BF00208DF83E
:100290000000CAE76E7266206572726F720A000013
:1002A000000400400008004080012242704700BF67
:1002B000FEE700BFFEE700BFFEE700BFFEE77047B6
:1002C00070477047704700000CB500200190009007
:1002D0006C48006840F480306A49086000BF694893
:1002E000006800F4003000900198401C01900098D4
:1002F00018B90198B0F5A06FF1D16248006800F418
:10030000003010B10120009001E000200090009822
:10031000012843D15C48006840F010005A49086049
:100320000846006820F0030008600846006840F0B6
:1003300002000860534840685249486008464068D7
:1003400048600846406840F480604860084640685D
:1003500020F47C1048600846406840F4E81048608B
:100360000846006840F08070086000BF454800689B
:1003700000F000700028F9D04248406820F00300E7
:10038000404948600846406840F00200486000BFAD
:100390003C48406800F00C000828F9D10CBD10B5AD
:1003A000FFF792FF10BD10B53648006840F001001D
:1003B000344908600846406834490840314948607B
:1003C00008460068324908402E490860084600681F
:1003D00020F4802008600846406820F4FE00486051
:1003E0004FF41F008860FFF7DAFF4FF000602949E3
:1003F000086010BD10B5002100200022214B5B6871
:1004000003F00C0121B1042906D0082928D107E006
:10041000214B224C236027E01F4B204C236023E01C
:10042000184B5B6803F47010164B5B6803F4803262
:10043000022303EB904022B9194B4343174C23602E
:100440000DE0104B5B6803F4003323B1144B4343BE
:10045000124C236003E0104B4343104C236003E035
:100460000D4B0E4C236000BF00BF064B5B68C3F30F
:1004700003130C4CE15C094B1B68CB40074C236019
:1004800010BD000000100240002002400000FFF8F4
:10049000FFFFF6FE08ED00E000127A0000000020E9
:1004A00000093D0004000020F8B50020FE49086066
:1004B0004FF6E851022001F076F94FF6E85104209A
:1004C00001F071F90121022001F08FF94FF443701E
:1004D00001F02FFA0021022001F087F90121042008
:1004E00001F083F94FF4437001F023FA0021042056
:1004F00001F07BF90121022001F077F94FF44370FC
:1005000001F017FA0021022001F06FF90121042007
:1005100001F06BF94FF4437001F00BFA0021042055
:1005200001F063F900F01EFFE048456855E00A203D
:1005300001F0FFF900F016FFDC4844682946204628
:1005400004F010FB0646002104F0DAFA08D201217B
:10055000022001F04AF90021042001F046F910E0E0
:100560002946204604F0FEFA0646002104F0C8F9A8
:1005700007D20121042001F038F90021022001F006
:1005800034F9204604F030F806460022C84B03F048
:100590000BFF0BD20120C74908604CF250310320F9
:1005A00001F001F90021012001F01FF9684600F077
:1005B00055FE90B90020BF4908609DF800007328DF
:1005C0000BD10120B84908600021022001F00DF98B
:1005D0000021042001F009F9F8BDA8E72DE9F04F4A
:1005E0009DB04FF0000A4022B3490CA803F026FA50
:1005F0002022B149403104A803F020FA4FF0010B4A
:100600004FF6E851022001F0CEF84FF6E8510420F1
:1006100001F0C9F804E001A800F020FE00B900E0F4
:10062000F9E700BF0020A04908609DF805009DF88B
:10063000041001EB810100EB4100C4B2204604EB41
:10064000D0714910A4EB410109B1601EC4B2A4F1FC
:100650001E0000EBD07149100CAA52F821901E2CFC
:1006600003DB232C01DA954D1DE0232C03DB282C22
:1006700001DA934D17E0282C03DB2D2C01DA914D84
:1006800011E02D2C04DB322C02DA4FF07D550AE00C
:10069000322C03DB372C01DA8B4D04E0372C02DBE4
:1006A0003C2C00DC894D0121022001F09EF84FF422
:1006B000437001F03EF90021022001F096F801217B
:1006C000042001F092F84FF4437001F032F9002158
:1006D000042001F08AF80121022001F086F84FF48D
:1006E000437001F026F90021022001F07EF801217B
:1006F000042001F07AF84FF4437001F01AF9002158
:10070000042001F072F800F02DFE6848476850E0C0
:100710000A2001F00EF900F025FE6448D0F80480AC
:100720003946404604F01EFA0021009004F0E8F932
:1007300008D20121022001F058F80021042001F024
:1007400054F810E03946404604F00CFA00210090BD
:1007500004F0D6F807D20121042001F046F8002168
:10076000022001F042F84946404604F0C9F907D298
:100770000120504908600021022001F036F819E0FC
:100780001CA800F06BFDA0B900204A4908609DF844
:10079000700073280DD10120434908600021022018
:1007A00001F023F80021042001F01FF81DB0BDE87E
:1007B000F08FADE700BF4649284604F0D5F8009019
:1007C00004F06EF8064646E000F0CCFD3748476876
:1007D0000A2001F0AEF800F0C5FD3448D0F80480DE
:1007E0003946404604F0BEF90021009004F088F933
:1007F0000FD2BAF1000F0CD10121042000F0F5FF57
:10080000B0B201F096F80021042000F0EEFF4FF0A6
:10081000010A3946404604F0A5F90021009004F091
:100820006FF801D24FF0000A1CA800F017FD90B934
:100830000020204908609DF8700073280BD101202A
:10084000194908600021022000F0CFFF0021042098
:1008500000F0CBFFAAE7B7E72DE9F04FD9B0282188
:100860004FA803F01DF928221349603145A803F071
:10087000E5F828213BA803F013F928220E49883116
:1008800031A803F0DBF8302125A803F009F9202274
:100890000949B0311DA803F0D1F8302111A803F0A7
:1008A000FFF82022044915E0888122424C000020F4
:1008B00000002F4080012242504C00089A99193FB5
:1008C0006666263F3333333FE17A543FAE47613F9C
:1008D00000009643D03109A803F0B0F8002008903A
:1008E0008346079004E004A800F0B8FC00B900E0DB
:1008F000F9E700BF0020FE4908609DF81000642160
:1009000048439DF8111001EB810100EB41009DF877
:1009100012104418B42C01DDC4F5B4742146F5A0BE
:1009200003F012F85A2C02DC4FF0000B03E05A2CB3
:1009300001DD4FF0010B4FF00C0A2D2C03DD872C4D
:1009400001DA4FF0060ABBF1000F72D10A2094FBC6
:10095000F0F045A951F820900A2094FBF0F031A95D
:1009600051F820604946012000F01DFF3146022069
:1009700000F019FF4946032000F015FF314604201E
:1009800000F011FF002553E06D1C0021012000F054
:100990002CFF0021022000F028FF0121032000F09D
:1009A00024FF0121042000F020FF4FF4487000F0E4
:1009B000C0FF0021032000F018FF0021042000F0F8
:1009C00014FF0121084600F010FF0121022000F071
:1009D0000CFF4FF4487000F0ACFF504603F097FB5B
:1009E000CDE90201284603F07BFB0746C54AC64B0A
:1009F00003F0DCFBCDE90001DDE9022303F0D4FCC8
:100A000016D20021032000F0F0FE0021042000F0A7
:100A1000ECFE0021012000F0E8FE0021022000F0A1
:100A2000E4FE0120B949086059B0BDE8F08F00E04C
:100A3000AAE7BBF1010F79D1A4F164000A2190FB70
:100A4000F1F01DA951F82090A4F164000A2190FB57
:100A5000F1F009A951F8206032464946ACA002F0F5
:100A600073FF4946012000F09EFE3146022000F04F
:100A70009AFE4946032000F096FE3146042000F01D
:100A800092FE002551E06D1C0021012000F0ADFE1A
:100A90000021042000F0A9FE0121022000F0A5FEA3
:100AA0000121032000F0A1FE4FF4487000F041FF47
:100AB0000021022000F099FE0021032000F095FEA5
:100AC0000121084600F091FE0121042000F08DFE76
:100AD0004FF4487000F02DFF504603F018FBCDE9AD
:100AE0000201284603F0FCFA0746864A864B03F0CB
:100AF0005DFBCDE90001DDE9022303F055FC14D2D2
:100B00000021032000F071FE0021042000F06DFEA2
:100B10000021012000F069FE0021022000F065FEA6
:100B200001207A4908607FE700E0ACE700BF7BE77F
:100B30002DE9FC5F002500260027A84600240020A0
:100B40006B4908604FF6E851012000F02CFE4FF68B
:100B5000E851022000F027FE4FF6E851032000F094
:100B600022FE4FF6E851042000F01DFE00BF12E007
:100B700000F0F8FB6B480168484603F061FD8146D0
:100B800068484168584603F05BFD8346142000F036
:100B9000D0FE601CC4B2142CEADB204603F09CFE9D
:100BA00001460090484603F0B9FD8146204603F017
:100BB00093FE01460090584603F0B0FD8346BEE028
:100BC00000F0D0FB192000F0B4FE5648D0F800A089
:100BD000406801904946504603F0C4FF52490090D6
:100BE00003F08EFF09D200270121032000F0FDFD54
:100BF0000021012000F0F9FD11E04946504603F0C4
:100C0000B1FF4A49009003F07BFE08D20027002183
:100C1000032000F0EAFD0121084600F0E6FD5946F8
:100C2000019803F09FFF4049009003F069FF09D24B
:100C30004FF000080121042000F0D7FD0021022020
:100C400000F0D3FD5946019803F08CFF374900901E
:100C500003F056FE09D24FF000080021042000F0F6
:100C6000C4FD0121022000F0C0FD4946504603F0BA
:100C700079FF2D49009003F043FE15D849465046B0
:100C800003F070FF2949009003F03AFF0CD87F1C55
:100C9000142F09D1681CC5B20021032000F0A5FD66
:100CA0000021012000F0A1FD5946019803F05AFFF0
:100CB0001D49009003F024FE17D85946019803F00F
:100CC00051FF1A49009003F01BFF0ED808F10108EC
:100CD000B8F1140F09D1701CC6B20021022000F037
:100CE00084FD0021042000F080FD052E27DD1FE09B
:100CF000888122426C6F6E675F616E676C6520252C
:100D0000640000009A9999999999F93F80012242CB
:100D1000785F70776D20256420795F70776D20256E
:100D2000640000004C00002000004040000040C073
:100D3000052D04DD01206E490860BDE8FC9F3FE7FA
:100D400000BF00BF00BF4EF66021012000F02BFD68
:100D50004EF66021022000F026FD4EF660210320B1
:100D600000F021FD4EF66021042000F01CFD012161
:100D7000084600F03AFD0021022000F036FD002177
:100D8000032000F032FD0021042000F02EFD4FF47E
:100D9000487000F0CEFD0021012000F026FD00216A
:100DA000022000F022FD0021032000F01EFD0021A2
:100DB000042000F01AFD0021012000F016FD0021A2
:100DC000022000F012FD0121032000F00EFD0021A1
:100DD000042000F00AFD4FF4487000F0AAFD002145
:100DE000012000F002FD0021022000F0FEFC0021A5
:100DF000032000F0FAFC0021042000F0F6FC00F0D3
:100E0000B1FA00BF00BF0A2000F093FD6FE000F0D0
:100E1000A9FA3848056844680021284603F070FEA6
:100E200015D80021204603F06BFE10D8012108469A
:100E300000F0DBFC0021022000F0D7FC00210320A1
:100E400000F0D3FC0121042000F0CFFC4FE0002192
:100E5000284603F055FD15D80021204603F050FE2A
:100E600010D80121084600F0C0FC0121022000F04A
:100E7000BCFC0021032000F0B8FC0021042000F09D
:100E8000B4FC34E00021284603F03AFD15D80021D7
:100E9000204603F035FD10D80021012000F0A5FC0C
:100EA0000121022000F0A1FC0121032000F09DFCA3
:100EB0000021042000F099FC19E00021284603F0ED
:100EC0001FFE14D80021204603F01AFD0FD8002180
:100ED000012000F08AFC0021022000F086FC0121A4
:100EE000032000F082FC0121042000F07EFC8EE74C
:100EF000800122424C00002008B50121302001F081
:100F0000B9F90120ADF8000010208DF8030003208E
:100F10008DF8020069460C4800F0F0FE01210A48F5
:100F200000F09BFF0420ADF8000010208DF80300B6
:100F300003208DF802006946044800F0DFFE04211A
:100F4000024800F088FF08BD001001400014014075
:100F500070B50546002405E0601CC4B2C82C01DD54
:100F6000002070BD0221314801F0A9FD0028F3D016
:100F700029462E4801F050FD002405E0601CC4B253
:100F8000C82C01DD0020ECE70121284801F097FD85
:100F90000028F3D0254801F041FDC0B2E1E708B5D3
:100FA000012141F2040001F065F9E020ADF80000F4
:100FB00018208DF8030003208DF8020069461C48B4
:100FC00000F09CFEE0211A4800F045FF002019497E
:100FD00008804FF482704880002088800220C880FA
:100FE0000120088140024881382088810020C88182
:100FF000072008820D4801F039FC01210B4801F05F
:10100000DAFCFF20FFF7A4FF08BD084909884FF666
:10101000C7721140054A11801146098801431180A9
:101020001146098841F040011180704700300140AD
:10103000000801403800002000B587B001211420CD
:1010400001F018F91C20ADF8180010208DF81B00D5
:1010500003208DF81A0006A9B74800F04FFE1020B3
:10106000ADF818008DF81B0003208DF81A0006A9B2
:10107000B24800F043FE1021B04800F0ECFE022020
:10108000ADF8180048208DF81B0003208DF81A00D9
:1010900006A9A94800F032FE1E21A74800F0DBFE99
:1010A000FFF77DFF0021A64801F085FC0020ADF888
:1010B00004004FF48270ADF806000020ADF808007F
:1010C000ADF80A00ADF80C004FF40070ADF80E005A
:1010D0003820ADF810000020ADF812000720ADF860
:1010E000140001A9964801F0C1FB00209549086051
:1010F00001209549C1F8900107B000BD2DE9F041EC
:1011000007460D4616460020904908603846FFF70E
:101110001FFF8046002405E0FF20FFF719FF285538
:10112000601CC4B2B442F7DB012088490860404625
:10113000BDE8F0812DE9F04107460C461546002038
:10114000824908603846FFF703FF8046002605E025
:1011500014F8010BFFF7FCFE701CC6B2AE42F7DBC1
:1011600001207A4908604046BDE8F0811CB578A1AD
:1011700003C9CDE900011020FFF747FF05226946AA
:101180003020FFF7D7FF052269461020FFF7B6FF92
:10119000002406E01DF80400A52800D003E0601C30
:1011A000C4B2052CF6DB00BF052C01D001201CBD0C
:1011B0000020FCE770B505460C4600206349086036
:1011C0002846FFF7C5FE06462046FFF7C1FE012070
:1011D0005D49C1F89001304670BD70B504460020ED
:1011E0005A4908602046FFF7B3FEFF20FFF7B0FE24
:1011F000054601205449C1F89001284670BD70B5DC
:1012000005461020FFF701FF00204E490860052227
:101210002946A020FFF78EFF01204F49C1F8900119
:1012200000BF48488C3800680028FAD10720FFF733
:10123000D4FF044621462720FFF7BCFF04F010002E
:1012400028B1FF21E120FFF7B5FF102070BD04F0A9
:10125000200008B12020F9E7FF20F7E770B5044629
:101260001020FFF7D2FE0720FFF7B7FF05462946FB
:101270002720FFF79FFF05F0400050B105222146CF
:101280006120FFF73BFFFF21E220FFF793FF0020E3
:1012900070BD0120FCE710B500202A490860052236
:1012A0002E492A20FFF746FF01212120FFF782FF68
:1012B00001212220FFF77EFF28212520FFF77AFF5A
:1012C00005213120FFF776FF0F212620FFF772FF5F
:1012D0000F212020FFF76EFF01201F49C1F8900168
:1012E00010BD10B500201749086005221C493020A8
:1012F000FFF720FF052219492A20FFF71BFF0121D4
:101300002120FFF757FF01212220FFF753FF1A2169
:101310002420FFF74FFF28212520FFF74BFF0F2147
:101320002620FFF747FF0E212020FFF743FF012073
:101330000949C1F8900110BD0008014000100140AA
:1013400000300140900121420000224290012242DF
:10135000A5A5A5A5A500000000002142454D000857
:10136000404D00082DE9FE439A48007800287BD0C4
:10137000994801680091416801910189ADF8081010
:10138000807A8DF80A00002092490870924800780F
:10139000552869D190484078512804D0522864D00B
:1013A00053287DD1C4E09DF802109DF8032041EA46
:1013B000022108B202F094FE80460022874B02F020
:1013C00037FD06460022864B02F0F0FE044602F08E
:1013D00049FC844908609DF804109DF8052041EA05
:1013E000022108B202F07CFE804600227B4B02F014
:1013F0001FFD064600227A4B02F0D8FE044602F09A
:1014000031FC784948609DF806109DF8072041EAB4
:10141000022108B202F064FE804600226F4B02F007
:1014200007FD064600226E4B02F0C0FE044602F0A5
:1014300019FC6C4988609DF808109DF8092041EA64
:10144000022108B202F04CFE80460022664B02F0F8
:10145000EFFC06460022654B02F036FC044602F023
:1014600001FC63490860ADE0B1E09DF802109DF811
:10147000032041EA022108B202F032FE8046002237
:10148000564B02F0D5FC064600225A4B02F08EFE67
:10149000044602F0E7FB584908609DF8041000E09C
:1014A0008FE09DF8052041EA022108B202F018FE03
:1014B00080460022494B02F0BBFC064600224D4B01
:1014C00002F074FE044602F0CDFB4B4948609DF8E3
:1014D00006109DF8072041EA022108B202F000FE42
:1014E000064600223D4B02F0A3FC04460022414B7D
:1014F00002F05CFE804602F0B5FB3F4988609DF833
:1015000008109DF8092041EA022108B202F0E8FD26
:1015100080460022344B02F08BFC06460022334BFF
:1015200002F0D2FB044602F09DFB3149086049E01D
:101530009DF802109DF8032041EA022108B202F052
:10154000CFFD06460022254B02F072FC0446002225
:101550002A4B02F02BFE804602F084FB28490860EB
:101560009DF804109DF8052041EA022108B202F01E
:10157000B7FD80460022194B02F05AFC06460022B5
:101580001E4B02F013FE044602F06CFB1C4948603F
:101590009DF806109DF8072041EA022108B202F0EA
:1015A0009FFD064600220D4B02F042FC044600223D
:1015B000124B02F0FBFD804602F054FB104988609C
:1015C00000E000BF00BF0E480068BDE8FE830020B9
:1015D000FBE7000023000020380100200000E0406D
:1015E000000030405800002000407540002042407C
:1015F0001400002000409F406400002000806640EE
:101600004C00002030B587B048F6A0452C4601219B
:10161000042000F03CFE4EF65F20ADF814000220DE
:10162000ADF810000020ADF81600ADF8120004A9C6
:101630009C4801F04FFB6020ADF800000120ADF8A0
:101640000200ADF806500020ADF808006946954844
:1016500001F00CFC0821934801F0DEFF0120ADF8F9
:101660000200ADF806400020ADF8080069468D483C
:1016700001F047FC08218B4801F0D7FF0121894880
:1016800001F084FF07B030BD30B587B048F6A04503
:101690002C460121022000F0FAFD4EF65F20ADF845
:1016A00014000220ADF810000020ADF81600ADF8CF
:1016B000120004A97C4801F00DFB6020ADF8000089
:1016C0000120ADF80200ADF806500020ADF808008A
:1016D0006946754801F0CAFB0821734801F09CFF78
:1016E0000120ADF80200ADF806400020ADF808007A
:1016F00069466D4801F005FC08216B4801F095FF33
:101700000121694801F042FF07B030BD08B5012151
:10171000082000F0AFFD0320ADF8000018208DF880
:10172000030003208DF802006946604800F0E6FAE5
:10173000F020ADF8000010208DF8030003208DF894
:1017400002006946594800F0D9FAF021574800F0E4
:1017500082FB4FF44070ADF8000018208DF80300B4
:1017600003208DF802006946504800F0C7FA4FF494
:101770007040ADF8000010208DF8030003208DF8B4
:1017800002006946494800F0B9FA4FF470414748F1
:1017900000F061FB08BD10B5FFF7B8FFFFF774FF5D
:1017A000FFF730FF10BD70B505460C46012D06D081
:1017B000022D09D0032D0CD0042D14D10EE0A1B2BE
:1017C000394802F07FF80EE0A1B2374802F07CF809
:1017D00009E0A1B2334802F075F804E0A1B2314843
:1017E00002F072F800BF00BF70BD01292DD10128A1
:1017F00006D002280CD0032813D0042823D119E0E6
:1018000001222B4B1A6000222A4BC3F894211BE0C3
:101810000122274B08331A600022264BC3F89C2173
:1018200012E00122224B20331A600022214BC3F820
:10183000B42109E001221E4B28331A6000221D4BFF
:10184000C3F8BC2100E000BF2AE049BB012806D054
:1018500002280BD0032811D004281FD116E0012242
:10186000134B1A60134BC3F8942118E00122104B5C
:1018700008331A600F4BC3F89C2110E001220C4B77
:1018800020331A600B4BC3F8B42108E00122084B47
:1018900028331A60074BC3F8BC2100E000BF00BF2B
:1018A000704700000008004000040040000C0140A8
:1018B000908121420080214210B56FF0040000F0B9
:1018C00090FF2E4800682E49B0FBF1F02D490870BA
:1018D0000846007800EB4001C1EBC0104FF6FF71E5
:1018E00001EAC0002849088010BD0146254A127847
:1018F0004A434FF0E0235A6100229A611A46126966
:1019000042F001021A6100BF4FF0E022106900F0BE
:1019100001021AB100F48032002AF5D04FF0E02223
:10192000126922F001024FF0E0231A6100229A614D
:1019300070470146144A12884A434FF0E0235A6127
:1019400000229A611A46126942F001021A6100BF30
:101950004FF0E022106900F001021AB100F4803269
:10196000002AF5D04FF0E022126922F001024FF078
:10197000E0231A6100229A617047000000000020F5
:1019800000127A00180000201A000020014600BF53
:10199000704700BF8F4A128802F04002002AF9D037
:1019A000C2B28C4B1B1D1A80704710B586B004461E
:1019B000012144F2040000F05DFC864800F0BEFC0A
:1019C0004FF40070ADF8140003208DF816001820B5
:1019D0008DF8170005A9804800F090F94FF4806059
:1019E000ADF8140004208DF8170005A97A4800F01E
:1019F00085F925208DF8000003208DF801008DF871
:101A0000020001208DF80300684600F0A0FE01945A
:101A10000020ADF80800ADF80A00ADF80C00ADF8F4
:101A200010000C20ADF80E0001A96A4800F0C9FCB6
:101A3000012240F22551674800F05BFD0121654815
:101A400000F04BFD06B010BD10B540F225516148C5
:101A500000F034FE10B35F4800F0B0FDC4B25F4840
:101A6000008800F40040C8B95C48008800F4804059
:101A700060B10A2C03D000205849088020E0574864
:101A8000008840F400405549088019E00D2C06D12B
:101A90005248008840F480405049088010E04F4888
:101AA0000088C0F30D004E490C544C480088401C7F
:101AB0004A49088008460088C72801DD00200880C0
:101AC00010BD10B586B004460121880400F0DFFB8C
:101AD0000121092000F0CEFB424800F02FFC4FF41A
:101AE0008060ADF8140003208DF8160018208DF8E2
:101AF000170005A93C4800F001F94FF40060ADF86B
:101B0000140048208DF8170005A9374800F0F6F8B2
:101B100027208DF8000002208DF8010003208DF8A9
:101B2000020001208DF80300684600F010FE0194C9
:101B30000020ADF80800ADF80A00ADF80C00ADF8D3
:101B400010000C20ADF80E0001A9264800F039FC69
:101B5000012240F22551234800F0CBFC012121480D
:101B600000F0BBFC40211F4800F09FFD06B010BDF7
:101B700010B540F225511B4800F0A0FD38B31948BC
:101B800000F01CFD19491A4A127888541848007848
:101B900020B908460078552800D010BD14480078B8
:101BA000401C13490870084600780B280FD11148D3
:101BB0000E490A6802604A6842600A890281897A8D
:101BC000817200200A49087001200B49087000BF8B
:101BD000E3E7000000380140000801402000002039
:101BE0007000002000480040000C0140430100202C
:101BF00022000020380100202300002009488047EF
:101C000009480047FEE7FEE7FEE7FEE7FEE7FEE7DE
:101C1000FEE7FEE7FEE7FEE704480549054A064BF6
:101C200070470000A703000831010008B001002040
:101C3000B0070020B0030020B003002010B5044618
:101C4000CC48844208D10121042000F02DFB002162
:101C5000042000F029FB46E0C748844208D1012156
:101C6000082000F021FB0021082000F01DFB3AE0D5
:101C7000C248844208D10121102000F015FB002148
:101C8000102000F011FB2EE0BD48844208D1012154
:101C9000202000F009FB0021202000F005FB22E0BD
:101CA000B848844208D10121402000F0FDFA00210B
:101CB000402000F0F9FA16E0B348844208D101212F
:101CC000802000F0F1FA0021802000F0EDFA0AE017
:101CD000AE48844207D10121801500F0E5FA0021C9
:101CE000A01500F0E1FA10BD10B50121084600F082
:101CF000DBFA0021012000F0D7FA10BD2DE9F041F8
:101D0000024600250026002000230024002791F829
:101D100003C00CF00F0591F803C00CF0100CBCF1DF
:101D2000000F03D091F802C04CEA050591F800C0FD
:101D3000BCF1000F31D0146800202BE04FF0010CF3
:101D40000CFA00F3B1F800C00CEA03069E4220D161
:101D500083004FF00F0C0CFA03F7BC4305FA03FCA9
:101D60004CEA040491F803C0BCF1280F06D14FF0EF
:101D7000010C0CFA00FCC2F814C00AE091F803C090
:101D8000BCF1480F05D14FF0010C0CFA00FCC2F871
:101D900010C0401C0828D1D31460B1F800C0BCF1B9
:101DA000FF0F34DD546800202EE000F1080C4FF0E6
:101DB000010808FA0CF3B1F800C00CEA03069E42D1
:101DC00021D183004FF00F0C0CFA03F7BC4305FA46
:101DD00003FC4CEA040491F803C0BCF1280F05D1C0
:101DE00000F1080C08FA0CF8C2F8148091F803C04E
:101DF000BCF1480F07D100F1080C4FF0010808FAB8
:101E00000CF8C2F81080401C0828CED35460BDE8FE
:101E1000F0814FF6FF710180022181700421C170B1
:101E200070470246002093680B400BB1012000E090
:101E3000002070470146886880B270470246002043
:101E4000D3680B400BB1012000E000207047014631
:101E5000C86880B2704701617047416170470AB13C
:101E6000016100E041617047C16070474FF480320A
:101E70000A43826181618261826982697047024698
:101E80000020434B18684FF68073184040EA021058
:101E900008433F4B186070473E49C8617047F0B532
:101EA0000A46002300240021002500F00046B6F178
:101EB000004F02D1364EF16901E0354E7168C0F332
:101EC000034583B200F44016B6F5401F08D121F057
:101ED00070612F4E766826F070662D4F7E6012E09E
:101EE00000F48016B6F5801F06D1032606FA05F425
:101EF000A14341F0706106E0460D360103FA06F693
:101F0000B14341F0706122B1460D360103FA06F685
:101F1000314300F00046B6F1004F02D11C4EF16192
:101F200001E01B4E7160F0BD30B500228B071C0F25
:101F30000F2303FA04F2164B08338C1053F82430A5
:101F40009343134C08348D1044F8253023468C10ED
:101F500053F824308C07240F00FA04F423430C4C6C
:101F600008348D1044F8253030BD0A49DC31086052
:101F70007047000000080140000C014000100140C3
:101F80000014014000180140001C014000200140E5
:101F90000000014000002042DF48006840F00100DE
:101FA000DD49086008464068DC490840DA49486075
:101FB00008460068DA490840D749086008460068C2
:101FC00020F4802008600846406820F4FE00486045
:101FD0004FF41F0088607047CF49096821F48031B1
:101FE000CD4A11601146096821F480211160B0F5D5
:101FF000803F03D0B0F5802F0ED106E0C6490968B6
:1020000041F48031C44A116007E0C349096841F4D2
:10201000A021C14A116000E000BF00BF704710B5A9
:1020200001460022002300204A11012A02D1BA4CA5
:10203000236806E0022A02D1B74C236A01E0B64CBD
:10204000636A01F01F02012494401C400CB101207E
:1020500000E0002010BD38B50020009000240025CD
:1020600000BF3120FFF7DBFF05460098401C0090C1
:102070000098B0F5A06F01D0002DF2D03120FFF70D
:10208000CEFF08B1012400E00024204638BD0146FF
:102090000020A14A106820F0F80040EAC10010605A
:1020A0007047A04908607047024600209A4B586864
:1020B00020F47C1042EA01031843974B58607047A4
:1020C00098490866704701460020934A506820F0FE
:1020D00003000843506070478F48406800F00C00D0
:1020E0007047014600208C4A506820F0F0000843F9
:1020F0005060704701460020874A506820F4E06035
:1021000008435060704701460020834A506820F41D
:10211000605040EAC1005060704729B17E4A527A4F
:1021200002437D4B5A7204E07B4A527A82437A4BD7
:102130005A7270477B49D8310860704701460020C9
:10214000754A506820F440400843506070470021B1
:10215000714A20321170704A82F82010012802D092
:1021600004280AD104E001216B4A2032117005E0F5
:102170000521694A2032117000E000BF00BF70479E
:102180006949086070476449096A0143624A1162FB
:102190007047654944390860704730B50021002216
:1021A000002400235C4D6D6805F00C0121B1042969
:1021B00005D0082923D105E05C4D056022E05B4D88
:1021C00005601FE0544D6D6805F47012524D6D6846
:1021D00005F48034022505EB92421CB9544D554359
:1021E00005600BE04C4D6D6805F400351DB1504D98
:1021F0005543056002E04D4D5543056002E04B4DEF
:10220000056000BF00BF444D6D6805F0F00109098D
:10221000484D6B5C0568DD4045603F4D6D6805F4D9
:10222000E061090A434D6B5C4568DD4085603A4DCD
:102230006D6805F46051C90A3E4D6B5C4568DD4030
:10224000C560354D6D6805F44041890B3A4D6B5CB6
:10225000C568B5FBF3F5056130BD29B12E4A526959
:1022600002432D4B5A6104E02B4A526982432A4BA8
:102270005A61704729B1284A92690243264B9A61F4
:1022800004E0254A92698243234B9A61704729B141
:10229000214AD2690243204BDA6104E01E4AD26926
:1022A00082431D4BDA61704729B11B4AD268024351
:1022B000194BDA6004E0184AD2688243164BDA60A0
:1022C000704729B1144A12690243134B1A6104E0A2
:1022D000114A12698243104B1A6170471249403902
:1022E000086070470F49C86470470B49C871704750
:1022F0000948406A40F080700749486270470146CB
:102300000020054A92680A400AB1012000E000203E
:102310007047014988727047001002400000FFF8C2
:10232000FFFFF6FE000042428004424200127A00A3
:1023300000093D00240000203400002010B50446B0
:10234000FB48844209D101218803FFF7ADFF00213A
:102350004FF48040FFF7A8FF32E0F648844209D1ED
:1023600001214804FFF7ADFF00214FF40030FFF7D3
:10237000A8FF25E0F048844209D101218804FFF735
:10238000A0FF00214FF48020FFF79BFF18E0EB48EF
:10239000844209D10121C804FFF793FF00214FF4C3
:1023A0000020FFF78EFF0BE0E548844208D10121B1
:1023B0000805FFF786FF00214FF48010FFF781FF2B
:1023C00010BD2DE9F04786B005460E460024A24612
:1023D00000BFA1460027B08900B100BF2F462C8A5C
:1023E0004CF6FF700440F08804432C82AC894EF612
:1023F000F3100440B08831890843718908430443CD
:10240000AC81AC8A4FF6FF400440B0890443AC82F3
:1024100001A8FFF7C2FEC648874202D1DDF810A02E
:1024200001E0DDF80CA0A88900F4004040B10AEBFF
:10243000CA0000EB0A1031684900B0FBF1F807E070
:102440000AEBCA0000EB0A1031688900B0FBF1F812
:102450006420B8FBF0F004012009642101FB10891D
:10246000A88900F4004040B1322000EBC900B0FB65
:10247000F1F000F00700044308E0322000EB0910FF
:102480006421B0FBF1F000F00F0004432C8106B092
:10249000BDE8F0874FF41651016000218180C180B2
:1024A00001810C21418100218181704710B50246D4
:1024B0000020108A4FF2FF0318400B884C882343FA
:1024C0008C882343CC8823431843108210BD0021FD
:1024D000018041808180C180704721B1828942F4AE
:1024E0000052828104E082894DF6FF731A40828196
:1024F0007047F0B50346002400260025002040F672
:102500006A17B94200D100BF1846C1F3421401F066
:102510001F06012707FA06F5012C01D10C3004E053
:10252000022C01D1103000E014301AB107682F439B
:10253000076002E00768AF430760F0BD1AB1838A05
:102540000B43838202E0838A8B4383827047028A33
:102550004FF6F0731A400282028A0A4302827047E1
:1025600082894FF2FF731A40828182890A438281F5
:10257000704721B1828942F00202828104E082899F
:102580004FF6FD731A4082817047028A4FF6DF735F
:102590001A400282028A0A430282704721B1028AEB
:1025A00042F48042028204E0028A4BF6FF731A4032
:1025B00002827047C1F30802828070470146888812
:1025C000C0F308007047818941F0010181817047A3
:1025D000028BD2B20283028B42EA0122028370474D
:1025E000028B02F47F420283028B0A43028370470C
:1025F00021B1828A42F02002828204E0828A4FF670
:10260000DF731A408282704721B1828A42F0100241
:10261000828204E0828A4FF6EF731A40828270470A
:1026200021B1828A42F00802828204E0828A4FF657
:10263000F7731A408282704721B1828942F40042C6
:10264000828103E08289C2F30E028281704721B148
:10265000828A42F40062828204E0828A4FF2FF732F
:102660001A4082827047828A4FF6FB731A40828238
:10267000828A0A438282704721B1828A42F0020232
:10268000828204E0828A4FF6FD731A40828270478C
:1026900002460020B1F5007F00D100BF13880B4037
:1026A0000BB1012000E00020704701F40072B2F588
:1026B000007F00D100BFCA430280704770B5024658
:1026C000002400230025002040F66A16B14200D104
:1026D00000BFC1F3421501F01F03012606FA03F300
:1026E000012D02D19689334006E0022D02D1168ACF
:1026F000334001E0968A33400C12012606FA04F4B6
:102700001688344013B10CB1012000E0002070BDE8
:1027100010B50022002340F66A14A14200D100BF88
:102720000A1201249440A3B2DC43048010BD0000CF
:10273000003801400044004000480040004C004088
:102740000050004031490143314A1160704770B573
:10275000002100230F22C47804B32D4C246804F414
:10276000E064C4F5E064210AC1F10403CA4044787E
:1027700004FA03F18478144021430901254C0678BA
:10278000A155047804F01F050124AC4005786D11B3
:10279000AD0005F1E025C5F8004109E0047804F03A
:1027A0001F050124AC401C4D0678761145F82640E3
:1027B00070BD1A4A0A400243154B1B1F1A6070472E
:1027C00039B1134A121D12680243114B1B1D1A60C6
:1027D00006E00F4A121D126882430D4B1B1D1A6042
:1027E0007047042808D14FF0E021096941F0040145
:1027F0004FF0E022116107E04FF0E021096921F07C
:1028000004014FF0E0221161704700000000FA055A
:102810000CED00E000E400E080E100E080FFFF1F3D
:1028200010B50446BE48844208D101218014FFF748
:102830003BFD0021A014FFF737FD16E0B9488442A4
:1028400008D101210014FFF73CFD00212014FFF7FF
:1028500038FD0AE0B448844207D10121C013FFF7D4
:1028600030FD0021E013FFF72CFD10BD10B5002254
:10287000028802F441520B884C8823438C882343FE
:10288000CC8823430C8923434C8923438C892343DD
:10289000CC8923431A430280838B4FF2FF74234079
:1028A00083830B8A038210BD2DE9F04F85B0054666
:1028B0000C464FF0000902274FF000084FF0010BC3
:1028C0000026B246A88B4FF240010840A8830220A0
:1028D0002884B5F81C90A068022801D100BF38E018
:1028E000A08810B94FF0010B01E04FF0020B8D48AA
:1028F000854200D100E000BF6846FFF74EFCDDF8DE
:1029000000A0E088B0F5007F0AD14FEA1A2000EB62
:1029100080004000A168B0FBF1F0401D86B20BE0E2
:102920004FEA4B10BAFBF0F000EB80004000A168CA
:10293000B0FBF1F0401D86B20A20B6FBF0F606F0BF
:102940000108A6EB0800C0F34F074FF6FF7000EA3E
:102950000828022F01DBFF2F02DD02274FF00008BD
:10296000E08840EA080038432884A088A189084309
:10297000618808432188084340F4006040EA09095F
:10298000A5F81C9005B0BDE8F08F002101804180C2
:102990008180C180018141818181C18107210182C2
:1029A00070470021018041808180C18002218160C7
:1029B00000218181704721B1028842F040020280EB
:1029C00004E002884FF6BF731A400280704721B1BD
:1029D000828B42F48062828304E0828B4FF6FF3365
:1029E0001A408283704730B5002400230C11012562
:1029F000A540ABB21AB185881D43858002E0858869
:102A00009D43858030BD1AB183880B43838002E0EB
:102A100083888B4383807047818170470146888912
:102A200070474FF6FF62914204D0028842F48072F0
:102A3000028004E002884FF6FF631A40028070476C
:102A400021B1828842F00402828004E082884FF63D
:102A5000FB731A408280704702884FF2FF731A405E
:102A6000028002880A4302807047018841F4805145
:102A70000180704721B1028842F40052028004E0D4
:102A800002884DF6FF731A4002807047024600200C
:102A9000012901D0108B00E0908A70470146088A16
:102AA0007047B1F5804F04D1028842F48042028021
:102AB00004E002884BF6FF731A400280704702461A
:102AC000002013890B400BB1012000E0002070476B
:102AD000CA4302817047F0B502460020002400235B
:102AE000002501F00F070126BE40B4B20B110126EC
:102AF0009E40B3B2968806EA03051689264016B1B1
:102B00000DB1012000E00020F0BD10B5002201F061
:102B10000F040123A3409AB2D343038110BD0000E8
:102B20000030014000380040003C004010B5044631
:102B3000FE48844208D10121C014FFF7B5FB0021F3
:102B4000E014FFF7B1FBC4E0B4F1804F08D10121DC
:102B50000846FFF7B6FB00210120FFF7B2FBB8E003
:102B6000F348844208D101210220FFF7AAFB00218B
:102B70000220FFF7A6FBACE0EE48844208D1012119
:102B80000420FFF79EFB00210420FFF79AFBA0E042
:102B9000E948844208D101210820FFF792FB002177
:102BA0000820FFF78EFB94E0E448844208D101211D
:102BB0001020FFF786FB00211020FFF782FB88E042
:102BC000DF48844208D101212020FFF77AFB002151
:102BD0002020FFF776FB7CE0DA48844208D101210F
:102BE0004014FFF761FB00216014FFF75DFB70E00C
:102BF000D548844209D10121C804FFF755FB0021C3
:102C00004FF40020FFF750FB63E0D048844209D125
:102C100001210805FFF748FB00214FF48010FFF762
:102C200043FB56E0CA48844209D101214805FFF719
:102C30003BFB00214FF40010FFF736FB49E0C5488D
:102C4000844208D101214020FFF73BFB00214020B6
:102C5000FFF737FB3DE0C048844208D101218020C6
:102C6000FFF72FFB00218020FFF72BFB31E0BB4853
:102C7000844208D101218015FFF723FB0021A01514
:102C8000FFF71FFB25E0B648844209D10121080463
:102C9000FFF70AFB00214FF48030FFF705FB18E037
:102CA000B048844209D101214804FFF7FDFA002110
:102CB0004FF40030FFF7F8FA0BE0AB48844208D13C
:102CC00001218804FFF7F0FA00214FF48020FFF77C
:102CD000EBFA10BD00220288944B98420ED0994B1B
:102CE00098420BD0B0F1804F08D0914B984205D05C
:102CF000904B984202D0904B984204D14FF68F737C
:102D00001A404B881A438D4B984207D08C4B9842FF
:102D100004D04FF6FF431A40CB881A4302808B88B9
:102D200083850B880385814B98420BD0854B984255
:102D300008D08B4B984205D08A4B984202D08A4BE0
:102D4000984201D10B7A038601238382704770B5C4
:102D5000002400220023058C4FF6FE7635400584C2
:102D6000028C8388048B4FF68F752C40B51E2C4047
:102D70000D882C43751E2A400D892A434D882A430D
:102D80006A4DA8420BD06F4DA84208D0744DA8429E
:102D900005D0744DA84202D0734DA84213D14FF60E
:102DA000F7752A404D892A434FF6FB752A408D88D6
:102DB0002A434FF6FF652B404FF6FF552B408D8978
:102DC0002B43CD892B4383800483CD888586028461
:102DD00070BD70B5002400220023058C4FF6EF76FD
:102DE00035400584028C8388048B48F6FF752C409F
:102DF0004FF6FF452C400D884FF6FF7606EA052575
:102E00002C434FF6DF752A400D8906EA05152A4343
:102E10004D8806EA05152A43444DA84202D0494D83
:102E2000A8421DD14FF67F752A404D894FF6FF7697
:102E300006EA05152A434FF6BF752A408D8806EA33
:102E400005152A434FF6FF352B404FF2FF752B40F7
:102E50008D8906EA85052B43CD8906EA85052B4336
:102E600083800483CD880587028470BD70B50024FB
:102E700000220023058C4FF6FF6635400584028C46
:102E80008388848B4FF68F752C404FF6FC752C4051
:102E90000D882C434FF6FF552A400D894FF6FF76DB
:102EA00006EA05252A434D8806EA05252A431F4DD3
:102EB000A84202D0234DA8421DD14FF2FF752A40EF
:102EC0004D894FF6FF7606EA05252A434FF6FF3572
:102ED0002A408D8806EA05252A434EF6FF752B40C9
:102EE0004DF6FF752B408D8906EA05152B43CD89DC
:102EF00006EA05152B4383808483CD888587028469
:102F000070BD70B5002200230024058C4EF6FF76BC
:102F100035400584038C8488828B48F6FF752A40EF
:102F20004FF6FF452A400D8820E00000002C0140AC
:102F30000004004000080040000C00400010004069
:102F40000014004000340140004C0140005001409A
:102F50000054014000180040001C004000200040C8
:102F60000040014000440140004801404FF6FF7618
:102F700006EA05252A434DF6FF752B400D8906EA22
:102F800005352B434D8806EA05352B43FA4DA842FB
:102F900002D0FA4DA84208D14BF6FF752C408D891E
:102FA0004FF6FF7606EA85152C4384808283CD8810
:102FB000A0F84050038470BD828B4FF2FF331A405B
:102FC0008283828B4FF6FF7303EA01231A438283C5
:102FD0007047F0B50C461546002200210026078CEC
:102FE0004EF6FF7C07EA0C070784828B018C4FF6B4
:102FF000FF7707EA043640F6FF473A404FF6FF777F
:1030000007EA05273A434FF6FF7707EA03373A43C3
:10301000D94FB8420ED0D94FB8420BD0B0F1804F43
:1030200008D0D74FB84205D0D64FB84202D0D64FBD
:10303000B84206D14DF6FF77394046F48057394300
:1030400005E047F6FF57394044F4805739438283FF
:103050000184F0BD828B4FF6F3731A408283828B1A
:103060000A4382837047F0B50C46154600220021C2
:103070000026078C4FF6FF6C07EA0C070784828B4B
:10308000018C4FF6FF7707EA04264FF60C773A409B
:103090004FF6FF7707EA03172F433A43B64FB8427C
:1030A0000ED0B64FB8420BD0B0F1804F08D0B44F1D
:1030B000B84205D0B34FB84202D0B34FB84206D1A0
:1030C0004FF6FF57394046F48077394305E04FF219
:1030D000FF57394044F48077394382830184F0BD3F
:1030E000028B4FF2FF331A400283028B4FF6FF73BD
:1030F00003EA01231A4302837047F0B50C461546D4
:10310000002200210026078C4FF6EF7C07EA0C070F
:103110000784028B018C4FF6FF7707EA041640F60E
:10312000FF473A404FF6FF7707EA03373A434FF637
:10313000FF7707EA05273A438F4FB8420ED08F4FEB
:10314000B8420BD0B0F1804F08D08D4FB84205D0B7
:103150008C4FB84202D08C4FB84206D14FF6DF7781
:10316000394046F01007394305E04FF65F773940A4
:1031700044F01007394302830184F0BD028B4FF6FF
:10318000F3731A400283028B0A4302837047F0B53F
:103190000C46154600220021068C4FF6FE773E4075
:1031A0000684028B018C4FF60C7632407E1C06EAB8
:1031B00003162E433243704EB0420ED06F4EB042D3
:1031C0000BD0B0F1804F08D06D4EB04205D06D4E9F
:1031D000B04202D06C4EB04206D14FF6FD7631407F
:1031E00044F00106314305E04FF6F576314044F0F6
:1031F0000106314302830184F0BD70B505460C46DB
:103200005D4885420ED05D4885420BD0B5F1804FB8
:1032100008D05B48854205D05A48854202D05A48BA
:10322000854200D100E000BF208850B92389A288E0
:1032300061882846FFF7ABFFE1882846FFF79EFF2D
:1032400025E0208804280AD12389A288618828469D
:10325000FFF753FFE1882846FFF742FF17E0208879
:1032600008280AD12389A28861882846FFF7FBFE37
:10327000E1882846FFF7EEFE09E02389A2886188ED
:103280002846FFF7A6FEE1882846FFF795FE70BDA9
:103290002DE9F04105460C4600260127608808B953
:1032A000022600E00026A088012801D1022700E0C4
:1032B00001272088A0B92389A28861882846FFF7C2
:1032C00066FFE1882846FFF759FF23893A463146D1
:1032D0002846FFF712FFE1882846FFF701FF13E0B9
:1032E0002389A28861882846FFF707FFE1882846DE
:1032F000FFF7F6FE23893A4631462846FFF747FF97
:10330000E1882846FFF73AFFBDE8F0810A884B883C
:103310001A438B881A43CB881A430B891A434B896B
:103320001A438B891A43A0F8442070474FF6FF7167
:10333000818000210180C18041800172704700219D
:10334000018041808180C180018141818181C18171
:103350007047002101804180012181800021C180CE
:10336000018170470021018041808180C1800181FD
:103370004181818170470000002C014000340140F0
:103380000004004000080040000C004021B1028809
:1033900042F00102028004E002884FF6FE731A40F8
:1033A0000280704731B1B0F8442042F40042A0F8E6
:1033B000442005E0B0F84420C2F30E02A0F84420F7
:1033C00070471AB183890B43838102E083898B4361
:1033D000838170478182704741EA0203A0F8483038
:1033E00070471AB183890B43838102E083898B4341
:1033F0008381704701894FF6F8721140018170474F
:103400000A46002101894FF68F731940114301814B
:10341000704730B504460D4629462046FFF7F0FFB9
:10342000208940F00700208130BD2DE9F04104469D
:103430000D4616461F46602D06D13B4601223146F9
:103440002046FFF75AFE05E03B4601223146204662
:10345000FFF79DFE29462046FFF7D2FF208940F066
:1034600007002081BDE8F08130B50C4600210189BC
:10347000C9B24FF6FF7505EA0325154325432943D5
:10348000018130BD2DE9F04105460E4617469846AC
:10349000002443463A4631462846FFF7E5FF2C898B
:1034A0004FF6F870044044F007044FF68F70044064
:1034B00044F070042C81BDE8F081F0B504460D465F
:1034C00016461F463B46324629462046FFF7CCFFAC
:1034D000208940F480402081F0BD018582827047C0
:1034E0000A46002101884FF68F731940114301806D
:1034F0007047F0B50C4615461E46002100220023F9
:103500000189028B038C4FF6F877394021434FF63F
:10351000FC473A4040F201173A434FF6DD773B4013
:103520004FF6FF7707EA06172F433B4301810283DB
:103530000384F0BD0A460021018B4FF68F731940BA
:103540001143018370470A460021018B48F6FF733F
:1035500019404FF6FF7303EA0223194301837047B2
:103560000A460021818B4FF68F73194011438183E6
:1035700070470A460021818B48F6FF7319404FF6C9
:10358000FF7303EA022319438183704721B1028844
:1035900042F08002028004E002884FF67F731A40F6
:1035A0000280704721B1828842F00402828004E0E8
:1035B00082884FF6FB731A408280704721B182885F
:1035C00042F00802828004E082884FF6F7731A40C6
:1035D0008280704721B1828842F00102828004E03B
:1035E00082884FF6FE731A40828070470A46002197
:1035F000018B4FF6F77319401143018370470A4658
:103600000021018B4FF2FF7319404FF6FF7303EA5D
:1036100002231943018370470A460021818B4FF62C
:10362000F77319401143818370470A460021818B4B
:103630004FF2FF7319404FF6FF7303EA0223194359
:10364000818370470A460021018B4FF6FB731940B6
:103650001143018370470A460021018B4FF6FF3367
:1036600019404FF6FF7303EA0223194301837047A1
:103670000A460021818B4FF6FB7319401143818369
:1036800070470A460021818B4FF6FF3319404FF6F1
:10369000FF7303EA02231943818370470A4600211E
:1036A000018B4FF67F7319401143018370470A461F
:1036B0000021018BC1F30E014FF6FF7303EA0223D1
:1036C0001943018370470A460021818B4FF67F73AF
:1036D00019401143818370470A460021818BC1F351
:1036E0000E014FF6FF7303EA0223194381837047EB
:1036F0000A460021018C4FF6FD73194011430184E5
:1037000070470A460021018C4FF6F77319401143A8
:10371000018470470A460021018C4FF6DF7319407F
:103720004FF6FF7303EA02131943018470470A46F8
:103730000021018C4FF67F7319404FF6FF7303EAA7
:1037400002131943018470470A460021018C4FF689
:10375000FF5319404FF6FF7303EA02231943018414
:1037600070470A460021018C4FF2FF7319404FF653
:10377000FF7303EA02231943018470470A460021BC
:10378000018C4DF6FF7319404FF6FF7303EA0233C5
:1037900019430184704730B5002301248C40A3B243
:1037A000048C9C430484048C02FA01F5ADB22C43D2
:1037B000048430BD30B5002304248C40A3B2048CB3
:1037C0009C430484048C02FA01F5ADB22C430484BA
:1037D00030BD70B50346002000241846183001257E
:1037E0008D40ACB21D8CA5431D8409B1082909D1B7
:1037F00000EB6100056825F070050560056815435C
:1038000005600EE00D1FC5F34E052844056825F43C
:10381000E045056005684FF6FF7606EA0226354367
:10382000056070BD21B1028842F00202028004E00E
:1038300002884FF6FD731A400280704721B102885A
:1038400042F00402028004E002884FF6FB731A4043
:103850000280704721B1828842F08002828004E0B9
:1038600082884FF67F731A408280704702884FF635
:10387000F7731A40028002880A43028070478288E8
:103880004FF68F731A40828082880A438280704785
:1038900002894FF6F8731A40028102890A430281B5
:1038A000704702894FF67F731A40028102890A43EA
:1038B0000281704781847047818570478186704797
:1038C0000187704781877047A0F8401070470288D1
:1038D0004FF6FF431A40028002880A430280704775
:1038E0000146888E70470146088F70470146888FD1
:1038F00070470146B1F8400070470146888C704718
:103900000146088D704702460020138A0B400BB118
:10391000012000E000207047CA430282704730B5A2
:103920000246002000230024158A05EA0103958938
:1039300005EA010413B10CB1012000E0002030BD04
:10394000CA430282704770470FB4044910B503AAF6
:10395000029800F029F910BC5DF814FB1C0000204F
:103960002DE9F0410E460446002020622046E16821
:10397000884730B3252805D0D4E901219047206A33
:10398000401CF2E7E168204600278847050018D070
:10399000A5F14100192802D820354FF400673246BE
:1039A000294620462760FCF7FDFB40B1012804D0E2
:1039B000F61D26F007060836D8E7361DD6E7284656
:1039C000DAE7206ABDE8F0812DE9F04106460024DF
:1039D00010687529314615A510D0AFF30080002876
:1039E00002DA404212A507E031688A0701D511A525
:1039F00002E0490704D510A5012401E0AFF30080DF
:103A000000210A2306F1240707E0B0FBF3F203FBD1
:103A10001200303078541046491C0028F5D1234656
:103A20002A463046BDE8F04100F065B800000000CD
:103A30002D0000002B0000002000000010B5203AEF
:103A4000C0F00B80B1E81850203AA0E81850B1E857
:103A50001850A0E81850BFF4F5AF5FEA027C24BF0D
:103A6000B1E81850A0E8185044BF18C918C0BDE804
:103A700010405FEA827C24BF51F8043B40F8043BCD
:103A800008BF7047D20728BF31F8023B48BF11F882
:103A9000012B28BF20F8023B48BF00F8012B7047DC
:103AA0004FF0000200B5134694469646203922BFD7
:103AB000A0E80C50A0E80C50B1F12001BFF4F7AF22
:103AC000090728BFA0E80C5048BF0CC05DF804EB04
:103AD000890028BF40F8042B08BF704748BF20F872
:103AE000022B11F0804F18BF00F8012B7047704770
:103AF0007047704770472DE9F0470D46994692464A
:103B0000044600F124080168880604D5E06921F024
:103B10001001216000E00120A84201DD471B00E008
:103B20000027A1697A1902EB0900081AA061207820
:103B3000C00602D42046AFF30080002608E0D4E996
:103B400001211AF806009047206A401C761C20626A
:103B50004E45F4DB2078C0060AD52046AFF300803E
:103B600006E0D4E9012130209047206A401C206201
:103B7000381EA7F10107F4DC07E0D4E9012118F8A9
:103B800005009047206A401C2062281EA5F101050F
:103B9000F3DC2046AFF300802078000602D5022037
:103BA000BDE8F0870120FBE7074B70B50D467B446D
:103BB00000F011F80446284600F020F810B14FF04C
:103BC000FF3070BD204670BDE1DDFFFF01694A1C7A
:103BD00002610878704700B58FB0CDE9013100214E
:103BE000059105497944CDE9031011466846FFF770
:103BF000B7FE0FB000BD0000E5FFFFFF007B00F047
:103C000080007047754600F029F8AE460500694609
:103C1000534620F00700854618B020B5FDF7FCFF9D
:103C2000BDE820404FF000064FF000074FF00008BD
:103C30004FF0000B21F00701AC46ACE8C009ACE83E
:103C4000C009ACE8C009ACE8C0098D46704704461D
:103C5000AFF300802046FCF7B7FA00000048704739
:103C60005001002021F00042A2F16052B2F5801F05
:103C700001F0004328BFD2F17F6C0BD95FEA001C32
:103C800043EAC20242EB507018BF704728BF20F0D1
:103C900001007047B2F5801FBCBF184670474FEA5D
:103CA000410C1CF5001F02D2084600F024BF70B57D
:103CB00000F026FB00000089FFF7F6BF4FF0004040
:103CC000A0F580007047000010B591EA030F48BFCF
:103CD00083F0004300F1A683841A71EB030C05D234
:103CE000121943EB0C03001B61EB0C01DFF824E11C
:103CF0004FEA1154A4EB135C1EEA430F18BF9EEA6F
:103D0000445F73D023EA0E03DCF1200E21EA045154
:103D100043F4801332D322FA0CFE10EB0E0023FA88
:103D20000CFE41EB0E01CCF1200E03FA0EFE10EB5F
:103D30000E0051F10001B1F5801FCCF1200E32D2FE
:103D400001EB045112FA0EF2BDE8104058BF704763
:103D5000401C38BF5FEA420218BF7047002814BFFA
:103D600020F0010041F100014FEA410313F5001F6B
:103D700038BF7047A1F1C04100F010BB012A43EBEE
:103D80000302ACF1200CDCF11F0E32BF4FF0000E2D
:103D900023FA0CF310EB030041EB0451B4EB115F79
:103DA000D0D0A1EB045101F5801149085FEA300041
:103DB00001EB04510ED350F1000038BF12FA0EFE91
:103DC00008D1BDE81040C9E7401C38BF5FEA420295
:103DD000CAD1C3E7BDE810404FEA410313F5001F05
:103DE00038BF7047A1F1C04100F0D8BA9EEA445FE5
:103DF00008D011EA5E0FBDE8104004BF01F0004199
:103E000000207047BDE8104070B500F079FA00BF9F
:103E100064FBBE3E0000E0FF491058BFC1F14041C5
:103E20005B1058BFC3F140438B42EFF300807047F3
:103E30002DE9C04130B4DFF8A0C23CEA111418BF2C
:103E40003CEA131400F0EC8081EA03051CEA11142B
:103E500044EAD57418BF1CEA131500F0C780A4EB20
:103E600005044FF0004545EAC12145EAC32341EA74
:103E7000505143EA525304F17F74994204F50034DF
:103E80004FEAC0204FEAC22208BF904200F09C8057
:103E90004FEA13650FF24016765D4FEA134506FBB5
:103EA00005F7C7F1807706FB07F74FEAD737A7FB7F
:103EB00003687642C8F58038A7FB06CE38BFA8F164
:103EC000010807FB08E64FF0000EA6FB028CE6FB9C
:103ED00003CEDCF1000CCEF1004E38BFAEF1010E86
:103EE000A6FB0C584FF000074FF00005E6FB0E87CD
:103EF000A1FB08C6A0FB07CE16EB0E0645F1000598
:103F0000E1FB076515F1E04E7EBFA4F580345FEA62
:103F100046066D4116F1800745F100054FEA172767
:103F20004FEA066647EA0567A6F1DE46B6F1805F0E
:103F30004FEA15251FD9384624F0010C05EBC47152
:103F4000BCF1FE6F01EB0C1102D8F0BCBDE80081A2
:103F500024425CBF01F5801E9EEAC47F02D4F0BCFF
:103F6000BDE80081244238D4F0BCA1F1C041BDE8D5
:103F7000004100F013BA4FEAD22242EA43524FEA1C
:103F8000D323A7FB02864FEAD02040EA415007FB2B
:103F900003661EEA0E0F4FEAD12105FB026658BFE9
:103FA000A6EB0056B6EB00564FEA520E4EEAC37E21
:103FB00018EB0E0E56EB530EBDD518EB02085E4102
:103FC0007F1C55F10005B6E74FF480154FF0000750
:103FD0004FF000064FF00008ADE7F0BC4FF00000D6
:103FE00001F1C04101F00041BDE8008111EA0C1F60
:103FF0000CEA131500D00CE013EA0C1F00F025802A
:104000004FF00000F0BC81EA030101F00041BDE87F
:104010000081F0BC81EA0301BDE8004100F0BEB9B7
:10402000F0BCBDE8004170B500F06AF9097EFC3EC5
:1040300000F007B881EA03014FF0000001F00041F1
:10404000704781EA030100F0A9B9F0BC4FF000000D
:104050002249BDE800417047FFFDFBF9F7F5F4F296
:10406000F0EEEDEBE9E8E6E4E3E1E0DEDDDBDAD813
:10407000D7D5D4D3D1D0CFCDCCCBCAC8C7C6C5C471
:10408000C2C1C0BFBEBDBCBBBAB9B8B7B6B5B4B388
:10409000B2B1B0AFAEADACABAAA9A8A8A7A6A5A473
:1040A000A3A3A2A1A09F9F9E9D9C9C9B9A99999837
:1040B0009797969595949393929191908F8F8E8EDA
:1040C0008D8C8C8B8B8A8989888887878685858467
:1040D00084838382828181800000FF070000F87F53
:1040E00010F0004248BF4042B0FA80F310FA03F1EA
:1040F0000AD0C3F11D0303F580634FEA415002EB80
:10410000035202EBD12170474FF000007047B0FA24
:1041100080F310FA03F10AD0C3F11D0303F58063A5
:104120004FEA41504FEA035202EBD12170474FF062
:104130000000704751EA030C17D41CF5801F58BFCC
:10414000BCF5801F00F10680994218BF704708BF78
:104150009042704707D711F5801F58BF13F5801F95
:1041600019D499427047894270471CF5801F08D5C1
:10417000BCF5801FF7D58B4218BF704708BF82423D
:1041800070474FF4001C1CEB410F38BF1CEB430F72
:1041900001D28B42704770B500F0B2F8922449000A
:1041A0004FF000514FF08053FFF736BEDFF848C1A3
:1041B00070B51CEA111E1EBF1CEA13159EEA0C0FF7
:1041C00095EA0C0F00F06F8081EA030423EA4C1398
:1041D0004EEAD47E21EA4C1141F4801143F480135D
:1041E000AE44A1FB024CA0FB0365AEF17F7E361905
:1041F00055EB0C05A1FB034C4CF10003A0FB021C8A
:1042000016EB0C06654153F10003094218BF46F056
:10421000010613F4007F0BD14FEA03314FEA05305A
:10422000340341EA155140EA16506FF003020AE0E8
:104230004FEAC3214FEAC520F40241EA555140EA52
:1042400056506FF0020202EB2E4201EB025585EA56
:10425000CE710AD05FEA440C18BF24F0004450F13C
:10426000000041F1000120EAD47040F2FE7C62457A
:1042700000D270BDA84214BF4FF080444FF04044BC
:10428000002E08BF0024BEF1806FA8BFA1F1C0417D
:10429000BDE8704080F282804FF0000001F1C04123
:1042A00001F0004170479EEA0C0F0CEA131518BF8D
:1042B00095EA0C0F06D04FF0000081EA030E0EF0D5
:1042C000004170BD00F01CF88900013E00F007B805
:1042D00000F009B84FEA430C5FEA5C5C08D081EA61
:1042E000030100F05BB84FEA410C5FEA5C5CF6D179
:1042F0004FF00000014970470000FF070000F87F01
:104300000EF1020E2EF0030E5EF8046B364205D459
:10431000012A43EB030515F5001F12D8012841EBD4
:10432000010C1CF5001F0CD80ED14FEAD17C15F5FD
:10433000001F0CEB4C0C0CF1020C08BF4CEBD37CB7
:1043400004E04FF0080C01E04FEAD37C0CEB4C0585
:1043500026FA05F606F00706B6F1040C06D20EEBB7
:10436000860CBDE870404CF0010C6047DFE80CF0B3
:10437000090B02024FF000414FF00000A1F50021AF
:1043800070BD19461046012851EB010418BFD4F541
:10439000001484BF002001F0004170BD0808A0F5A2
:1043A00000114FEA3101704753EA010C17D41CF594
:1043B000801F58BFBCF5801F00F106808B4218BFDC
:1043C000704708BF8242704707D713F5801F58BF58
:1043D00011F5801F19D48B4270479B4270471CF522
:1043E000801F08D5BCF5801FF7D5994218BF7047CC
:1043F00008BF904270474FF4001C1CEB430F38BFBE
:104400001CEB410F01D2994270470FB40CBC03BCA6
:10441000FFF7C1BE10B591EA030F48BF83F0004318
:104420003FF55AAC841A71EB030C07D212198CF0C9
:10443000004C43EB0C03001B61EB0C01DFF8A4E123
:104440004FEA1154A4EB135C1EEA430F18BF9EEA17
:10445000445F00F0B08023EA6E03524221EA045127
:10446000C3EB6E0338BF5B1EDCF1200E25D322FAAE
:104470000CFE10EB0E0043FA0CFE41EB0E01CCF1EA
:10448000200E03FA0EFE10EB0E0051F10001CCF1EC
:10449000200E29D412FA0EF201EB0451BDE81040AF
:1044A00058BF7047401C1CBFB2F1004F7047002836
:1044B0000CBF491C20F00100704712EB020E43EBC9
:1044C000030218BF4FF0010E4EEA4202ACF1200C7D
:1044D000DCF11E0E54D943FA0CFE10EB0E0051F124
:1044E000FF31CCF11E0ED5D50EF1010E12FA0EFEE3
:1044F000404141EB010101EB445C5FEA5C5C10D997
:1045000010EBDE7001EB045138BFBEF1004FBDE887
:10451000104018BF704700280CBF491C20F0010054
:10452000704730D24FEAD42C11F5001124F4006406
:104530001BD0B1FA81F20B3AA41AA41ED2F12003C7
:10454000914030FA03F31943904001EBCC71002CF9
:1045500001EB0451BDE81040A8BF704701F1C04114
:104560004FF0000001F000417047B0FA80F310FAFC
:1045700003F100D110BDE41A173C4805C90AE4E76D
:1045800001EB045110BD491001EB0451BDE810408E
:104590004FEA300002E04FF0000170474A0008BFC8
:1045A0000042F8D0B2F5001F28BF704701F000416B
:1045B0004FF0000070479EEA445F07D011EA5E0F9B
:1045C000BDE8104004BF002100207047BDE8104046
:1045D00070B5FFF795FE00BF40DFF63E83F0004167
:1045E000104670470000E0FF43004FEAD30C4FEA4B
:1045F0003C0C43401FBF40070CF1605113F0FE4FCD
:1046000070471CF0006F03D100200CF00041704790
:104610000CF0004343EA507010B540EACC0000F0C3
:1046200024FA00BF000000924FEA0001FFF7B6BE77
:104630004FF000414FF00000A1F50021704700004D
:1046400090EA010F48BF81F0004100F19282421AC6
:104650003CBF801A89184FEAD0524FF07F4C1CEAB9
:10466000410FA2EBD15318BF9CEA026F00F03B80D0
:104670004FF0004C4CEA00204CEA012121FA03FCE7
:1046800010EB0C0C1ED202F1FF325FEA1C2040EB53
:10469000C25038BF70471CF07F0F4FEA400C18BF64
:1046A000BCF17F4F38BF7047C3F12003994008BF6A
:1046B00020F00100BCF17F4F38BF7047A0F1C0402F
:1046C00000F019BA4FEA3C00000A40EBC25028BF84
:1046D0001CF0FF0F4FEA400CE6D018BFBCF17F4F33
:1046E00038BF7047EAE79CEA026F05D010EA5C0F1A
:1046F00008BF00F00040704710B500F0B6F900BFE9
:1047000064FBBE3E401058BFC0F14040491058BF46
:10471000C1F140418142EFF3008070474FF47F0CBC
:104720001CEAD0121EBF1CEAD11392EA0C0F93EAC6
:104730000C0F00F0858090EA010F48BF42F48072B0
:1047400040F4000C41F400002CF07F4120F07F4049
:1047500000B58142A2EB03020FF2081CACEB504EF5
:10476000C0F100009EF800E04FEA4E0E00FB0EFC88
:1047700038BF49004FEA2C1C02F5FA020CFB0EF37D
:104780004FEACE1E4FEA112C4FEAC1210EEB635EB9
:1047900042EB22420EFB0CFC4FEA1C5300FB0311C0
:1047A0004FEA112C4FEA01310EFB0CFC4FEADC4CB6
:1047B00000FB0C11C14228BF09184CEB03335DF814
:1047C00004EB10EB410143EBC250B2F57C0F38BF54
:1047D000704729D512F0F00F1CBF00F1C04000F067
:1047E00000407047008182838485868788898B8C0E
:1047F0008D8E8F919293959697999A9C9D9FA0A24A
:10480000A3A5A7A8AAACAEB0B2B3B5B7B9BCBEC099
:10481000C2C5C7C9CCCED1D4D7D9DCDFE2E6E9EC3A
:10482000F0F3F7FAFE0000004FEA400C0CF1807C38
:10483000BCF17E4F28BF7047B0F1C04000F05BB9BB
:1048400090EA010F0CEAD11348BF42F4807262452E
:1048500038BF634507D213F47F0F16D080EA0100FA
:1048600000F00040704710B500F0FFF8097EFC3EF4
:1048700000F005B880EA010000F00040704780EACF
:10488000010000F0004000F036B912F47F0F04BFC1
:104890000248704780EA010000F02DB90000C07F97
:1048A00041000B0ED3F19E0208D950F400034FEAE9
:1048B000032323FA02F048BF4042704710B500F0CE
:1048C000D4F800BF49922480002070476FF0004266
:1048D00082EA200070470000B0FA80F310FA03F279
:1048E000C3F19D030AD0D90501EB1220530638BF4E
:1048F000704700F1010008BF20F001007047000080
:1049000050EA010C00F113801CF5000F58BFBCF5F4
:10491000000F01D48842704707D710F5000F58BF29
:1049200011F5000F15D488427047894270471CF575
:10493000000F04D5BCF5000FF7D5814270474FF04A
:10494000807C1CEB400F38BF1CEB410F01D2814231
:10495000704710B500F089F8922449004FF00050DC
:104960004FF08051FFF7CEBE4FF47F0C1CEAD012FF
:104970001EBF1CEAD11392EA0C0F93EA0C0F00F051
:10498000478090EA010F48BF42F480724FF0004C1C
:104990004CEA00204CEA012102EB0302A0FB0113C8
:1049A000A2F50002002918BF43F001035B0028BFF5
:1049B0004FEA330342EB22425FEA132C4CEBC25026
:1049C0002EBFBCEB436FB2F57C0F70474FEA036C10
:1049D000BCF1004F08BF20F00100B2F57C0F38BFDA
:1049E00070470BD582F0FF0212F5803FC8BF7047B9
:1049F00000F1C040D8BF00F00040704700F5000C47
:104A00005FEA4C0C48BF7047B0F1C04000F073B88B
:104A100090EA010F0CEAD11348BF42F4807262455C
:104A200038BF634504D280EA010000F000407047BF
:104A300010B500F01AF800BF8900013E00F007B879
:104A400000F009B85FEA410C5FEA1C6C08D080EA0C
:104A5000010000F050B85FEA400C5FEA1C6CF6D130
:104A60004FF00040A0F5800070470EF1020E2EF0CE
:104A7000030E5EF8044B244204D44FEA4102B2F123
:104A80007F4F11D84FEA4003B3F17F4F0CD80ED1BE
:104A90004FEAD07CB2F17F4F0CEB4C0C0CF1020CC6
:104AA00008BF4CEBD17C04E04FF0080C01E04FEA6A
:104AB000D17C0CEB4C0324FA03F404F00704B4F1AA
:104AC000040C06D20EEB840CBDE810404CF0010C37
:104AD0006047DFE80CF0070802024FF00040A0F545
:104AE000800010BD0846420018BFD2F1807288BF16
:104AF00000F0004010BDFF2141EAD050C0057047D2
:104B000051EA000C00F113801CF5000F58BFBCF5F2
:104B1000000F01D48142704707D711F5000F58BF2D
:104B200010F5000F15D481427047894270471CF57B
:104B3000000F04D5BCF5000FF7D5884270474FF041
:104B4000807C1CEB410F38BF1CEB400F01D2884228
:104B5000704780EA010081EA000180EA0100FFF766
:104B6000F8BE000090EA010F48BF81F000413FF518
:104B70006EAD421A04D882F00042A0EB020011444C
:104B80004FEAD0524FF07F4C1CEA410FA2EBD153B9
:104B900018BF9CEA026F4AD04FF0004C4CEA00204C
:104BA0004CEA012121FA03FCB0EB0C0C0FD412F0FB
:104BB000FE0F36D05FEA4C001DD5001240EBC2500C
:104BC00038BF70471CF03F0F18BF70470BE0A2F1D1
:104BD00001025FEA1C2040EBC25038BF70471CF056
:104BE0007F0F18BF7047C3F12003994014BF401EC8
:104BF00020F00100704780084FEA122308BF704779
:104C0000B0FA80FCA2EB0C02CCF1280C60FA0CF09C
:104C100093EA122F04BF00EBC25070474FEAC370F3
:104C20007047130A5FEADC1008BF7047F6E79CEA9A
:104C3000026F04D010EA5C0F08BF0020704710B567
:104C4000FFF713FF40DFF63E81F0004070470000A1
:104C500066661E41D7A3284148E13241B81E3D4156
:104C6000295C4741A470514114AE5B41CDCC6441F5
:104C70001F856F41A47079418FC28141E17A8641DD
:104C800033338B41D7A39041AE4795419A999941CF
:104C9000102710271027E02EE02EE02EBC34BC3465
:104CA000BC34B036B036B036D039D039D039D0393E
:104CB000E8FD0000E8FD000060EA000060EA000096
:104CC000E8FD000080BB0000C8AF0000409C000071
:104CD000307500000000000000000000B8880000EF
:104CE000409C0000D8D60000E8FD000060EA00000B
:104CF00060EA000060EA000060EA000060EA00008C
:104D0000C8AF000080BB0000E8FD000060EA0000C2
:104D100060EA0000E8FD0000E8FD0000E8FD00009A
:104D200060EA000060EA0000E8FD0000D8D600005C
:104D3000409C0000B8880000007D00003075000035
:104D40003443101001344310100100006C4D000872
:104D500000000020380000006C010008A44D00088D
:104D600038000020780700008801000800A24A04EB
:104D7000000000000000000001020304060708090B
:104D80000000000000000000000000000000000023
:104D900000000000010203040102030406070809E1
:044DA00002040608FB
:0400000508000131BD
:00000001FF
