:020000040800F2
:100000008002002005010008090100080B0100081A
:100010000D0100080F010008110100080000000098
:1000200000000000000000000000000013010008B4
:100030001501000800000000170100081901000860
:100040001B0100081B0100081B0100081B01000820
:100050001B0100081B0100081B0100081B01000810
:100060001B0100081B0100081B0100081B01000800
:100070001B0100081B0100081B0100081B010008F0
:100080001B0100081B0100081B0100081B010008E0
:100090001B0100081B0100081B0100081B010008D0
:1000A0001B0100081B0100081B0100081B010008C0
:1000B0001B0100081B010008210C00081B0100089F
:1000C0001B0100081B0100081B0100081B010008A0
:1000D0001B01000855050008CB0500081B0100089E
:1000E0001B0100081B0100081B010008DFF80CD0F1
:1000F00003F09AFE0048004721010008800200201A
:1001000030BF000005480047FEE7FEE7FEE7FEE7D8
:10011000FEE7FEE7FEE7FEE7FEE7FEE7ED0000088C
:1001200010B5092000F0AEF9482000F045F84FF472
:100130001651482000F06BFA4FF4E131242000F012
:10014000D7FA00F067FB00F0A5FB01F03FFA00F0E2
:100150002BFC00211348008880B200F0A3FC00F0C3
:10016000FAFC11A25021282003F098F919E000F0C0
:1001700010FD00F0C2FB044684B1012C04D0022C17
:1001800005D0032C09D105E000F0D4FD05E000F016
:10019000EBFD02E000F002FE00BF02E00A2000F0EA
:1001A00022F8E4E7100000204E6F775F616E676C05
:1001B00065206973203A00004FF0E021096921F0C1
:1001C00004014FF0E02211610146C21700EB5272A8
:1001D000D2101F4B1A70194609784FF47A725143A6
:1001E0009A1C118070471A4A921C128842434FF0A1
:1001F000E0235A6100229A6101221A6100BF4FF088
:10020000E022116911F0010F02D011F4803FF6D005
:1002100000224FF0E0231A619A6170470C4A12786D
:1002200042434FF0E0235A6100229A6101221A6191
:1002300000BF4FF0E022116911F0010F02D011F45C
:10024000803FF6D000224FF0E0231A619A61704798
:1002500000000020AC4A0A400243AC4B1A607047D1
:10026000072323EA00021202A84B1B1D19684FF650
:10027000FF031940A64B194311434FF0E023C3F885
:100280000C1D70472DE9F04704460D4616461F46E3
:100290003046F11706EB91714FEAA109F11706EB11
:1002A00091718910A6EB810101F0FF0A042101EB95
:1002B000CA0000F0FF0A3846FFF7D2FFC7F104007A
:1002C00004FA00F80F203841284040EA080808F0F6
:1002D0000F08202E09DA8F4800680121B140084339
:1002E0004FF0E021C1F800010BE08A48001D0168D1
:1002F000A6F120020120904001434FF0E020C0F819
:100300000411854850F8290008FA0AF1014382488F
:1003100040F82910BDE8F08770B50D46CE1701EB07
:100320009676B310CE1701EB9676B610A1EB860643
:10033000B606340E794DAD6945F00105774EB561CD
:100340004FEAB63555F823600F25A540AE43744DEE
:1003500045F8236055F8235000FA04F63543704EF3
:1003600046F823506F4D2E6801258D402E436C4D6D
:10037000083DC5F8006412F0010F09D0694D0C3535
:100380002E6801258D402E43654D083DC5F80C644F
:1003900012F0020F09D0634D08352E6801258D40FB
:1003A0002E435F4D083DC5F8086470BD00B50020C0
:1003B0005A490861C8601420486100208861C861FA
:1003C0000846006840F00100086008464068564949
:1003D00008405249486008460068544908404F495F
:1003E00008600846006820F48020086008464068DD
:1003F00020F4FE0048600020886000214FF000607B
:10040000FFF728FF00BD10B540480830006840F0F5
:1004100004004FF0E021C1F8100D4048C06940F0E1
:1004200080503E49C8614248406840F4807040496D
:1004300048600846006840F004000860084600680C
:1004400040F002000860FFF75BFE10BD3048001D61
:100450002E49091D086070470146084649062F4A83
:10046000926942F001022D4B9A612D4A083A526876
:1004700022F0E0622A4B083B5A601A4652680A434F
:100480005A60704730B504460025FFF78FFF2348B8
:10049000006840F480302149086000BF1F480068B0
:1004A000400CFBD04FF480601C494860A01EC4B2D1
:1004B0000846406840EA844048600846406840F486
:1004C000803048601B48006840F0320019490860DD
:1004D0001248006840F080701049086000BF0F4863
:1004E0000068400EFBD00D48406840F002000B4908
:1004F000486005E009484068C0F3870505F003053A
:10050000022DF7D130BD000080FFFF1F08ED00E095
:100510000000FA0500E100E000E400E00010024005
:1005200008000140000401400000FFF8FFFFF6FE54
:100530000070004000200240014600BF704700BF2D
:10054000A94A128812F0400FFAD0C2B2A64B1B1D66
:100550001A807047A449098811F0200F34D0A249AD
:10056000091D0988C8B2A149097811F0800F2BD163
:100570009E49097811F0400F0CD00A2803D00021C1
:100580009A4A117020E09949097841F08001974A10
:10059000117019E00D2806D19449097841F0400105
:1005A000924A117010E09149097801F03F01904A98
:1005B00050548E490978491C8C4A117011460978AB
:1005C0003F2901DD0021117070478A480088E8B199
:1005D00000BF8848001D00888749844A12788854E3
:1005E0008248007820B908460078552800D0704726
:1005F0007E480078401C7D490870084600780B282A
:1006000004D10020087001207C490870EFE72DE933
:10061000F05F04460D46280103F0EAF98146784967
:1006200004FB01F003F0E4F98246494602F0EBFFD7
:100630000646304603F0F3F987B2384603F0D8F99E
:100640008346314602F0A3FF82464FF0834102F019
:10065000A7FF814603F0E3F980463F0107EB08005E
:1006600087B26848806940F004006649886108469E
:10067000806940F4804088616348006820F47F60AE
:100680006249C1F804080846D0F8040840F40B6039
:10069000C1F804085B48C06840F480405949C8600C
:1006A0000846C06820F48040C8605948A0F808781F
:1006B0004D480C30008842F20C0108435449A1F81F
:1006C0000C080846B0F80C0840F48070A1F80C083B
:1006D0000846B0F80C0840F0200043490C3108806F
:1006E0000223252203210846FFF7CCFDBDE8F09F39
:1006F0002DE9F05F04460D46280103F079F98146A3
:100700003F4904FB01F003F073F98246494602F0C9
:100710007AFF0646304603F082F987B2384603F086
:1007200067F98346314602F032FF82464FF083413B
:1007300002F036FF814603F072F980463F0107EB75
:10074000080087B22F48806940F004002D49886175
:100750000846C06940F40030C8612B48001F00689B
:1007600020F47F402949C1F800080846D0F8000865
:1007700040F40B40C1F800082248006940F4003002
:10078000204908610846006920F4003008614FF0F4
:100790004020A0F8087417480C30008842F20C0181
:1007A00008434FF04021A1F80C040846B0F80C04AF
:1007B00040F48070A1F80C040846B0F80C0440F036
:1007C0002000A1F80C040846B0F80C0440F0040026
:1007D00008490C3108800223262200210320FFF75C
:1007E00051FDBDE8F09F00000038014004000020EA
:1007F0003B000020004400403000002005000020A5
:1008000040420F0000100240040801400000014077
:10081000003001401B48806940F00400194988619C
:100820000846806940F0200088611748006820F081
:100830000F001649C1F804080846D0F8040840F033
:100840000300C1F804080846D0F80C0840F4807092
:10085000C1F80C080E48D0F8000420F470600C4970
:10086000C1F800040846D0F8000440F44070C1F814
:1008700000040846D0F80C0440F00400C1F80C0451
:1008800070470000001002400408014000000140D1
:10089000001001403D48806940F004003B498861F8
:1008A0003B48006820F00F003A49C1F800080846AC
:1008B000D0F8000840F00800C1F800083448001DD6
:1008C0000068354908403349C1F804083048001D24
:1008D0000068324908432F49C1F804080846D0F897
:1008E0000C0840F40050C1F80C080846D0F80C0879
:1008F00040F40040C1F80C08704710B50220FFF723
:10090000ABFD2748007800282BD02648006840B16E
:1009100024480830006820B1224834380068012893
:100920001FD10A20FFF75FFC00201D4908701D48F9
:10093000006820B90120FFF78FFD012010BD194884
:100940000830006820B90120FFF786FD0220F5E796
:10095000144834380068012813D1FFF77DFD0320C7
:10096000ECE71048006801280BD10E4808300068F9
:10097000012806D10B483438006810B90120084915
:1009800008700120FFF768FD0020D7E70010024043
:100990000008014000000140FFFF000F00008880B8
:1009A0000C000020340121423948806940F00400E5
:1009B000374988613748006820F47F003649C1F81C
:1009C00000080846D0F8000840F44C10C1F80008B0
:1009D0000846D0F80C0840F4C060C1F80C0808467E
:1009E000D0F8040820F47040C1F804080846D0F894
:1009F000040840F44050C1F80408704710B50020C6
:100A00002649086001202649C1F8AC014FF49670D0
:100A1000FFF704FC002021491C3108604FF4967058
:100A2000FFF7FCFB10BD10B501201C4908601C49F4
:100A3000C1F8AC014FF49670FFF7F0FB00201749A6
:100A40001C3108604FF49670FFF7E8FB10BD70B5DD
:100A500004460E46012E0CD1002502E0FFF7CEFF22
:100A60006D1C04EBC40000EB0410B5EB801FF5DB3C
:100A70000CE05EB9002502E0FFF7D5FF6D1C04EB2A
:100A8000C40000EB0410B5EB801FF5DB70BD000067
:100A90000010024000080140000001409001214286
:100AA00000002142974AD26942F00202954BDA6176
:100AB0001A46926942F004029A61934A10809A049D
:100AC000A2F82814914AD2F8002822F07F428F4BD6
:100AD000C3F800281A46D2F8002842F08842C3F82A
:100AE00000289A03B2F8002422F440729B03A3F872
:100AF00000241A46B2F8002422F06002A3F8002471
:100B00001A46B2F8182442F00102A3F818241A4633
:100B1000B2F8182442F48072A3F818241A46B2F8E6
:100B2000202422F00202A3F820241A46B2F820243E
:100B300022F02002A3F820241A46B2F8182442F02A
:100B40003002A3F818241A46B2F8082442F0010231
:100B5000A3F8082470476C482C38008840F0010046
:100B60004FF08041A1F800047047674808380088BA
:100B700040F2FE71884204DA63480838008800B207
:100B8000704761480838008861490988401A00B2F6
:100B9000F6E730B587B0FFF7E8FF054602F02DFF16
:100BA000CDE904015BA00CC8049802F0A5FECDE9D4
:100BB00002015AA00CC8029802F02AFECDE90001F9
:100BC00002F041FF0446204602F017FFCDE9040180
:100BD00021F00041CDE9020102F05EFF054610233D
:100BE0000093042302466E213C2002F0D5FBFFF760
:100BF000BCFF054602F001FFCDE9040145A00CC889
:100C0000049802F079FECDE9020144A00CC80298D4
:100C100002F0FEFDCDE9000102F08EFF07B030BD0D
:100C200030B587B000253F48008810F0010F3BD059
:100C30003D48006808B9012000E000203A490860FA
:100C40003A4800683A490968451A384800683849FE
:100C50000860012D0ADD002405E0FFF7CFFE022029
:100C6000FFF7C1FA641CAC42F7DB1DE0B5F1FF3FB2
:100C70001ADA002405E0FFF7D6FE0220FFF7B3FAE8
:100C8000641C284602F0B9FECDE9040121F00041C0
:100C9000CDE90201204602F0B0FECDE90001DDE918
:100CA000022302F023FFE6D31E48008820F0010053
:100CB0004FF08041A1F8100807B030BD70B5044670
:100CC0000D461048C06940F004000E49C86115483F
:100CD0001C3004808804A0F82858B0F80C0840F0B4
:100CE00001008904A1F80C080846B0F8000840F09B
:100CF0000100A1F8000802231E2203210120FFF7B2
:100D0000C1FA70BD001002402C04004000000140F8
:100D100010000020000000000000A04000000000C3
:100D20000080764010080040888122421C0000208C
:100D30001800002010B5002412E00120AD49086021
:100D4000AD49C1F8AC0140F25220FFF767FA00202C
:100D5000A8491C31086040F25220FFF75FFA641C7A
:100D6000B4F57A5FE9DB10BD7FB5FFF712FF0646E9
:100D700002F0AAFECDE90201A0A00CC8029802F080
:100D8000BBFDCDE9000102F05EFE0546002402E055
:100D9000FFF749FE641CAC42FADB7FBD2DE9F0434E
:100DA000A1B0FFF7F6FE974908600021954800685A
:100DB00002F0EAFE7ED29348006802F085FECDE99B
:100DC0001E0191A00CC81E9802F022FDCDE91C0165
:100DD0008FA00CC81C9802F08FFDCDE91A0104F019
:100DE00053F9CDE918018CA00CC8189802F010FD39
:100DF000CDE9160188A00CC8169802F0F1FCCDE9E7
:100E000014018048006802F05FFECDE912017EA067
:100E10000CC8129802F0FCFCCDE910017CA00CC8B3
:100E2000109802F069FDCDE90E0104F07BF9CDE9DF
:100E30000C0179A00CC80C9802F0EAFCCDE90A017B
:100E400077A00CC80A9802F0CBFCCDE90801DDE9D7
:100E5000142302F051FDCDE9060104F001F8CDE9BB
:100E600004016BA00CC8049802F0D2FCCDE9020189
:100E700065A00CC8029802F03FFDCDE9000102F028
:100E80005BFE07465F480168674802F072FB8146D7
:100E9000394602F075FB064602F016FECDE91E014A
:100EA00056A00CC81E9802F027FDCDE91C0102F0E7
:100EB000CAFD00E008E00446002502E0FFF79EFDC1
:100EC0006D1CA542FADB91E000214E48006802F05B
:100ED00051FEF8D24B48006802F0F6FDCDE91E0144
:100EE00021F00041CDE91C0102F026FE804640467B
:100EF00002F0EAFDCDE91E0143A00CC81E9802F0E5
:100F000087FCCDE91C0142A00CC81C9802F0F4FC3F
:100F1000CDE91A0104F006F9CDE918013EA00CC88C
:100F2000189802F075FCCDE916013DA00CC8169882
:100F300002F026FCCDE91401404602F0C5FDCDE9E2
:100F4000120131A00CC8129802F062FCCDE9100128
:100F50002FA00CC8109802F0CFFCCDE90E0104F0D0
:100F600093F8CDE90C012CA00CC80C9802F050FCB1
:100F7000CDE90A0128A00CC80A9802F031FCCDE99D
:100F80000801DDE9142302F0B7FCCDE9060103F006
:100F900067FFCDE904011EA00CC8049802F038FCDC
:100FA000CDE9020118A00CC8029802F0A5FCCDE919
:100FB000000102F0C1FD07463946404602F0E0FA62
:100FC000064602F081FDCDE91E010CA00CC81E985A
:100FD00002F092FCCDE91C0102F035FD044600252B
:100FE00002E0FFF720FD6D1CA542FADB21B0BDE851
:100FF000F08300009001214200002142CDCCCCCCF6
:10100000CCCCCC3F20000020A7E8482EFF2109408F
:1010100000000000008066400000000000C0594051
:101020000000000000C062400000B4424FF4807134
:10103000FF4A516149005161FE49086080215161B8
:10104000116189001161704710B54FF08830F9497E
:101050000C390860F849C1F8040C0020F549086013
:101060008815F34908614000486140204861F34811
:101070000088A0F50941893902D10220FFF7CEF896
:101080004020EB490861EB48001F006884B2481516
:1010900008614FF03330E849C1F8000CE5490839E0
:1010A00008604FF6FF70E449C1F80C0C204610BDF3
:1010B00010B504460B462046FFF7B8FF4FF480708A
:1010C000DB49086140004861DA48036080204861DC
:1010D00008618000086110BD10B504462046FFF786
:1010E000A5FFFFF7B1FF10BD00B5D4480088A0F5FB
:1010F0001341413903D12C20FFF798FF02E0222051
:10110000FFF794FF00BD4FF48071C94A1161490097
:101110005161C849086080215161116189001161E4
:10112000704730B5014601F01F04C1F34513CA0AE8
:10113000E50205EB43151544A8B230BD2DE9F04199
:1011400004460D46F02C02DAB5F5A07F02DB002044
:10115000BDE8F0812946204602F0C6FEB748008867
:10116000A0F51341413903D12E20FFF75FFF02E0C4
:101170002220FFF75BFF4FF08830AE490C39086042
:10118000AD49C1F8040C4FF6FF70AA4908608815F4
:10119000A749086140004861402048610120FFF7ED
:1011A0003DF84020A249086148610120FFF736F868
:1011B00040209F4908619F48001F006886B29F48F1
:1011C0000088A0F5134141390AD14020984948616F
:1011D00008619848001F00681FFA80F8F7B23F02C4
:1011E0004FF40070924908614FF0333091490C3947
:1011F00008609149C1F8040C4FF6FF70C1F80C0C5F
:101200008E480088A0F51341253917D08B480088F7
:10121000A0F58A41353911D088480088A0F58A4167
:1012200031390BD085480088A0F50941893905D0AE
:1012300082480088A0F53541053901D1304687E75D
:101240007E480088A0F51341413907D1F012C00251
:10125000B91240EA411040EAE82079E73046FFF74A
:1012600060FF75E700B575480088A0F51341413966
:1012700003D12920FFF7DAFE04E040F273110720C2
:10128000FFF716FF00BD00B56C480088A0F51341BC
:10129000413903D12820FFF7C9FE03E000210720D0
:1012A000FFF706FF00BD70B5044600250026634821
:1012B0000088A0F5134141397ED1082C1CD2DFE80B
:1012C00004F00406090C0F12151800BF14E045F0D5
:1012D000800511E045F040050EE045F0C0050BE04B
:1012E00045F0200508E045F0600505E045F0A00563
:1012F00002E045F0E00500BF00BF362645F00805D6
:1013000029463046FFF7D4FE15F0200F76D02A206C
:10131000FFF78CFE4FF4807045490861400048613A
:1013200000204449086080204149486108618000EC
:101330000861401008614000486100203E49C1F842
:101340000C0C80203A494861086180000861401017
:101350000861400048610120364908608020344916
:1013600048610861800008614010086140004861E0
:101370003F203049086080202D4948610861800085
:1013800008612B20FFF752FE4FF480702849086156
:1013900040004861002027490860802024494861B6
:1013A0000861800008614010086140004861002029
:1013B00020490860802000E09EE01D4948610861E6
:1013C0008000086140100861400048610020194910
:1013D000086080201649486108618000086140105B
:1013E000086140004861EF201249086080201049E0
:1013F0004861086180000861B0E0FFE72A20FFF73C
:1014000015FE4FF480700A490861400048610020D1
:101410000849086080200649486108618000086129
:1014200040100861400048610020034908E00000C6
:10143000001001400C0C0140000001402800002079
:10144000C1F80C0C8020FF494861086180000861E8
:1014500040100861400048610020FB49086080207E
:10146000F849486108618000086140100861400047
:101470004861EF20F44908608020F2494861086122
:10148000800008612B20FFF7D1FD4FF48070ED49FB
:101490000861400048610020EB4908608020E9496C
:1014A000486108618000086140100861400048619F
:1014B0000020E54908608020E24948610861800019
:1014C000086140100861400048610120DE49086061
:1014D0008020DC4948610861800008614010086193
:1014E000400048613F20D84908608020D5494861C4
:1014F00008618000086131E0082C1CD2DFE804F0AC
:1015000004070A0D0F12151845F0300513E045F0D9
:10151000100510E045F020050DE000BF0BE045F0A0
:10152000380508E045F0280505E045F0180502E01B
:1015300045F0080500BF00BFC4480088A0F5094178
:10154000893904D1112646F24000054302E0032602
:1015500045F4805529463046FFF7AAFD70BD70B5A9
:1015600004460D462946204602F0BEFCFFF7BCFDAE
:101570004FF48070B349086140004861B448008866
:10158000B14908608020AF49486108618000086166
:1015900070BD70B5054600240021084602F0A4FC89
:1015A000FFF7A2FD00BF0DE04FF48070A549086170
:1015B00040004861A44805608020486108618000BF
:1015C0000861641CB4F5963FEED370BD10B5A14818
:1015D000806940F008009F4988610846806940F0B2
:1015E000100088610846806940F001008861012090
:1015F000FEF732FF934840686FF30B009149486053
:101600000846406840F2333108438E494860084636
:10161000006820F07F4008600846006840F04C50A9
:1016200008600846C06840F4F860C8604FF0333086
:101630008549083908608849C1F8000C4FF6FF70E9
:10164000814908603220FEF7CEFD01210020FFF71E
:101650002FFD3220FEF7C7FD0020FFF73DFD7B493F
:1016600008800846008828B108460088A0F57F4118
:10167000FF3918D1D320FFF7D9FCFFF7E5FCFFF7BE
:10168000E3FCFFF7E1FC00F0BF007049088008466A
:1016900000880006000C0880FFF7D6FC6B4909881B
:1016A00008436A490880694801886CA002F086FCFA
:1016B00066480088A0F5134141397ED1CF20FFF75D
:1016C000B5FC4FF480705F4908614000486100201C
:1016D0005D49086080205B494861086180000861BD
:1016E0004010086140004861C1205B49C1F80C0C02
:1016F00080205449486108618000086140100861F9
:101700004000486130205049086080204D494861C0
:10171000086180000861ED20FFF788FC4FF48070BD
:1017200048490861400048616420474908608020BA
:101730004449486108618000086140100861400028
:10174000486103204049086080203E4948610861A3
:1017500080000861401008614000486112203A4949
:1017600008608020374948610861800008614010A6
:101770000861400048618120334908608020314978
:101780004861086180000861E820FFF74FFC4FF4D2
:1017900080702C4908614000486185202A49086012
:1017A0008020284948610861800008614010086174
:1017B000400048611020244900E091E30860802047
:1017C00020494861086180000861401008614000BC
:1017D00048617A201C49086080201A4948610861E4
:1017E00080000861CB20FFF721FC4FF48070154981
:1017F0000861400048613920134908608020114980
:10180000486108618000086140100861400048613B
:101810002C200D49086080200A4948610861800039
:1018200008614010086140004861002006490860D6
:101830008020044948610861800008614010086107
:10184000400013E0001001400C0C01402800002073
:10185000240000200010024000000140204C4344BE
:101860002049443A25780D0A0000000048613420E0
:10187000FF4908608020FF494861086180000861D5
:1018800040100861400048610220F949086080204A
:10189000F8494861086180000861F720FFF7C6FB3E
:1018A0004FF48070F3490861400048612020F049FE
:1018B00008608020EF494861086180000861EA20E3
:1018C000FFF7B4FB4FF48070EA49086140004861BB
:1018D0000020E74908608020E649486108618000EF
:1018E000086140100861400048610020E04908603C
:1018F0008020E0494861086180000861C020FFF74E
:1019000095FB4FF48070DB490861400048611B2063
:10191000D74908608020D749486108618000086184
:10192000C120FFF783FB4FF48070D249086140006B
:1019300048610120CE4908608020CE494861086195
:1019400080000861C520FFF771FB4FF48070C94922
:101950000861400048613020C54908608020C549C1
:1019600048610861800008614010086140004861DA
:101970003020C149C1F80C0C8020BE494861086183
:1019800080000861C720FFF751FB4FF48070B94910
:10199000086140004861B720B54908608020B5491A
:1019A00048610861800008613620FFF73FFB4FF473
:1019B0008070B0490861400048614820AC49086027
:1019C0008020AC4948610861800008613A20FFF737
:1019D0002DFB4FF48070A7490861400048615520F5
:1019E000A34908608020A34948610861800008611C
:1019F000B120FFF71BFB4FF480709E490861400047
:101A0000486100209A49086080209A49486108612D
:101A10008000086140100861400048611A20944924
:101A20000860802093494861086180000861B62001
:101A3000FFF7FCFA4FF480708E490861400048615E
:101A40000A208B49086080208A494861086180002B
:101A500008614010086140004861A2208449086084
:101A6000802084494861086180000861F220FFF706
:101A7000DDFA4FF480707F49086140004861002022
:101A80007B49086080207B494861086180000861CB
:101A90002620FFF7CBFA4FF48070764908614000AA
:101AA00048610120724908608020724948610861DC
:101AB00080000861E020FFF7B9FA4FF480706D49AB
:101AC0000861400048610F20694908608020694929
:101AD0004861086180000861401008614000486169
:101AE0002A206349086080206249486108618000BB
:101AF0000861401008614000486128205C49086086
:101B000080205C49486108618000086140100861DC
:101B100040004861082056490860802055494861C6
:101B200008618000086140100861400048610E2093
:101B30004F49086080204F49486108618000086172
:101B40004010086140004861082049490860802031
:101B50004849486108618000086140100861400000
:101B60004861542042490860802042494861086128
:101B7000800008614010086140004861A9203C498C
:101B8000086080203B49486108618000086140107E
:101B9000086140004861432035490860802035498C
:101BA0004861086180000861401008614000486198
:101BB0000A202F49086080202E4948610861800072
:101BC000086140100861400048610F202849086002
:101BD0008020284948610861800008614010086140
:101BE0004000486100202449C1F80C0C80202149A4
:101BF0004861086180000861401008614000486148
:101C000000201B49086080201A4948610861800053
:101C100008614010086140004861002014490860D4
:101C20008020144948610861800008614010086103
:101C30004000486100200E49086080200D4948613D
:101C4000086180000861E120FFF7F0F94FF480702F
:101C5000084908614000486100200549086080206B
:101C6000044948610861800008614010086105E08E
:101C70000C0C014000100140000001404000486190
:101C80001520FF4908608020FE49486108618000F6
:101C9000086140100861400048611720F849086059
:101CA0008020F8494861086180000861401008619F
:101CB000400048610720F24908608020F1494861EE
:101CC00008618000086140100861400048611120EF
:101CD000EB4908608020EB49486108618000086199
:101CE00040100861400048610620E54908608020F6
:101CF000E4494861086180000861401008614000C3
:101D000048612B20DE4908608020DE494861086177
:101D10008000086140100861400048615620D849A1
:101D200008608020D7494861086180000861401040
:101D30000861400048613C20D14908608020D149B9
:101D400048610861800008614010086140004861F6
:101D50000520CB4908608020CA494861086180009D
:101D6000086140100861400048611020C4490860C3
:101D70008020C44948610861800008614010086102
:101D8000400048610F20BE4908608020BD4948617D
:101D900008618000086140100861400048613F20F0
:101DA000B74908608020B749486108618000086130
:101DB00040100861400048613F20B1490860802020
:101DC000B049486108618000086140100861400026
:101DD00048610F20AA4908608020AA49486108612B
:101DE000800008612B20FFF721F94FF48070A5498E
:101DF0000861400048610020A14908608020A14995
:101E00004861086180000861401008614000486135
:101E100000209B49086080209A4948610861800041
:101E20000861401008614000486101209649C1F8EE
:101E30000C0C8020934948610861800008614010C3
:101E40000861400048613F208D49086080208D492D
:101E500048610861800008612A20FFF7E7F84FF425
:101E6000807088490861400048610020844908600A
:101E70008020844948610861800008614010086141
:101E80004000486100207E49086080207D4948610B
:101E9000086180000861401008614000486100202E
:101EA00077490860802077494861086180000861AF
:101EB0004010086140004861EF20714908608020AF
:101EC000704948610861800008611120FFF7AEF891
:101ED0007820FEF788F92920FFF7A8F801F093B8D9
:101EE0006A480088A0F5134125397ED147F6F001F4
:101EF000E520FFF7DDF84FF480710120FFF7D8F8F7
:101F00004FF4E0610220FFF7D3F841F230010320E3
:101F1000FFF7CEF800210420FFF7CAF840F20221B3
:101F20000820FFF7C5F800210920FFF7C1F80021BC
:101F30000A20FFF7BDF800210C20FFF7B9F80021B7
:101F40000D20FFF7B5F800210F20FFF7B1F80021B1
:101F50001020FFF7ADF807211120FFF7A9F80021A5
:101F60001220FFF7A5F800211320FFF7A1F80021A8
:101F70000720FFF79DF841F290611020FFF798F8D5
:101F800040F227211120FFF793F89D211220FFF73F
:101F90008FF84FF4C8511320FFF78AF82521292024
:101FA000FFF786F80D212B20FFF782F8072130205C
:101FB000FFF77EF840F203313120FFF779F8032173
:101FC0003220FFF775F840F206213520FFF770F850
:101FD00008213620FFF76CF840F206413720FFF762
:101FE00067F84FF44171382000E060E0FFF760F8D7
:101FF00007213920FFF75CF840F202613C20FFF72F
:1020000057F808213D20FFF753F800215020FFF733
:102010004FF8EF215120FFF74BF800215220FFF736
:1020200047F840F23F115320FFF742F84FF42741A1
:102030006020FFF73DF801216120FFF739F800210A
:102040006A20FFF735F800218020FFF731F80021E2
:102050008120FFF72DF800218220FFF729F80021C9
:102060008320FFF725F800218420FFF721F80021C5
:102070008520FFF71DF810219020FFF719F807E0E1
:102080000C0C01400010014000000140280000201D
:102090004FF4C0619220FFF70BF840F23311072094
:1020A000FFF706F822210020FFF702F816E7FF48A5
:1020B0000088A0F5134128397ED11021E720FEF7D2
:1020C000F7FF01210020FEF7F3FF4FF4807101209C
:1020D000FEF7EEFF4FF4E0610220FEF7E9FF41F268
:1020E00030010320FEF7E4FF00210420FEF7E0FFAB
:1020F00040F207210820FEF7DBFF00210920FEF750
:10210000D7FF00210A20FEF7D3FF01210C20FEF7A4
:10211000CFFF00210D20FEF7CBFF00210F20FEF79F
:10212000C7FF00211020FEF7C3FF07211120FEF793
:10213000BFFF00211220FEF7BBFF00211320FEF796
:10214000B7FF3220FEF74FF841F290511020FEF712
:10215000AFFF40F227211120FEF7AAFF3220FEF741
:1021600042F89C211220FEF7A3FF3220FEF73BF835
:102170004FF4C8511320FEF79BFF23212920FEF7BF
:1021800097FF0E212B20FEF793FF3220FEF72BF84E
:1021900000212020FEF78CFF40F23F112120FEF7A6
:1021A00087FF3220FEF71FF807213020FEF780FF5F
:1021B00040F20771312000E086E0FEF779FF06214A
:1021C0003220FEF775FF40F204713520FEF770FFF4
:1021D00041F604713620FEF76BFF04213720FEF72D
:1021E00067FF00213820FEF763FF40F206713920B7
:1021F000FEF75EFF40F201713C20FEF759FF0F2110
:102200003D20FEF755FF3220FDF7EDFF0021502065
:10221000FEF74EFFEF215120FEF74AFF002152202A
:10222000FEF746FF40F23F115320FEF741FF4FF407
:1022300027416020FEF73CFF01216120FEF738FFB7
:1022400000216A20FEF734FF00218020FEF730FFD6
:1022500000218120FEF72CFF00218220FEF728FFBD
:1022600000218320FEF724FF00218420FEF720FFB9
:1022700000218520FEF71CFF10219020FEF718FF9B
:1022800000219220FEF714FF03219320FEF710FF98
:102290004FF488719520FEF70BFF00219720FEF781
:1022A00007FF00219820FEF703FF40F233110720BB
:1022B000FEF7FEFE00212020FEF7FAFE40F23F115D
:1022C0002120FEF7F5FE09E678480088A0F51341C5
:1022D000203904D075480088B0F5134F7ED1002115
:1022E0000846FEF7E5FE4FF480710120FEF7E0FEA0
:1022F0004FF4E0610220FEF7DBFE41F230010320E3
:10230000FEF7D6FE00210420FEF7D2FE40F20221A5
:102310000820FEF7CDFE00210920FEF7C9FE0021AE
:102320000A20FEF7C5FE01210C20FEF7C1FE0021A8
:102330000D20FEF7BDFE00210F20FEF7B9FE322072
:10234000FDF751FF40F201110720FEF7B1FE3220E8
:10235000FDF749FF4FF486511020FEF7A9FE072133
:102360001120FEF7A5FE4FF488711220FEF7A0FEA3
:102370004FF430611320FEF79BFE00212920FEF769
:1023800097FE44F210012B20FEF792FE0021502010
:10239000FEF78EFEEF215120FEF78AFE002152202B
:1023A000FEF786FE40F23F115320FEF781FE4FF408
:1023B0001C516020FEF77CFE01216120FEF778FEB3
:1023C00000216A20FEF774FE00218020FEF770FED7
:1023D00000218120FEF76CFE002100E02DE082202C
:1023E000FEF766FE00218320FEF762FE00218420B6
:1023F000FEF75EFE00218520FEF75AFE1021902098
:10240000FEF756FE00219220FEF752FE0121932096
:10241000FEF74EFE4FF488719520FEF749FE00212D
:102420009720FEF745FE00219820FEF741FE40F27E
:1024300073110720FEF73CFE50E51C480088A0F50C
:10244000A84108397DD14FF480710120FEF730FE9C
:102450004FF4E0610220FEF72BFE41F23001032031
:10246000FEF726FE00210420FEF722FE40F207219F
:102470000820FEF71DFE00210920FEF719FE0021AD
:102480000A20FEF715FE00210C20FEF711FE0021A8
:102490000D20FEF70DFE00210F20FEF709FE14208F
:1024A000FDF7A1FE41F2B061102001E028000020FC
:1024B000FEF7FEFD01211120FEF7FAFD0121172094
:1024C000FEF7F6FD4FF49C711220FEF7F1FD4FF47C
:1024D00000611320FEF7ECFD09212920FEF7E8FD3D
:1024E00009212A20FEF7E4FD0021A420FEF7E0FDEB
:1024F00000215020FEF7DCFDEF215120FEF7D8FD32
:1025000000215220FEF7D4FD40F23F115320FEF788
:10251000CFFD4FF41C516020FEF7CAFD0121612060
:10252000FEF7C6FD00216A20FEF7C2FD00218020D3
:10253000FEF7BEFD00218120FEF7BAFD00218220BA
:1025400000E027E0FEF7B4FD00218320FEF7B0FD98
:1025500000218420FEF7ACFD00218520FEF7A8FDB8
:1025600013219020FEF7A4FD00219220FEF7A0FD8C
:1025700003219320FEF79CFD4FF488719520FEF710
:1025800097FD40F273110720FEF792FD3220FDF710
:102590002AFEA3E4FF480088A0F5A85105397ED1A2
:1025A0000720FEF785FD3220FDF71DFE4FF48E71EA
:1025B0001220FEF77DFD0121A420FEF779FD0F21F9
:1025C0000820FEF775FD08210A20FEF771FD08219D
:1025D0000D20FEF76DFD40F207713020FEF768FD1B
:1025E00007213120FEF764FD40F203613220FEF73F
:1025F0005FFD4FF4E0613320FEF75AFD40F2022107
:102600003420FEF755FD02213520FEF751FD41F63D
:102610000F713620FEF74CFD40F207713720FEF7B0
:1026200047FD00213820FEF743FD00213920FEF749
:102630003FFD40F207713A20FEF73AFD00213B20B2
:10264000FEF736FD07213C20FEF732FD00213D203C
:10265000FEF72EFD3220FDF7C6FD01210720FEF713
:1026600027FD01211720FEF723FD3220FDF7BBFDDA
:102670004FF4BD511020FEF71BFD40F21721112031
:10268000FEF716FD4FF48F711220FEF711FD4FF487
:1026900070611320FEF70CFD00212A2000E093E07A
:1026A000FEF706FD0A212920FEF702FD4FF49F7177
:1026B0001220FEF7FDFC00215020FEF7F9FCEF216F
:1026C0005120FEF7F5FC00215220FEF7F1FC40F20C
:1026D0003F115320FEF7ECFC4FF41C516020FEF735
:1026E000E7FC01216120FEF7E3FC00216A20FEF7F0
:1026F000DFFC00218020FEF7DBFC00218120FEF7BB
:10270000D7FC00218220FEF7D3FC00218320FEF7B6
:10271000CFFC00218420FEF7CBFC00218520FEF7B2
:10272000C7FC13219020FEF7C3FC4FF440719220A8
:10273000FEF7BEFC05219320FEF7BAFC0021952090
:10274000FEF7B6FC00219720FEF7B2FC002198208E
:10275000FEF7AEFC4FF480710120FEF7A9FC4FF4A8
:10276000E0610220FEF7A4FC41F230010320FEF7F5
:102770009FFC00210420FEF79BFC00210C20FEF7AB
:1027800097FC00210F20FEF793FC00212020FEF78C
:102790008FFC00212120FEF78BFC21210720FEF772
:1027A00087FC1420FDF71FFD61210720FEF780FC48
:1027B0001420FDF718FD40F273110720FEF778FC96
:1027C0001420FDF710FD71E472480088A0F5354132
:1027D00005397DD10846FEF76BFC00210846FEF75F
:1027E00067FC00210846FEF763FC00210846FEF75F
:1027F0005FFC0121A420FEF75BFC1420FDF7F3FC35
:102800004FF41C516020FEF753FC40F202210820D7
:10281000FEF74EFC4FF405713020FEF749FC43F201
:1028200015713120FEF744FC40F204613220FEF7BE
:102830003FFC40F616613320FEF73AFC42F21121CC
:102840003420FEF735FC4FF4A8513520FEF730FC5C
:1028500048F207513620FEF72BFC41F207413720A2
:10286000FEF726FC41F203413820FEF721FC20212F
:102870003920FEF71DFC1A219020FEF719FC0021DB
:102880001020FEF715FC07211120FEF711FC002196
:102890001220FEF70DFC00211320FEF709FC142086
:1028A000FDF7A1FC4FF4E6611020FEF701FC40F2B9
:1028B00037111120FEF7FCFB1420FDF794FC4FF4B8
:1028C000DC711220FEF7F4FB1420FDF78CFC00E015
:1028D00086E04FF470611320FEF7EAFB80212A2086
:1028E000FEF7E6FB48212920FEF7E2FB1420FDF766
:1028F0007AFC4FF480710120FEF7DAFB4FF4E061BF
:102900000220FEF7D5FB41F230210320FEF7D0FB79
:1029100040F202210820FEF7CBFB00210A20FEF73F
:10292000C7FB00210C20FEF7C3FB00210D20FEF7A2
:10293000BFFB30210E20FEF7BBFB00215020FEF72D
:10294000B7FBEF215120FEF7B3FB00215220FEF729
:10295000AFFB40F23F115320FEF7AAFB4FF41C518E
:102960006020FEF7A5FB01216120FEF7A1FB0021FD
:102970006A20FEF79DFB11219020FEF799FB4FF492
:10298000C0619220FEF794FB40F202419320FEF7D3
:102990008FFB01E02800002002219420FEF788FB35
:1029A0001420FDF720FC01210720FEF781FB1420F5
:1029B000FDF719FC61210720FEF77AFB40F2731145
:1029C0000720FEF775FB00212020FEF771FB002198
:1029D0002120FEF76DFB22210020FEF769FB12E3A8
:1029E000FF480088A0F5454105397DD10846FEF72E
:1029F0005FFB00210846FEF75BFB1420FDF7F3FBAD
:102A000000210846FEF754FB00210846FEF750FB64
:102A100000210846FEF74CFB00210846FEF748FB64
:102A20000121A420FEF744FB1420FDF7DCFB4FF44A
:102A30001C516020FEF73CFB40F606010820FEF723
:102A400037FB40F203713020FEF732FB01213120C9
:102A5000FEF72EFB04213220FEF72AFB4FF4817192
:102A60003320FEF725FB4FF440713420FEF720FBA6
:102A700040F203113520FEF71BFB1F213620FEF725
:102A800017FB40F203713720FEF712FB01213820BB
:102A9000FEF70EFB04213920FEF70AFB15219020DA
:102AA000FEF706FB4FF482611020FEF701FB40F2B7
:102AB00047211120FEF7FCFA4FF4DE711220FEF7D9
:102AC000F7FA4FF460611320FEF7F2FA7820FDF771
:102AD0008AFB4FF480710120FEF7EAFA4FF400718F
:102AE0000220FEF7E5FA00E050E041F23001032059
:102AF000FEF7DEFA08210A20FEF7DAFA00210C20A0
:102B0000FEF7D6FA20210E20FEF7D2FA00210F2080
:102B1000FEF7CEFA00212020FEF7CAFA002121207C
:102B2000FEF7C6FA3D212A20FEF7C2FA1420FDF76F
:102B30005AFB2D212920FEF7BBFA00215020FEF779
:102B4000B7FA4DF2EF015120FEF7B2FA0021522000
:102B5000FEF7AEFA40F23F115320FEF7A9FA00212A
:102B60006120FEF7A5FA00216A20FEF7A1FA4FF4D2
:102B700040719220FEF79CFA05219320FEF798FA07
:102B80004FF480710720FEF793FA3CE294480088E6
:102B9000A0F5094189397DD101210020FEF788FA8D
:102BA0004AF6A4010320FEF783FA00210C20FEF769
:102BB0007FFA40F60C010D20FEF77AFA4FF42C5103
:102BC0000E20FEF775FAB0211E20FEF771FA42F6CC
:102BD0003F310120FEF76CFA4FF4C0610220FEF78E
:102BE00067FA00211020FEF763FA46F27001112007
:102BF000FEF75EFA00210520FEF75AFA00210620B2
:102C0000FEF756FA4EF61C711620FEF751FA032114
:102C10001720FEF74DFA40F233210720FEF748FA5D
:102C200000210B20FEF744FA00210F20FEF740FAA6
:102C300000214120FEF73CFA00214220FEF738FA3D
:102C400000214820FEF734FA40F23F114920FEF7F8
:102C50002FFA00214A20FEF72BFA00214B20FEF725
:102C600027FA4FF46F414420FEF722FA0021452055
:102C7000FEF71EFA40F23F114620FEF719FA40F225
:102C800007713020FEF714FA4FF401713120FEF77E
:102C90000FFA00E03DE04FF401713220FEF708FA30
:102CA00040F202513320FEF703FA40F2075134207C
:102CB000FEF7FEF94FF401713520FEF7F9F94FF4F4
:102CC00001713620FEF7F4F940F202513720FEF789
:102CD000EFF940F202313A20FEF7EAF940F2023110
:102CE0003B20FEF7E5F900212320FEF7E1F9002162
:102CF0002420FEF7DDF94FF400412520FEF7D8F936
:102D000000214F20FEF7D4F900214E20FEF7D0F924
:102D100079E133480088A0F58A4131397ED101211B
:102D20000020FEF7C5F90A20FDF75DFA41F228619F
:102D30001020FEF7BDF90E211220FEF7B9F940F67A
:102D400039211320FEF7B4F90A20FDF74CFA40218F
:102D50001120FEF7ADF950211520FEF7A9F90A2040
:102D6000FDF741FA1E211220FEF7A2F90A20FDF715
:102D70003AFA4FF4B1511020FEF79AF942F6392190
:102D80001320FEF795F90A20FDF72DFA4FF4807114
:102D90000120FEF78DF94FF440710220FEF788F90B
:102DA00041F230010320FEF783F940F202210820AE
:102DB000FEF77EF908210A20FEF77AF9002130207B
:102DC000FEF776F940F202413120FEF771F94FF437
:102DD00083713220FEF76CF940F20351332001E099
:102DE00028000020FEF764F94FF482713420FEF7CA
:102DF0005FF940F201313520FEF75AF940F20771D0
:102E00003620FEF755F940F205313720FEF750F92C
:102E10004FF402713820FEF74BF900E03EE040F637
:102E20000B713920FEF744F902214120FEF740F9E9
:102E30004FF41C516020FEF73BF901216120FEF7A1
:102E400037F94FF404719020FEF732F94FF4857191
:102E50009220FEF72DF904219320FEF729F94FF473
:102E60008071A020FEF724F901210720FEF720F948
:102E700021210720FEF71CF923210720FEF718F96E
:102E800033210720FEF714F940F233110720FEF733
:102E90000FF90021A020FEF70BF9B4E0F9480088F3
:102EA000A0F58A413539F8D130211520FEF700F917
:102EB00010219A20FEF7FCF820211120FEF7F8F8E7
:102EC00043F228411020FEF7F3F802211220FEF70A
:102ED000EFF841F238011320FEF7EAF82820FDF759
:102EE00082F912210846FEF7E3F82820FDF77BF966
:102EF00043F220411020FEF7DBF843F238011320A3
:102F0000FEF7D6F84620FDF76EF900213020FEF7D7
:102F1000CFF840F202413120FEF7CAF840F2073103
:102F20003220FEF7C5F84FF441713320FEF7C0F8A8
:102F300004213420FEF7BCF840F201413520FEF7B1
:102F4000B7F840F207713620FEF7B2F840F20531CB
:102F50003720FEF7ADF84FF4C2613820FEF7A8F82D
:102F60004FF4C2613920FEF7A3F84FF480710120BD
:102F7000FEF79EF84FF440710220FEF799F841F2F7
:102F800030010320FEF794F840F608010820FEF710
:102F90008FF808210A20FEF78BF84FF41C516020AF
:102FA000FEF786F801216120FEF782F84FF49F7149
:102FB0009020FEF77DF84FF480719220FEF778F8AC
:102FC0004FF480719320FEF773F84FF44051A02026
:102FD000FEF76EF81021A320FEF76AF80121072002
:102FE000FEF766F821210720FEF762F8232107206B
:102FF000FEF75EF833210720FEF75AF840F233114E
:103000000720FEF755F80020FEF74DF901209E49F4
:1030100008604FF6FF70FEF7BCFA10BD2DE9F05FB7
:1030200004460D4616461F46DDF828804FF0000B7B
:103030000020FEF738F9301B401C1FFA80FBA94620
:1030400020E04946204600F04FFFFEF74DF84FF0D4
:10305000000A11E04FF480708C490861400048611B
:103060008B48C0F80C8C80204861086180000861A2
:103070000AF101001FFA80FADA45EBDB09F10100E1
:103080001FFA80F9B945DCDD0020FEF70CF9BDE838
:10309000F09F2DE9FF4F85B004460D4616460020EF
:1030A00004900390A6EB04080898A0EB0509A3463A
:1030B0000095B8F1000F02DD012001900AE0B8F19F
:1030C000000F02D10020019004E04FF0FF3001908A
:1030D000C8F10008B9F1000F02DD4FF0010A09E064
:1030E000B9F1000F02D14FF0000A03E04FF0FF3AB0
:1030F000C9F10009C84502DDCDF8088001E0CDF82E
:103100000890002722E0009881B21FFA8BF0FEF7AA
:1031100026FA049840440490039848440390029986
:103120000498884205DD04990298081A04900198D1
:103130008344DDE90210884206DDDDE90210401A11
:103140000390009850440090781C87B20298401C6D
:103150008742D8DD09B0BDE8F08F2DE9F041044683
:103160000D4616461F462B46324629462046FFF797
:1031700090FF3B46224629462046FFF78AFF3B4602
:10318000324639462046FFF784FF3B463246294601
:103190003046FFF77EFFBDE8F0812DE9F047044699
:1031A0000D4616460027B0460320A0EB460954E022
:1031B000EA1B91B2A4EB080290B2FEF7D0F9EA1B29
:1031C00091B204EB080290B2FEF7C9F905EB0802D0
:1031D00091B2E21B90B2FEF7C2F9EA1B91B2A4EBE6
:1031E000080290B2FEF7BBF9A5EB080291B2E21B10
:1031F00090B2FEF7B4F9EA1991B204EB080290B26A
:10320000FEF7ADF9A5EB080291B2E21990B2FEF714
:10321000A6F905EB080291B2E21990B2FEF79FF908
:10322000EA1991B2A4EB080290B2FEF798F97F1C5C
:10323000B9F1000F03DAB800801D814406E0A7EB66
:10324000080080000A308144A8F1010805EB08025B
:1032500091B2E21990B2FEF782F94745A8DDBDE8C8
:10326000F0872DE9F84F04460D4616461F46A34643
:10327000084800880090E82C02DCB5F59C7F0BDD47
:10328000BDE8F88F28000020A8012242001001406C
:103290000000014024000020A6F12000C6B20A98D8
:1032A000002839D1814634E00C2F07D106EB4600C7
:1032B0008D4901EB800010F8098004E08B4800EB99
:1032C000061010F809804FF0000A16E018F0010F00
:1032D00003D087490098088003E086480088844925
:1032E000088029462046FEF73AF94FEA6808601C34
:1032F00084B20AF1010000F0FF0A07EBD771BAEBC4
:10330000610FE3DB5C46681C85B209F1010000F047
:10331000FF09B945C8DB30E04FF000092BE00C2F66
:1033200007D106EB4600704901EB800010F80980D8
:1033300004E06E4800EB061010F809804FF0000A18
:1033400010E018F0010F07D005EB090291B204EB71
:103350000A0290B2FEF703F94FEA68080AF1010089
:1033600000F0FF0A07EBD771BAEB610FE9DB09F157
:10337000010000F0FF09B945D1DB5D4900980880E4
:103380007EE710B50246012000E050430B00A1F19A
:103390000104E1B2F9D110BD2DE9FF4F81B004461F
:1033A00015461E460E9F4FF0000AD0463EE0A6EBA3
:1033B0000800401EC1B20A20FFF7E3FFB5FBF0F0A2
:1033C0000A21B0FBF1F201FB120000F0FF09BAF193
:1033D000000F16D1701E404513DDB9F1000F0ED15C
:1033E0000023BB4607EBD771491001FB084188B2A7
:1033F00000933B4620220299FFF733FF12E04FF083
:10340000010A0023BB4607EBD771491001FB0841B5
:1034100088B200933B4609F13001CAB20299FFF726
:1034200020FF00BF08F1010000F0FF08B045BEDB3F
:1034300005B0BDE8F08F2DE9F84F04460D4616465D
:103440001F46DDF828804FF0000923E0A7EB0900B4
:10345000401EC1B20A20FFF794FFB6FBF0F00A212C
:10346000B0FBF1F201FB120000F0FF0A0B9BC34618
:1034700008EBD871491001FB094188B2009343461B
:103480000AF13001CAB22946FFF7EBFE09F101004B
:1034900000F0FF09B945D9DBBDE8F88FF8B504465F
:1034A0000D4616461BE0E82C03DD002405F1100054
:1034B00085B2B5F59C7F06DD0020044605464FF633
:1034C000FF70FEF766F80023009332781023294638
:1034D0002046FFF7C6FE04F1080084B2761C30785F
:1034E0000028E0D1F8BD0000C4510008385600089B
:1034F0002400002026000020F0B4144620F00046EE
:1035000021F0004100F000428E4205D230460E46C6
:1035100001460CB182F0004219B946EA0200F0BC43
:103520007047C6F3C753C1F3C7501D1AC6F3160040
:1035300040F40000202D14DAC1F3160141F400011B
:10354000002C21FA05F402D0A0EB040000E0204496
:10355000C5F1200401FA04F108D0494206D0401E0A
:1035600004E014B14FF0FF31F9E70121F0BC00F0A5
:1035700080BB90EA010201D5012200E00022BBE7F6
:1035800090EA010201D5002200E00122B4E70346DF
:103590000846594001D5002200E001221946ABE758
:1035A00080EA010210B502F00042400001D04B0059
:1035B00001D1002010BD4FEA106101EB1361C0F38F
:1035C0005600C3F3560340F4000043F40003A0FB8D
:1035D00003307F394FEA00401C0400D0401C50EA01
:1035E000134001D44000491EC3B20C0604EBD010B6
:1035F000401C4008802B01D120F00100002900DA96
:103600000020104310BDF0B480EA010230F0004306
:1036100002F0004221F0004000D010B9F0BC0020C0
:103620007047C0F3C755C3F31601C3F3C756731BE6
:10363000C0F3160040F400047E3341F400014FF063
:1036400080750020A14201D3091B28436D084FEA71
:103650004101F7D151B1A14202D14FF0004105E043
:1036600002D24FF0010101E06FF00101F0BC00F067
:1036700000BB2DE9FF4D86B0089A834623F0004336
:1036800001F0004421F00045129F801A4FF0FF38EE
:103690004FF0000A1E4675EB030108D25946284632
:1036A00035469346064608910FB184F00044002346
:1036B000089886EA03015840084305D1584645EA70
:1036C00004010AB0BDE8F08DC5F30A51C6F30A50F3
:1036D000081ACDE90401C5F3130040F480150498DD
:1036E000402837DAC6F3130040F48018049A08988B
:1036F000414637B100F0A5FABBEB000065EB0101D4
:1037000004E000F09EFA10EB0B00694105460498B6
:103710000E46C0F140024146089800F082FA834606
:10372000884677B1DBF1000B4FF0000368EB4808E7
:1037300088EA03018BEA0300084302D05A1EAD1841
:103740005641059BCDE900A4029343465A463146B3
:10375000284612E057B1059BCDE900A41BEB0800F9
:10376000029345EB08014346424606E0CDE900A43A
:103770000291002301222946584600F0BAFAA0E738
:10378000F8B50D4607465940002001F00041414080
:10379000404016461C46084301D0012300E00023A8
:1037A00000932346324629463846FFF762FFF8BDAC
:1037B000F8B50D4607465940002001F00041414050
:1037C000404016461C46084301D0002300E0012378
:1037D00000932346324629463846FFF74AFFF8BD94
:1037E000F8B50D4607465940002001F00041414020
:1037F000404016461C46084301D0002300E0012348
:1038000000932B463A4621463046FFF732FFF8BD7B
:103810002DE9FF4D144681EA030200208AB002F030
:103820000042CDE9080223F00046034602460A980A
:1038300021F0004585EA03015040084306D00023EB
:1038400086EA030184EA0300084304D1002001460C
:103850000EB0BDE8F08DC5F30A51C6F30A5000273B
:103860000844A0F2F330C5F31302CDE9030742F494
:103870008015C6F3130242F48016BA46B846BB461A
:10388000069725E0E00717D0049A0A9880180246A8
:1038900004900A9845EB0A0A121A7AEB050301D242
:1038A000012000E00020C11710EB0800069A7941C2
:1038B000801841EB0B0B069018EB08000A9A7F4129
:1038C00040EAD57890186D4176080A904FEA3404A2
:1038D000002386EA030184EA03000843D2D1039B54
:1038E000DDE90801CDE90001029353465946049AE7
:1038F000069800F0FEF9ABE72DE9FF4D054681EA99
:103900000302002086B002F0004223F00046CDE919
:103910000402034621F0004484EA0301684008439E
:1039200006D00023089886EA03015840084304D1D2
:10393000002001460AB0BDE8F08DC4F30A51C4F37B
:103940001302C6F30A5042F480144FF0000BC6F382
:103950001302081A42F4801200F2FE305F464FF460
:103960000016D846DA460992039011E0DDE90823F3
:10397000A81A74EB030106D3AD1A64EB030448EAFA
:1039800007084AEA060A76084FEA37076D196441C4
:10399000002386EA030187EA03000843E6D184EAAC
:1039A000030185EA0300084315D0DDE9082384EA12
:1039B000030185EA0200084303D15D464FF000444D
:1039C00009E0A81A74EB030102D201255C4602E06B
:1039D0006FF001056C10DDE90401039BCDE90001E6
:1039E000029323462A465146404600F082F9A1E759
:1039F00096230022114600F03CB90EB500210A467C
:103A0000002802DA40424FF0004240F233438DE892
:103A10000E0000231A4600F06CF903B000BD20F040
:103A20000040C10DC0F3160040F400007F2901DA08
:103A300000207047962903DCC1F19601C840704709
:103A400096398840704770B501F0004621F000417A
:103A50000A0D0025C1F3130140F2FF3341F4801138
:103A60009A4201DA002070BD40F233439A42A2F23A
:103A7000334203DC524200F0E4F801E000FA02F0C5
:103A80000023044686EA030185EA0300084301D0C7
:103A9000604270BD204670BD21F000410A0DC1F3A7
:103AA000130140F2FF3341F480119A4201DA002001
:103AB000704740F233439A42A2F2334202DC524250
:103AC00000F0BFB89040704700F0004230F0004076
:103AD00001D101467047C30DC0F3160003F56073B2
:103AE000C108400742EA0352114370472DE9F041F3
:103AF00007460D46002001F0004141404040164677
:103B00001C464FF00048084302D17F4268EB050590
:103B1000002004F0004141404040084302D1764279
:103B200068EB040438462946324623468B4208BFD8
:103B30008242BDE8F0810000F0B40023054601F0A8
:103B4000004621F0004484EA0301584008430ED0A7
:103B5000C4F3130040F48010230DC10041EA5570F6
:103B6000E9003246F0BCA3F5607300F082B8F0BC07
:103B700070470000002801DBC0F10040002901DB94
:103B8000C1F1004181427047002801DBC0F10040D3
:103B9000002901DBC1F100418842704730B50B4676
:103BA000014600202022012409E021FA02F59D426D
:103BB00005D303FA02F5491B04FA02F52844151E41
:103BC000A2F10102F1DC30BD2DE9F047002591465C
:103BD0009A46074688462E46402418E0224641462B
:103BE000384600F02EF8B0EB090071EB0A010ED355
:103BF00022465146484600F014F83F1A68EB010887
:103C000022460021012000F00CF845194E41201EEB
:103C1000A4F10104E2DC284631463A464346BDE8B9
:103C2000F087202A04DB0023203A00FA02F106E0A4
:103C300000FA02F39140C2F12002D040014318463D
:103C40007047202A04DB203A21FA02F00021704755
:103C5000D040C2F1200301FA03F31843D14070476A
:103C6000002905DA401CB1F1004F01D120F001001C
:103C7000704730B450EA01040BD130BC00207047CB
:103C800001F0010545EA510141EAC07140085B1CA1
:103C900001E04FF08074A042F2D24FF4000404E03F
:103CA000400040EAD17049005B1EA042F8D300EB0F
:103CB000C350A0F5000030BC1044D1E7F0B5044675
:103CC0000D46002003F000414140404017461E468B
:103CD00008430BD0641C4FF0004386EA030145F112
:103CE000000557EA010001D124F0010420462946CD
:103CF000F0BD2DE9F00D88461D4619430746002307
:103D0000104359405840099E14464FF0FF3A08436B
:103D100011D1BDE8F00D01467047680804F00102BA
:103D200042EA340440EAC7755FEA58084FEA3707A9
:103D300006F1010601E0DFF848B0BAEB07027BEBC1
:103D40000803EAD34FF4801A07E0FF1948EB08088C
:103D500047EAD57724196D41761E381E78EB0A01A3
:103D6000F3D33305A3F58013381C48EB0301DDE9D9
:103D70000723801859412B462246BDE8F00D9DE7E8
:103D8000FFFF1F0070B50D460023064621F00041DD
:103D9000594058401446084302D13046294670BD68
:103DA000301C45EB045170BD21F000410A0DC1F3F8
:103DB000130140F2FF3341F480119A4202DA0020ED
:103DC0000146704740F233439A42A2F2334202DC8A
:103DD0005242FFF736BFFFF724BF00002DE9F04144
:103DE00007460D46002001F0004141404040164684
:103DF0001C464FF00048084302D17F4268EB05059E
:103E0000002004F0004141404040084302D1764286
:103E100068EB04043846294632462346994208BFD7
:103E20009042BDE8F0810000064C074D06E0E068D6
:103E300040F0010394E8070098471034AC42F6D3F1
:103E4000FCF758F9D85D0008F85D00082DE9FF4D32
:103E500001F0004B21F000410F0D054623F000401A
:103E6000020DC0F3130084B0C1F3130140F48010BD
:103E70004FF0000A5E4641F48014A2F10108079059
:103E800019E0DDE90623901843EB03012D1A64EBDA
:103E900001040023E81A74EB030104DA6D4286F092
:103EA000004664EB4404DDE90623521BA341E8D33A
:103EB0007F1E6D1964414745F5DA002384EA03014A
:103EC00085EA0300084304D15046594608B0BDE8CE
:103ED000F08DCDE900A600231A4621462846029718
:103EE000FFF707FFF2E7000030B504460D462F4804
:103EF0000088A0F50941893908D121464E20FDF7F7
:103F0000D7F829464F20FDF7D3F84DE02748008821
:103F1000A0F5134141393FD12A20FDF787F84FF42E
:103F200080702349086140004861201221490860DF
:103F300080201F49486108618000086140100861C5
:103F400040004861E0B21C49C1F80C0C80201849BF
:103F500048610861800008612B20FDF767F84FF485
:103F600080701349086140004861281211490860B7
:103F700080200F4948610861800008614010086195
:103F800040004861E8B20B49086080200849486158
:103F900008618000086107E021462020FDF788F8CD
:103FA00029462120FDF784F830BD000028000020BC
:103FB000001001400C0C0140000001400FB410B58E
:103FC00003A9044B044A029800F0A2FB10BC5DF860
:103FD00014FB00003F050008080000202DE9F04D0B
:103FE00014469FA2D2E9003290B0C4E902320E9288
:103FF0009D4A21F000450191954204DC03C4002054
:1040000010B0BDE8F08D994A994E7E44954229DA68
:10401000D6E90423974F002911DDFFF7C9FBBD4204
:1040200002D0D6E9062305E0D6E90823FFF7C0FB56
:10403000D6E90A23FFF7BCFB03C40120E0E7FFF742
:104040009FFBBD4202D0D6E9062305E0D6E908234E
:10405000FFF796FBD6E90A23FFF792FB03C44FF064
:10406000FF30CDE7844B9D4277DC074683A00CC828
:1040700029463846FFF7CCFB82A20CCAFFF780FB2B
:10408000FFF7E1FC0290FFF7B8FCCDE90401D6E9A7
:104090000423FFF7BDFB2B463A46FFF7A1FBD6E909
:1040A000062307468846DDE90401FFF7B1FB2A0D28
:1040B000012503920B46024641463846FFF778FB3E
:1040C000C4E90001032D37D0C1F30A500399081A3F
:1040D00005EB4511113981422EDA6548069778447F
:1040E000C43800EB0516D6E90023DDE90401C34618
:1040F000FFF78EFB8A460B46024608905946069803
:10410000FFF756FB074688460B4602465946069877
:10411000FFF74EFB5346089AFFF74AFBD6E9022306
:1041200083468A46DDE90401FFF772FB53465A468F
:10413000FFF73EFB6D1CBDE7019800280BDA6068B5
:1041400080F0004060600E9880F00040E0600298CF
:10415000404255E701E0029852E7C1F30A52B2F536
:104160008D6F0BD9A2F269423623B2FBF3F2474BB3
:104170007B4403EBC2030CCBFFF74AFB00F07C4609
:104180000D460B463246FFF713FB41A7D7E9002344
:1041900080468A4629463046FFF73AFBCDE90C01B6
:1041A0003DA00CC829463046FFF732FB0A908B46EB
:1041B0000CCF51464046FFF72BFB074636A00CC8F4
:1041C0000E4651464046FFF723FB80460D463346D8
:1041D0003A4659460A98FFF7D3FA06460F460B4669
:1041E0000246DDE90C01FFF7CBFADDE90C2383463B
:1041F0008A46FFF7DDFA3B463246FFF7F1FA2B46D7
:104200004246FFF7BDFA26A7D7E9002305460E462A
:1042100051465846FFF71AFE0CCFFFF76DFB0322FD
:10422000FFF7B0FD20A20CCAFFF7AAFAFFF70BFCBC
:104230001FA7D7E900234FEA600851465846FFF709
:1042400005FE33462A46FFF79BFA0CCFFFF7FEFD2B
:1042500019A20CCAFFF750FB03C44046D0E6000089
:104260000000000000000000FB21E93F7CD9024073
:10427000621D0000FB21F93FFB21394183C8C96D54
:10428000305FE43F000000000000E03F7C1B0000C6
:10429000000000404544DB3F00000090B1BF1DBE60
:1042A000A7A540A74A6A0540000000000000224080
:1042B000A7A540A74A6AE53FE704243E4544DB3F03
:1042C0002DE9FF4D21F0004582B017460C4634A67B
:1042D000B5F1795F08DA21460298FFF7B4FB18B907
:1042E00003CE06B0BDE8F08D029A23462146104663
:1042F000FFF78EFA824602462B4888460B46062177
:10430000784400F05BF843465246FFF781FA00908C
:104310008B463A462146059B0298FFF779FA0746F5
:104320000C465B4641465046009AFFF771FA234619
:104330003A46FFF73DFA8B4600904FF0FF32414678
:104340005046FFF71FFD194A954205DA5B46009A71
:10435000FFF72EFA0CCE1DE0154A954202DD15A29C
:1043600030CA02E0A5F5001500242B462246FFF7CF
:104370001FFA0746884603CE2B462246FFF718FA57
:1043800004460D465B4641463846009AFFF710FA50
:104390002B46224606B0BDE8F04DFFF721BA0000DB
:1043A000000000000000F03FBC1900003333D33F91
:1043B0000000E93F000000000000D23F2DE9F0417D
:1043C000491E0D46044600EBC10103C916461F46AF
:1043D00009E03B463246FFF71BFA6D1E04EBC502AF
:1043E0000CCAFFF7CDF935F00602F2D1022D23D029
:1043F000042D11D0062D30D13B463246FFF708FA86
:10440000D4E90A23FFF7BCF93B463246FFF700FA2E
:10441000D4E90823FFF7B4F93B463246FFF7F8F931
:10442000D4E90623FFF7ACF93B463246FFF7F0F933
:10443000D4E90423FFF7A4F93B463246FFF7E8F935
:10444000D4E90223FFF79CF93B463246FFF7E0F937
:104450000CCCBDE8F041FFF793B9BDE8F081000056
:104460002DE9FF4D82B003980E9F20F00040B0F17F
:10447000795F09DADDE90201FFF7E5FA20B9DDE944
:10448000020106B0BDE8F08DDDE9022319461046B1
:10449000FFF7BEF983468A460B460246DDE9020174
:1044A000FFF7B6F980462648019153465A46052142
:1044B0007844FFF783FF04460D4622A69FB92B469A
:1044C000224651465846FFF7A3F90CCEFFF758F99C
:1044D0004246019BFFF79CF9DDE9022306B0BDE8E7
:1044E000F04DFFF74DB90CCE40460199FFF790F91A
:1044F00006460F462B46224640460199FFF788F9AB
:1045000004460D46DDE904014FF0FF32FFF73AFCA7
:104510002B462246FFF74CF953465A46FFF778F9E7
:10452000DDE90423FFF744F93B463246FFF740F943
:10453000DDE9022306B0BDE8F04DFFF751B90000F8
:10454000FC180000495555555555C5BF02E008C82F
:10455000121F08C1002AFAD170477047002001E0FD
:1045600001C1121F002AFBD17047000001490860F9
:10457000704700002C0000202DE9FF5F84B08B46BF
:10458000DDE9060100234FEA1154DDE912895940A3
:104590005840084310D1012454A3B9F1010F02D1AE
:1045A0006FEA080100E000210498C0E90249C0E96F
:1045B000003108B0BDE8F09FA4F2FF3444F610507B
:1045C00044432514B9F1010F404601D1464201E0B0
:1045D0002E1A761C46A003C87442CDE9000146A0FD
:1045E000D0E900A7002E14DB344612E0E00707D024
:1045F000DDE9002339465046FFF70AF982460F46A7
:10460000DDE9002319461046FFF702F96410CDE9F1
:104610000001002CEAD1DDE90601002E3B4652469E
:1046200002DAFFF7F5F801E0FFF766F934A20CCAE9
:1046300004460E46FFF7D2FB03D84FF0FF3637464D
:1046400009E031A00CC831462046FFF799F8FFF782
:10465000ABFB06460F4610240DE0002C12DB0023B6
:104660000A2239463046FFF7AFFA30320BF8042001
:1046700006460F46641E002387EA030186EA03000C
:104680000843EAD1641C0BEB0400C4F1110A039047
:10469000B9F1010F0FD1002387EA030186EA030075
:1046A000084303D1AAEB08056D1E18E04FF011086E
:1046B0004FF0000986E70023012487EA030186EA18
:1046C0000300084301D1C24502DD00246D1C04E053
:1046D00003DA4FF00004A5F10105002CEAD004989C
:1046E000C0E902A945600399016062E7300000005B
:1046F0000000000000002440000000000000F03F27
:10470000000000000000F043000000000000E03F57
:104710002DE9FF4F99B006469A460F46002564E3FF
:10472000252879D10024761CFD4AA0460121179442
:104730003378203B01FA03F0104202D00443761C88
:10474000F6E730782A2816D101CF1790002803DA2F
:10475000404244F40054179044F00204761C11E0E7
:10476000179844F0020400EB800002EB400008447C
:10477000761C179001E06FF02F023178A1F1300024
:104780000928EDD930782E2818D116F8010F44F0F9
:1047900004042A280BD157F8048B761C0EE008EB92
:1047A000880002EB400001EB0008761C01E06FF08E
:1047B0002F023178A1F130000928F0D930786C2827
:1047C0000ED008DC4C2816D068280CD06A2813D1EB
:1047D00044F400140FE074280DD07A280CD10AE0BC
:1047E00044F4801401E044F440147178814202D111
:1047F000761C04F58014761C307866280BD013DC08
:10480000582827D009DC002872D04528F6D0462841
:10481000F4D0472885D19DE1EFE2632832D06428A7
:1048200077D06528F6D195E1702871D00CDC672827
:10483000F1D069286DD06E280ED06F28EAD10821FA
:104840000022CDE91212ADE0732825D0752870D072
:104850007828DFD11021F3E7C4F30250022804D1F5
:104860003868E917C0E900510AE0032802D1386826
:10487000058005E00428386801D1057000E0056076
:104880003F1DB1E201CF8DF8540000208DF8550096
:104890000DF1540B012003E057F804BB4FF0FF303B
:1048A00061074FF000010CD501E009F101018946D3
:1048B000414510DA8145F8DB1BF809100029F4D1D5
:1048C00009E001E009F1010189468142FADB1BF8A8
:1048D00009100029F6D117985346A0EB0908214684
:1048E00040461B9A00F0A6FA284400EB090506E0B2
:1048F0007FE20EE01BF8010B52461B999047B9F17D
:1049000001008146F6D25346214640461B9A1DE1DE
:1049100040E00A200021CDE91201C4F30250022830
:1049200008D1FF1D27F00707D7E900910837159137
:1049300012E02DE002CFCA1789461592032804D150
:104940000FFA89F1CA1789461592042804D14FFA43
:1049500089F0C1178146159100231599B9EB030021
:10496000994108DA1599D9F1000961EB41014FF03D
:104970002D00159102E0200504D52B208DF8200094
:10498000012003E0E00701D02020F7E7834657E04D
:104990000A2155E710210022CDE9121244F0040447
:1049A0004FF00808C4F30251022907D1FF1D27F078
:1049B0000707D7E90092083715920BE0002357F854
:1049C000049B1593032901D11FFA89F9042901D108
:1049D00009F0FF094FF0000B210731D5702804D1F1
:1049E00040208DF82000012013E0DDE912011022A3
:1049F000504008430ED10023159989EA030059401D
:104A0000084307D030208DF8200030788DF8210041
:104A100002208346DDE912010822504008430FD1ED
:104A20000023159989EA03005940084301D1600722
:104A300006D530208DF820004FF0010BA8F10108B9
:104A4000317838A0582900D03BA0079012A80990CF
:104A50000DE0DDE9122348461599FFF7B5F8079BED
:104A600081469B5C099A521E09921370159100238E
:104A7000159989EA030059400843EAD109990AA81F
:104A8000401A00F12009600702D524F4803401E0C7
:104A90004FF001080020C84501DDA8EB0900169081
:104AA000484417995844081A1790E00306D453460F
:104AB00021461B9A179800F0BDF90544002008E034
:104AC00008A810F8080052461B9990476D1C08F181
:104AD000010080465845F3DBE0030CD553462146E0
:104AE0001B9A179800F0A6F9054404E030205246BE
:104AF0001B9990476D1C1698411E16910028F5DCF5
:104B000008E0099809990078491C099152461B99B7
:104B100090476D1CB9F10000A9F10109F1DC5EE1DB
:104B200009280100303132333435363738394142C3
:104B300043444546000000003031323334353637C7
:104B400038396162636465660000000000F060F956
:104B5000054449E1600701D44FF00608FF1D27F026
:104B60000707D7E90001CDE90201002001F000416B
:104B7000414008374040084301D0A2A007E0A2A06E
:104B8000210504D4A1A0E10701D1AFF2580007909C
:104B9000039820F000413078652828D006DC4528AD
:104BA00025D046283AD0472858D103E0662835D08A
:104BB0006728F9D1B8F1010F01DA4FF0010800239D
:104BC0001122B8F1110F00DC4246CDE900230B465B
:104BD0000AA912A8029AFFF7CFFC4FF0000BC146BA
:104BE000200748D4149949453CDA084639E00023A7
:104BF0001122B8F1110F01DA08F10102CDE9002309
:104C00000B460AA912A8029AFFF7B6FC01200590EC
:104C10004FF0000B08F1010913984BE00123CDE997
:104C200000834FF0004004900B460AA912A8029A94
:104C3000FFF7A2FCDDE914904FF0000B20B91399A7
:104C400008F1010001EB0009B8EB090003D4C0F141
:104C5000FF3B08F10109A9EB080005902BE0A9F141
:104C600001008146B9F1010F05DD1299A9F101009A
:104C7000085C3028F3D01399414503DA084611F156
:104C8000040F03DA01200590084613E0002804DC35
:104C900013998344A9EB010004E0401C484502DD60
:104CA0001398401C81461399A1EB0B00401C059002
:104CB0004FF000400490200705D40599494502DBD8
:104CC0004FF0FF30059000218DF8271004980DF16A
:104CD0002708B0F1004F29D0022001902B2000902E
:104CE000049800280EDA404204902D20009009E03C
:104CF0000A210498FEF752FF0490A8F10100303118
:104D0000804601700198411E01910028F0DC049852
:104D10000028EDD1A8F10100009900F801193178BF
:104D2000804601F0200141F04501017008A8A0EB88
:104D30000800C01D06900798007800B10120059971
:104D4000484400EBE170069908441799081A401E80
:104D50001790E00306D4534621461B9A179800F09B
:104D600069F805440798007818B152461B99904796
:104D70006D1CE00322D5534621461B9A179800F07C
:104D800059F805441AE0BBF1000F07DB14985845A9
:104D900004DD12981B9910F80B0001E01B993020DC
:104DA0005246904705986D1C401E0BF1010B059073
:104DB00004D12E2052461B9990476D1CB9F100007A
:104DC000A9F10109DFDC05E018F8010B52461B9937
:104DD00090476D1C0698411E06910028F4DC53464E
:104DE00021461B9A1798B1E6761C307800287FF48C
:104DF00097AC28461DB0BDE8F08F52461B999047EE
:104E00006D1CF1E72D0000002B00000020000000C9
:104E10002DE9F0410446002517461E46880406D5B4
:104E200003E039462020B0476D1C641EF9D52846A2
:104E3000BDE8F0812DE9F041044600253027904679
:104E40001E46C80300D42027880406D403E0414648
:104E50003846B0476D1C641EF9D52846BDE8F08180
:104E60002DE9FE4F05460F460E4621F000407349DE
:104E7000884224DB7249884201DC08D13DB13146C9
:104E8000284603B0BDE8F04F0122FEF77BBF6D4C12
:104E90007C44002F08DDD4E90E23D4E9060103B0D9
:104EA000BDE8F04FFEF76CBCD4E90601D4E90E234F
:104EB00003B0BDE8F04F81F00041FEF779BC624AD3
:104EC0000FF28818904215DA624988420FDA62A020
:104ED0000CC831462846FEF753FCD8E90023FEF7FC
:104EE0007DFF04D22846314603B0BDE8F08F4FF075
:104EF000FF3446E05A49824688421EDA59498842C0
:104F000014DA59A00CC8002451462846FEF738FC94
:104F100083460E46012251462846FEF733FFD8E964
:104F20000023FEF745FC33465A4626E0D8E9002325
:104F30000124C346514628460DE04D49884217DA00
:104F400002240FF2301BDBE9002351462846FEF70E
:104F50005FFCD8E90023FEF713FCDBE90023804661
:104F60000E4651462846FEF723FC3346424604E0EF
:104F700042A003C8032453462A46FEF7BDFC05465B
:104F80000E4633462A4631462846FEF741FC8B46FC
:104F90000B4602460090FEF73BFC824602468846DE
:104FA0000B46284806217844AE38FFF707FA5B46DF
:104FB000009AFEF72DFC02908B462248434652464B
:104FC00005217844F238FFF7F9F943465246FEF7D7
:104FD0001FFC02460B460298002C59460CDAFEF7DD
:104FE000CFFB33462A46FEF713FC33462A4603B06E
:104FF000BDE8F04FFEF7F4BBFEF7C2FB33462A468E
:10500000FEF706FC84461F48784400EBC4000CC839
:105010006046FEF7CDFB33462A46FEF7C9FB194A28
:105020007A44383A02EBC4020CCAFEF7D9FB002FCF
:10503000BFF65AAF81F0004156E70000000010446F
:105040000000F07F940D00000000DC3F0000000035
:105050000000F03F0000203E9C7500883CE4377E55
:105060000000F33F0000E63F0000000000000040A9
:1050700000800340000000000000F83F0000000036
:105080000000F0BF3C0C000030B520A30CCB214D3C
:1050900021F0004487B0AC4203DCFFF711F907B000
:1050A00030BD1D4A944206D128B90120FFF75EFAAF
:1050B0001AA103C9F3E7944205DB07B0BDE830400D
:1050C0000122FEF75FBE02AAFEF788FF10F0030080
:1050D0000AD001280BD0022810D102A80FC8FFF770
:1050E000EFF881F00041DAE702A80FC8D5E7012305
:1050F000009302A80FC8FFF7B3F9F2E7012300936A
:1051000002A80FC8FFF7ACF9C9E7000000000000D3
:1051100000000000FB21E93F0000F07F01000000DB
:105120000000F87F30B521A314CB224D21F00043BD
:1051300087B0AB4203DC00230093234627E01E4ADE
:10514000934207D130B90120FFF710FA1BA103C920
:1051500007B030BD934205DB07B0BDE83040012207
:10516000FEF710BE02AAFEF739FF10F003000AD0C6
:1051700001280FD0022812D10123009302A80FC8E2
:10518000FFF76EF90FE00123009302A80FC8FFF7A5
:1051900067F9DDE702A80FC8FFF792F8D8E702A881
:1051A0000FC8FFF78DF881F00041D1E70000000043
:1051B00000000000FB21E93F0000F07F010000003B
:1051C0000000F87F00000000000000000000000068
:1051D00000000404040404040004000000140A0A8B
:1051E0000000000000000000000014143F140A3FFB
:1051F0000A0A000000041E1505060C14150F040011
:10520000000012150D0A142C2A1200000000040AD6
:105210000A1E1515093600000002020100000000F8
:1052200000000000002010080808080808102000EE
:10523000000204080808080808040200000000042E
:10524000150E0E150400000000000404041F0404E1
:105250000400000000000000000000000002020145
:1052600000000000001F000000000000000000001F
:1052700000000000000200000010080808040402FA
:105280000202010000000E1111111111110E000097
:105290000000040604040404040E000000000E11C3
:1052A00011080402011F000000000E11100C101064
:1052B000110E00000000080C0A0A091E0818000060
:1052C00000001F01010F1010110E000000000E0958
:1052D000010F1111110E000000001F090804040441
:1052E0000404000000000E11110E1111110E000037
:1052F00000000E1111111E10120E0000000000001F
:105300000400000000040000000000000004000091
:10531000000404000020100804020408102000000B
:10532000000000001F00001F000000000002040831
:10533000102010080402000000000E1111080404DF
:105340000004000000000E111915151D011E0000BB
:10535000000004040C0A0A1E1233000000000F12A1
:10536000120E1212120F000000001E1101010101A5
:10537000110E000000000F1212121212120F000084
:1053800000001F120A0E0A02121F000000001F1266
:105390000A0E0A020207000000001C120101391166
:1053A000120C000000003312121E12121233000001
:1053B00000001F0404040404041F000000003E0851
:1053C0000808080808090700000037120A060A0A38
:1053D000123700000000070202020202223F000012
:1053E00000001B1B1B1B15151515000000003B12B0
:1053F00016161A1A1217000000000E1111111111C1
:10540000110E000000000F12120E0202020700002F
:1054100000000E1111111117190E180000000F12C3
:10542000120E0A121237000000001E1101060810A9
:10543000110F000000001F1504040404040E0000F6
:105440000000331212121212120C0000000033126C
:10545000120A0A0C0404000000001515150E0A0AB1
:105460000A0A000000001B0A0A04040A0A1B0000C2
:1054700000001B0A0A040404040E000000001F09B7
:1054800008040402121F0000001C040404040404A5
:1054900004041C00000202020404080808100000B2
:1054A000000E08080808080808080E0000040A0092
:1054B00000000000000000000000000000000000EC
:1054C0000000003F00040000000000000000000099
:1054D00000000000000C121C123C0000000003023F
:1054E000020E1212120E000000000000001C120238
:1054F000021C000000001810101C1212123C0000C8
:1055000000000000000C121E021C00000000380405
:10551000041E0404041E000000000000003C120CE5
:10552000021E221C00000302020E1212123700009B
:105530000000040000060404040E0000000008003F
:10554000000C08080808080700000302023A0A0EC7
:10555000123700000000070404040404041F0000C4
:1055600000000000000F15151515000000000000D8
:10557000000F12121237000000000000000C12127F
:10558000120C000000000000000F1212120E0207A1
:1055900000000000001C1212121C10380000000055
:1055A000001B06020207000000000000001E020CA3
:1055B000101E000000000004040E04040418000083
:1055C00000000000001B1212123C0000000000004E
:1055D0000037120A0C040000000000000015150E30
:1055E0000A0A000000000000001B0A040A1B000059
:1055F000000000000037120A0C0404030000000041
:10560000001E0804041E000000180808080408080A
:105610000808180008080808080808080808080802
:10562000000604040408040404040600022518000B
:10563000000000000000000000000000000000006A
:105640000000000000000000000000080808080832
:10565000080800001818000000486C241200000020
:1056600000000000000000000000002424247F123D
:1056700012127F12121200000000081C2A2A0A0CC3
:105680001828282A2A1C08080000002225151515AC
:105690002A585454542200000000000C1212120A1E
:1056A00076252911916E0000000606040300000013
:1056B0000000000000000000004020101008080852
:1056C00008080810102040000002040808101010FC
:1056D00010101008080402000000000008086B1CED
:1056E0001C6B080800000000000000000808080803
:1056F0007F0808080800000000000000000000000B
:105700000000000006060403000000000000000086
:10571000FE0000000000000000000000000000008B
:10572000000000000606000000008040402020101D
:10573000100808040402020000000018244242423B
:105740004242424224180000000000080E080808E7
:1057500008080808083E00000000003C42424220C1
:1057600020100804427E00000000003C4242201845
:1057700020404042221C0000000000203028242449
:1057800022227E20207800000000007E0202021A01
:1057900026404042221C0000000000382402021A69
:1057A00026424242241800000000007E22221010EF
:1057B00008080808080800000000003C4242422493
:1057C00018244242423C0000000000182442424299
:1057D00064584040241C000000000000000018181D
:1057E0000000000018180000000000000000000881
:1057F0000000000000080804000000402010080419
:1058000002040810204000000000000000007F009B
:1058100000007F00000000000000000204081020CB
:1058200040201008040200000000003C42424640B4
:1058300020101000181800000000001C225A5555B6
:1058400055552D42221C00000000000808181414B1
:10585000243C224242E700000000001F2222221EB8
:1058600022424242221F00000000007C424201010D
:1058700001010142221C00000000001F224242429E
:1058800042424242221F00000000003F4212121E0C
:1058900012120242423F00000000003F4212121E5C
:1058A00012120202020700000000003C2222010145
:1058B00001712122221C0000000000E74242424206
:1058C0007E42424242E700000000003E080808080D
:1058D00008080808083E00000000007C10101010A6
:1058E000101010101010110F0000007722120A0E75
:1058F0000A121222227700000000000702020202B0
:1059000002020202427F000000000077363636367F
:105910002A2A2A2A2A6B0000000000E346464A4A47
:1059200052525262624700000000001C2241414175
:1059300041414141221C00000000003F42424242DE
:105940003E020202020700000000001C2241414109
:1059500041414D53321C60000000003F4242423E34
:105960001212222242C700000000007C42420204C0
:1059700018204042423E00000000007F490808080D
:1059800008080808081C0000000000E742424242E4
:1059900042424242423C0000000000E742422224D0
:1059A00024141418080800000000006B49494949F4
:1059B0005555362222220000000000E74224241818
:1059C0001818242442E70000000000772222141453
:1059D00008080808081C00000000007E21201010A4
:1059E00008040442423F000000780808080808083C
:1059F00008080808080878000000020204040808E3
:105A00000810102020204040001E10101010101010
:105A10001010101010101E0000384400000000008C
:105A20000000000000000000000000000000000076
:105A300000000000000000FF000608000000000059
:105A40000000000000000000000000000000003C1A
:105A50004278444242FC0000000000030202021AA5
:105A600026424242261A00000000000000000038D2
:105A700044020202443800000000006040404078C8
:105A80004442424264D80000000000000000003C94
:105A9000427E0202423C0000000000F08808087EBE
:105AA00008080808083E0000000000000000007C14
:105AB00022221C023C42423C000000030202023A45
:105AC0004642424242E700000000000C0C00000E7B
:105AD00008080808083E00000000003030000038C8
