:020000040800F2
:100000008004002005010008090100080B01000818
:100010000D0100080F010008110100080000000098
:1000200000000000000000000000000013010008B4
:100030001501000800000000170100081901000860
:100040001B0100081B0100081B0100081B01000820
:100050001B0100081B0100081B0100081B01000810
:100060001B0100081B0100081B0100081B01000800
:100070001B0100081B0100081B0100081B010008F0
:100080001B0100081B0100081B0100081B010008E0
:100090001B0100081B0100081B0100081B010008D0
:1000A0001B0100081B0100081B0100081B010008C0
:1000B0001B0100081B0100087D0D00081B01000842
:1000C0001B0100081B0100081B0100081B010008A0
:1000D0001B010008A90600081F0700081B010008F3
:1000E0001B0100081B0100081B010008DFF80CD0F1
:1000F00001F050FB00480047210100088004002067
:1001000030BF000005480047FEE7FEE7FEE7FEE7D8
:10011000FEE7FEE7FEE7FEE7FEE7FEE7ED0000088C
:1001200030B587B000BF092000F056FA482000F033
:10013000EDF84FF41651482000F013FB4FF4165120
:10014000242000F07FFB00F00FFC00F04DFC00F0DD
:10015000EBFC00216548008880B200F063FD00F0F0
:10016000BAFDC2E000F0D5FD054601F045F9604951
:10017000086008460068002810DD5E480068002816
:100180000CDD5D48096850F821005B49594A126846
:1001900051F82210401A5949086047E05448006855
:1001A00000282CDA53480068002828DA50480068F4
:1001B00001F003F9CDE9040121F00041CDE902018C
:1001C00001F047F94E4908604A48006801F0F5F827
:1001D000CDE9040121F00041CDE9020101F039F936
:1001E0004849086048484649096850F82110454A7E
:1001F000126850F82200081A4049086016E03C488E
:100200000068002807DD3B480068002803DA052065
:100210003A4908600AE036480068002806DA35489E
:100220000068002802DD0520344908603048006875
:10023000002829DD3148006800280ADD002403E099
:1002400000F09CFC601CC4B22C4800688442F7DBC0
:1002500047E0002403E000F0A6FC601CC4B227487D
:10026000006801F0AAF8CDE9040121F00041CDE9D0
:100270000201204601F0B3F8CDE90001DDE90223D7
:1002800001F010F9E7D32CE019480068002828DABB
:100290001A48006800280ADD002403E000F083FC0F
:1002A000601CC4B2154800688442F7DB19E00024E2
:1002B00003E000F063FC601CC4B21048006801F069
:1002C0007CF8CDE9040121F00041CDE9020120468E
:1002D00001F085F8CDE90001DDE9022301F0E2F843
:1002E000E7D303480068034908603BE72002002089
:1002F000F8010020FC010020000000200C0200207A
:100300000002002004020020FC0000204FF0E02149
:10031000096921F004014FF0E02211610146C21782
:1003200000EB5272D2101F4B1A70194609784FF425
:100330007A7251439A1C118070471A4A921C128893
:1003400042434FF0E0235A6100229A6101221A6170
:1003500000BF4FF0E022116911F0010F02D011F43B
:10036000803FF6D000224FF0E0231A619A61704777
:100370000C4A127842434FF0E0235A6100229A61FE
:1003800001221A6100BF4FF0E022116911F0010F44
:1003900002D011F4803FF6D000224FF0E0231A6122
:1003A0009A61704710020020AC4A0A400243AC4BED
:1003B0001A607047072323EA00021202A84B1B1D94
:1003C00019684FF6FF031940A64B194311434FF02C
:1003D000E023C3F80C1D70472DE9F04704460D4695
:1003E00016461F463046F11706EB91714FEAA109F8
:1003F000F11706EB91718910A6EB810101F0FF0A5C
:10040000042101EBCA0000F0FF0A3846FFF7D2FFD3
:10041000C7F1040004FA00F80F203841284040EAF0
:10042000080808F00F08202E09DA8F48006801211B
:10043000B14008434FF0E021C1F800010BE08A48C9
:10044000001D0168A6F120020120904001434FF0F9
:10045000E020C0F80411854850F8290008FA0AF194
:100460000143824840F82910BDE8F08770B50D4679
:10047000CE1701EB9676B310CE1701EB9676B61039
:10048000A1EB8606B606340E794DAD6945F001053F
:10049000774EB5614FEAB63555F823600F25A54074
:1004A000AE43744D45F8236055F8235000FA04F626
:1004B0003543704E46F823506F4D2E6801258D4010
:1004C0002E436C4D083DC5F8006412F0010F09D0B1
:1004D000694D0C352E6801258D402E43654D083D34
:1004E000C5F80C6412F0020F09D0634D08352E6870
:1004F00001258D402E435F4D083DC5F8086470BD51
:1005000000B500205A490861C860142048610020E5
:100510008861C8610846006840F00100086008462C
:1005200040685649084052494860084600685449A6
:1005300008404F4908600846006820F480200860A1
:100540000846406820F4FE004860002088600021D2
:100550004FF00060FFF728FF00BD10B5404808309D
:10056000006840F004004FF0E021C1F8100D404851
:10057000C06940F080503E49C8614248406840F43C
:100580008070404948600846006840F004000860F8
:100590000846006840F002000860FFF7B1FD10BD9A
:1005A0003048001D2E49091D086070470146084665
:1005B00049062F4A926942F001022D4B9A612D4A59
:1005C000083A526822F0E0622A4B083B5A601A4609
:1005D00052680A435A60704730B504460025FFF759
:1005E0008FFF2348006840F480302149086000BF35
:1005F0001F480068400CFBD04FF480601C494860E5
:10060000A01EC4B20846406840EA844048600846DC
:10061000406840F4803048601B48006840F0320079
:10062000194908601248006840F08070104908605D
:1006300000BF0F480068400EFBD00D48406840F0F6
:1006400002000B49486005E009484068C0F387058F
:1006500005F00305022DF7D130BD000080FFFF1F1C
:1006600008ED00E00000FA0500E100E000E400E031
:100670000010024008000140000401400000FFF8A3
:10068000FFFFF6FE0070004000200240014600BF60
:10069000704700BFA94A128812F0400FFAD0C2B2C8
:1006A000A64B1B1D1A807047A449098811F0200F22
:1006B00034D0A249091D0988C8B2A149097811F0AE
:1006C000800F2BD19E49097811F0400F0CD00A28D9
:1006D00003D000219A4A117020E09949097841F02D
:1006E0008001974A117019E00D2806D194490978C4
:1006F00041F04001924A117010E09149097801F0EF
:100700003F01904A50548E490978491C8C4A117017
:10071000114609783F2901DD0021117070478A4890
:100720000088E8B100BF8848001D00888749844AD6
:10073000127888548248007820B9084600785528F5
:1007400000D070477E480078401C7D4908700846FC
:1007500000780B2804D10020087001207C49087023
:10076000EFE72DE9F05F04460D46280100F020FE7A
:100770008146784904FB01F000F01AFE82464946A2
:1007800000F021FC0646304600F04FFE87B23846A6
:1007900000F00EFE8346314600F0D9FB82464FF052
:1007A000834100F0DDFB814600F03FFE80463F01C3
:1007B00007EB080087B26848806940F0040066498A
:1007C00088610846806940F4804088616348006819
:1007D00020F47F606249C1F804080846D0F8040894
:1007E00040F40B60C1F804085B48C06840F48040E6
:1007F0005949C8600846C06820F48040C86059481C
:10080000A0F808784D480C30008842F20C010843EB
:100810005449A1F80C080846B0F80C0840F4807060
:10082000A1F80C080846B0F80C0840F02000434935
:100830000C3108800223252203210846FFF7CCFD56
:10084000BDE8F09F2DE9F05F04460D46280100F059
:10085000AFFD81463F4904FB01F000F0A9FD82464F
:10086000494600F0B0FB0646304600F0DEFD87B298
:10087000384600F09DFD8346314600F068FB824615
:100880004FF0834100F06CFB814600F0CEFD8046C6
:100890003F0107EB080087B22F48806940F0040051
:1008A0002D4988610846C06940F40030C8612B4872
:1008B000001F006820F47F402949C1F8000808465D
:1008C000D0F8000840F40B40C1F800082248006945
:1008D00040F40030204908610846006920F40030E7
:1008E00008614FF04020A0F8087417480C300088C9
:1008F00042F20C0108434FF04021A1F80C040846D5
:10090000B0F80C0440F48070A1F80C040846B0F86C
:100910000C0440F02000A1F80C040846B0F80C04C8
:1009200040F0040008490C310880022326220021EF
:100930000320FFF751FDBDE8F09F000000380140A3
:10094000140200203F020020004400403402002036
:100950001502002040420F00001002400408014030
:1009600000000140003001401B48806940F0040055
:10097000194988610846806940F02000886117485D
:10098000006820F00F001649C1F804080846D0F8A6
:10099000040840F00300C1F804080846D0F80C0829
:1009A00040F48070C1F80C080E48D0F8000420F420
:1009B00070600C49C1F800040846D0F8000440F407
:1009C0004070C1F800040846D0F80C0440F0040060
:1009D000C1F80C04704700000010024004080140F8
:1009E00000000140001001404848806940F00400C8
:1009F000464988614648006820F00F004549C1F823
:100A000000080846D0F8000840F00800C1F80008C7
:100A10003F48001D0068404908403E49C1F80408AD
:100A20003B48001D00683D4908433A49C1F80408A5
:100A30000846D0F80C0840F40050C1F80C080846ED
:100A4000D0F80C0840F40040C1F80C082F48806929
:100A500040F008002D4988612E48D0F8000C20F0A5
:100A60000F002C49C1F8000C0846D0F8000C40F0EB
:100A70000800C1F8000C704710B50220FFF796FD82
:100A80002748007800282BD02648006840B1254828
:100A90000830006820B123483438006801281FD18D
:100AA0000A20FFF74AFC00201D4908701D48006815
:100AB00020B90120FFF77AFD012010BD1948083048
:100AC000006820B90120FFF771FD0220F5E7154805
:100AD00034380068012813D1FFF768FD0320ECE7E4
:100AE0001048006801280BD10E4808300068012822
:100AF00006D10C483438006810B901200849087044
:100B00000120FFF753FD0020D7E70000001002404E
:100B10000008014000000140FFFF0F0F000080802F
:100B20001C020020340121423948806940F0040051
:100B3000374988613748006820F47F003649C1F89A
:100B400000080846D0F8000840F44C10C1F800082E
:100B50000846D0F80C0840F4C060C1F80C080846FC
:100B6000D0F8040820F47040C1F804080846D0F812
:100B7000040840F44050C1F80408704710B5002044
:100B80002649086001202649C1F8AC014FF496704F
:100B9000FFF7EEFB002021491C3108604FF49670EE
:100BA000FFF7E6FB10BD10B501201C4908601C4989
:100BB000C1F8AC014FF49670FFF7DAFB002017493B
:100BC0001C3108604FF49670FFF7D2FB10BD70B572
:100BD00004460E46012E0CD1002502E0FFF7CEFFA1
:100BE0006D1C04EBC40000EB0410B5EB801FF5DBBB
:100BF0000CE05EB9002502E0FFF7D5FF6D1C04EBA9
:100C0000C40000EB0410B5EB801FF5DB70BD0000E5
:100C10000010024000080140000001409001214204
:100C2000000021428E4AD26942F002028C4BDA6106
:100C30001A46926942F004029A618A4A10809A0424
:100C4000A2F82814884AD2F8002822F07F42864B66
:100C5000C3F800281A46D2F8002842F08842C3F8A8
:100C600000289A03B2F8002422F440729B03A3F8F0
:100C700000241A46B2F8002422F06002A3F80024EF
:100C80001A46B2F8182442F00102A3F818241A46B2
:100C9000B2F8182442F48072A3F818241A46B2F865
:100CA000202422F00202A3F820241A46B2F82024BD
:100CB00022F02002A3F820241A46B2F8182442F0A9
:100CC0003002A3F818241A46B2F8082442F00102B0
:100CD000A3F80824704763482C38008840F00100CE
:100CE0004FF08041A1F8000470475E480838008842
:100CF00040F2FE71884204DA5A480838008800B28F
:100D0000704758480838008858490988401A00B286
:100D1000F6E710B586B0FFF7E8FF044600F04DFB9C
:100D2000CDE9040152A00CC8049800F0C5FACDE941
:100D3000020151A00CC8029800F04AFA0B46024684
:100D4000CDE900014EA000F055FDFFF7CEFF0446AF
:100D500000F033FBCDE9040145A00CC8049800F075
:100D6000ABFACDE9020144A00CC8029800F030FAB9
:100D7000CDE9000100F0BCFB06B010BD30B587B076
:100D800000254948008810F0010F3BD04748006813
:100D900008B9012000E00020444908604448006888
:100DA00044490968451A4248006842490860012DD3
:100DB0000ADD002405E0FFF7E1FE0220FFF7BDFA9F
:100DC000641CAC42F7DB1DE0B5F1FF3F1ADA0024EA
:100DD00005E0FFF7E8FE0220FFF7AFFA641C2846A3
:100DE00000F0EBFACDE9040121F00041CDE9020168
:100DF000204600F0E2FACDE90001DDE9022300F02F
:100E000051FBE6D32848008820F001004FF08041D4
:100E1000A1F8100807B030BD70B504460D46104863
:100E2000C06940F004000E49C8611F481C300480AE
:100E30008804A0F82858B0F80C0840F00100890494
:100E4000A1F80C080846B0F8000840F00100A1F82D
:100E5000000802231E2203210120FFF7BDFA70BD06
:100E6000001002402C04004000000140200200203D
:100E7000000000000000A04000000000008076405C
:100E80002F2F2F2F2F2F2F2F2F2F2F2F2F2F2F2F72
:100E90002F2F2F2F2F2F2F2F2F2F2F2F2F2F253467
:100EA0002E32660A000000001008004088812242AD
:100EB0002C02002028020020F0B4144620F0004646
:100EC00021F0004100F000428E4205D230460E462D
:100ED00001460CB182F0004219B946EA0200F0BCAA
:100EE0007047C6F3C753C1F3C7501D1AC6F31600A7
:100EF00040F40000202D14DAC1F3160141F4000182
:100F0000002C21FA05F402D0A0EB040000E02044FC
:100F1000C5F1200401FA04F108D0494206D0401E70
:100F200004E014B14FF0FF31F9E70121F0BC00F00B
:100F300067BB90EA010201D5012200E00022BBE775
:100F400090EA010201D5002200E00122B4E7034645
:100F50000846594001D5002200E001221946ABE7BE
:100F600080EA010210B502F00042400001D04B00BF
:100F700001D1002010BD4FEA106101EB1361C0F3F5
:100F80005600C3F3560340F4000043F40003A0FBF3
:100F900003307F394FEA00401C0400D0401C50EA67
:100FA000134001D44000491EC3B20C0604EBD0101C
:100FB000401C4008802B01D120F00100002900DAFC
:100FC0000020104310BDF0B480EA010230F000436D
:100FD00002F0004221F0004000D010B9F0BC002027
:100FE0007047C0F3C755C3F31601C3F3C756731B4D
:100FF000C0F3160040F400047E3341F400014FF0CA
:1010000080750020A14201D3091B28436D084FEAD7
:101010004101F7D151B1A14202D14FF0004105E0A9
:1010200002D24FF0010101E06FF00101F0BC00F0CD
:10103000E7BA2DE9FF4D86B0089A834623F00043B6
:1010400001F0004421F00045129F801A4FF0FF3854
:101050004FF0000A1E4675EB030108D25946284698
:1010600035469346064608910FB184F000440023AC
:10107000089886EA03015840084305D1584645EAD6
:1010800004010AB0BDE8F08DC5F30A51C6F30A5059
:10109000081ACDE90401C5F3130040F48015049843
:1010A000402837DAC6F3130040F48018049A0898F1
:1010B000414637B100F08CFABBEB000065EB010153
:1010C00004E000F085FA10EB0B0069410546049836
:1010D0000E46C0F140024146089800F069FA834686
:1010E000884677B1DBF1000B4FF0000368EB48084E
:1010F00088EA03018BEA0300084302D05A1EAD18A8
:101100005641059BCDE900A4029343465A46314619
:10111000284612E057B1059BCDE900A41BEB08005F
:10112000029345EB08014346424606E0CDE900A4A0
:101130000291002301222946584600F0A2FAA0E7B6
:10114000F8B50D4607465940002001F000414140E6
:10115000404016461C46084301D0012300E000230E
:1011600000932346324629463846FFF762FFF8BD12
:10117000F8B50D4607465940002001F000414140B6
:10118000404016461C46084301D0002300E00123DE
:1011900000932346324629463846FFF74AFFF8BDFA
:1011A000F8B50D4607465940002001F00041414086
:1011B000404016461C46084301D0002300E00123AE
:1011C00000932B463A4621463046FFF732FFF8BDE2
:1011D0002DE9FF4D144681EA030200208AB002F097
:1011E0000042CDE9080223F00046034602460A9871
:1011F00021F0004585EA03015040084306D0002352
:1012000086EA030184EA0300084304D10020014672
:101210000EB0BDE8F08DC5F30A51C6F30A500027A1
:101220000844A0F2F330C5F31302CDE9030742F4FA
:101230008015C6F3130242F48016BA46B846BB4680
:10124000069725E0E00717D0049A0A98801802460E
:1012500004900A9845EB0A0A121A7AEB050301D2A8
:10126000012000E00020C11710EB0800069A794128
:10127000801841EB0B0B069018EB08000A9A7F418F
:1012800040EAD57890186D4176080A904FEA340408
:10129000002386EA030184EA03000843D2D1039BBA
:1012A000DDE90801CDE90001029353465946049A4D
:1012B000069800F0E6F9ABE72DE9FF4D054681EA17
:1012C0000302002086B002F0004223F00046CDE980
:1012D0000402034621F0004484EA03016840084305
:1012E00006D00023089886EA03015840084304D139
:1012F000002001460AB0BDE8F08DC4F30A51C4F3E2
:101300001302C6F30A5042F480144FF0000BC6F3E8
:101310001302081A42F4801200F2FE305F464FF4C6
:101320000016D846DA460992039011E0DDE9082359
:10133000A81A74EB030106D3AD1A64EB030448EA60
:1013400007084AEA060A76084FEA37076D1964412A
:10135000002386EA030187EA03000843E6D184EA12
:10136000030185EA0300084315D0DDE9082384EA78
:10137000030185EA0200084303D15D464FF00044B3
:1013800009E0A81A74EB030102D201255C4602E0D1
:101390006FF001056C10DDE90401039BCDE900014C
:1013A000029323462A465146404600F06AF9A1E7D7
:1013B00096230022114600F023B90EB500210A46FB
:1013C000002802DA40424FF0004240F233438DE8F9
:1013D0000E0000231A4600F054F903B000BD0EB50C
:1013E000002140F233430091CDE901130B460A4638
:1013F00000F047F903B000BD00F0004220F00040CB
:10140000C10DC0F3160040F400007F2901DA00206E
:101410007047962903DCC1F19601C84001E0963976
:101420008840002AF4D04042704720F00040C10DAF
:10143000C0F3160040F400007F2901DA0020704755
:10144000962903DCC1F19601C8407047963988405F
:10145000704770B501F0004621F000410A0D0025EB
:10146000C1F3130140F2FF3341F480119A4201DAD3
:10147000002070BD40F233439A42A2F2334203DCB3
:10148000524200F0A5F801E000FA02F00023044601
:1014900086EA030185EA0300084301D0604270BD7B
:1014A000204670BD2DE9F04107460D46002001F0B1
:1014B00000414140404016461C464FF0004808435A
:1014C00002D17F4268EB0505002004F00041414055
:1014D0004040084302D1764268EB0404384629466E
:1014E000324623468B4208BF8242BDE8F0810000AD
:1014F000F0B40023054601F0004621F0004484EAE0
:101500000301584008430ED0C4F3130040F4801088
:10151000230DC10041EA5570E9003246F0BCA3F545
:10152000607300F06DB8F0BC704730B50B460146F3
:1015300000202022012409E021FA02F59D4205D372
:1015400003FA02F5491B04FA02F52844151EA2F11C
:101550000102F1DC30BD2DE9F047002591469A46A5
:10156000074688462E46402418E022464146384623
:1015700000F02EF8B0EB090071EB0A010ED3224601
:101580005146484600F014F83F1A68EB010822461D
:101590000021012000F00CF845194E41201EA4F155
:1015A0000104E2DC284631463A464346BDE8F0876E
:1015B000202A04DB0023203A00FA02F106E000FAB8
:1015C00002F39140C2F12002D04001431846704717
:1015D000202A04DB203A21FA02F000217047D04093
:1015E000C2F1200301FA03F31843D14070470029E8
:1015F00005DA401CB1F1004F01D120F00100704725
:1016000030B450EA01040BD130BC0020704701F027
:10161000010545EA510141EAC07140085B1C01E047
:101620004FF08074A042F2D24FF4000404E0400076
:1016300040EAD17049005B1EA042F8D300EBC350D2
:10164000A0F5000030BC1044D1E70000F0B504461E
:101650000D46002003F000414140404017461E4621
:1016600008430BD0641C4FF0004386EA030145F1A8
:10167000000557EA010001D124F001042046294663
:10168000F0BD2DE9F00D88461D461943074600239D
:10169000104359405840099E14464FF0FF3A084302
:1016A00011D1BDE8F00D01467047680804F0010251
:1016B00042EA340440EAC7755FEA58084FEA370740
:1016C00006F1010601E0DFF848B0BAEB07027BEB58
:1016D0000803EAD34FF4801A07E0FF1948EB080823
:1016E00047EAD57724196D41761E381E78EB0A013A
:1016F000F3D33305A3F58013381C48EB0301DDE970
:101700000723801859412B462246BDE8F00D9DE77E
:10171000FFFF1F0021F000410A0DC1F3130140F249
:10172000FF3341F480119A4202DA002001467047EB
:1017300040F233439A42A2F2334202DC5242FFF7B4
:1017400047BFFFF735BF00002DE9F04107460D46C2
:10175000002001F000414140404016461C464FF039
:101760000048084302D17F4268EB0505002004F0E1
:10177000004141404040084302D1764268EB0404F6
:101780003846294632462346994208BF9042BDE872
:10179000F0810000064C074D06E0E06840F00103D0
:1017A00094E8070098471034AC42F6D3FEF7A2FC49
:1017B0001C2100083C21000830B58C1810F8013BB2
:1017C00013F00F0201D110F8012B1B0906D110F8FC
:1017D000013B03E010F8015B01F8015B521EF9D1F7
:1017E00001E001F8012B5B1EFBD1A142E6D30020F2
:1017F00030BD00000FB410B503A9044B044A029891
:1018000000F0E4F810BC5DF814FB0000930600083B
:101810001802002002E008C8121F08C1002AFAD1ED
:1018200070477047002001E001C1121F002AFBD160
:10183000704700002DE9FF5F84B08B46DDE90601AB
:1018400000234FEA1154DDE91289594058400843FA
:1018500010D1012454A3B9F1010F02D16FEA08019C
:1018600000E000210498C0E90249C0E9003108B055
:10187000BDE8F09FA4F2FF3444F610504443251411
:10188000B9F1010F404601D1464201E02E1A761C03
:1018900046A003C87442CDE9000146A0D0E900A7E4
:1018A000002E14DB344612E0E00707D0DDE9002308
:1018B00039465046FFF78CFC82460F46DDE900238F
:1018C00019461046FFF784FC6410CDE90001002C96
:1018D000EAD1DDE90601002E3B46524602DAFFF767
:1018E00077FC01E0FFF7E8FC34A20CCA04460E4680
:1018F000FFF72AFF03D84FF0FF36374609E031A043
:101900000CC831462046FFF71BFCFFF703FF0646D5
:101910000F4610240DE0002C12DB00230A2239466A
:101920003046FFF718FE30320BF8042006460F460B
:10193000641E002387EA030186EA03000843EAD114
:10194000641C0BEB0400C4F1110A0390B9F1010F00
:101950000FD1002387EA030186EA0300084303D17D
:10196000AAEB08056D1E18E04FF011084FF00009B2
:1019700086E70023012487EA030186EA030008437F
:1019800001D1C24502DD00246D1C04E003DA4FF0F2
:101990000004A5F10105002CEAD00498C0E902A9D1
:1019A00045600399016062E730000000000000001C
:1019B00000002440000000000000F03F0000000094
:1019C0000000F043000000000000E03F2DE9FF4F61
:1019D00099B006469A460F46002564E3252879D13A
:1019E0000024761CFD4AA046012117943378203B41
:1019F00001FA03F0104202D00443761CF6E7307877
:101A00002A2816D101CF1790002803DA404244F467
:101A10000054179044F00204761C11E0179844F02B
:101A2000020400EB800002EB40000844761C179093
:101A300001E06FF02F023178A1F130000928EDD9D3
:101A400030782E2818D116F8010F44F004042A2803
:101A50000BD157F8048B761C0EE008EB880002EBE4
:101A6000400001EB0008761C01E06FF02F02317896
:101A7000A1F130000928F0D930786C280ED008DCAC
:101A80004C2816D068280CD06A2813D144F40014CE
:101A90000FE074280DD07A280CD10AE044F48014A9
:101AA00001E044F440147178814202D1761C04F5BF
:101AB0008014761C307866280BD013DC582827D089
:101AC00009DC002872D04528F6D04628F4D04728F3
:101AD00085D19DE1EFE2632832D0642877D0652874
:101AE000F6D195E1702871D00CDC6728F1D0692817
:101AF0006DD06E280ED06F28EAD108210022CDE9E2
:101B00001212ADE0732825D0752870D07828DFD167
:101B10001021F3E7C4F30250022804D13868E91712
:101B2000C0E900510AE0032802D13868058005E0C9
:101B30000428386801D1057000E005603F1DB1E25E
:101B400001CF8DF8540000208DF855000DF1540B95
:101B5000012003E057F804BB4FF0FF3061074FF05E
:101B600000010CD501E009F101018946414510DA77
:101B70008145F8DB1BF809100029F4D109E001E0E8
:101B800009F1010189468142FADB1BF8091000299D
:101B9000F6D117985346A0EB0908214640461B9AF8
:101BA00000F0A6FA284400EB090506E07FE20EE00B
:101BB0001BF8010B52461B999047B9F10100814671
:101BC000F6D25346214640461B9A1DE140E00A20CA
:101BD0000021CDE91201C4F30250022808D1FF1DF3
:101BE00027F00707D7E900910837159112E02DE09B
:101BF00002CFCA1789461592032804D10FFA89F13A
:101C0000CA1789461592042804D14FFA89F0C117E2
:101C10008146159100231599B9EB0300994108DA23
:101C20001599D9F1000961EB41014FF02D00159193
:101C300002E0200504D52B208DF82000012003E0D0
:101C4000E00701D02020F7E7834657E00A2155E757
:101C500010210022CDE9121244F004044FF00808CC
:101C6000C4F30251022907D1FF1D27F00707D7E966
:101C70000092083715920BE0002357F8049B159348
:101C8000032901D11FFA89F9042901D109F0FF09BB
:101C90004FF0000B210731D5702804D140208DF87A
:101CA0002000012013E0DDE912011022504008431A
:101CB0000ED10023159989EA03005940084307D043
:101CC00030208DF8200030788DF8210002208346E6
:101CD000DDE912010822504008430FD10023159975
:101CE00089EA03005940084301D1600706D5302036
:101CF0008DF820004FF0010BA8F10108317838A0D1
:101D0000582900D03BA0079012A809900DE0DDE90A
:101D1000122348461599FFF71EFC079B81469B5CE2
:101D2000099A521E0992137015910023159989EA98
:101D3000030059400843EAD109990AA8401A00F162
:101D40002009600702D524F4803401E04FF0010837
:101D50000020C84501DDA8EB0900169048441799FA
:101D60005844081A1790E00306D4534621461B9A9C
:101D7000179800F0BDF90544002008E008A810F805
:101D8000080052461B9990476D1C08F101008046DF
:101D90005845F3DBE0030CD5534621461B9A1798B0
:101DA00000F0A6F9054404E0302052461B99904704
:101DB0006D1C1698411E16910028F5DC08E0099864
:101DC00009990078491C099152461B9990476D1C4E
:101DD000B9F10000A9F10109F1DC5EE10928010077
:101DE0003031323334353637383941424344454651
:101DF0000000000030313233343536373839616213
:101E0000636465660000000000F060F9054449E184
:101E1000600701D44FF00608FF1D27F00707D7E938
:101E20000001CDE90201002001F0004141400837E6
:101E30004040084301D0A2A007E0A2A0210504D49D
:101E4000A1A0E10701D1AFF258000790039820F05C
:101E500000413078652828D006DC452825D0462862
:101E60003AD0472858D103E0662835D06728F9D101
:101E7000B8F1010F01DA4FF0010800231122B8F187
:101E8000110F00DC4246CDE900230B460AA912A837
:101E9000029AFFF7CFFC4FF0000BC146200748D451
:101EA000149949453CDA084639E000231122B8F17B
:101EB000110F01DA08F10102CDE900230B460AA94E
:101EC00012A8029AFFF7B6FC012005904FF0000B14
:101ED00008F1010913984BE00123CDE900834FF08D
:101EE000004004900B460AA912A8029AFFF7A2FC30
:101EF000DDE914904FF0000B20B9139908F10100AF
:101F000001EB0009B8EB090003D4C0F1FF3B08F175
:101F10000109A9EB080005902BE0A9F10100814619
:101F2000B9F1010F05DD1299A9F10100085C302813
:101F3000F3D01399414503DA084611F1040F03DA8F
:101F400001200590084613E0002804DC139983441F
:101F5000A9EB010004E0401C484502DD1398401C39
:101F600081461399A1EB0B00401C05904FF00040F7
:101F70000490200705D40599494502DB4FF0FF3056
:101F8000059000218DF8271004980DF12708B0F175
:101F9000004F29D0022001902B20009004980028A7
:101FA0000EDA404204902D20009009E00A210498A6
:101FB000FFF7BBFA0490A8F10100303180460170B0
:101FC0000198411E01910028F0DC04980028EDD111
:101FD000A8F10100009900F801193178804601F05C
:101FE000200141F04501017008A8A0EB0800C01DC8
:101FF00006900798007800B101200599484400EB4D
:10200000E170069908441799081A401E1790E003DA
:1020100006D4534621461B9A179800F069F80544E8
:102020000798007818B152461B9990476D1CE00341
:1020300022D5534621461B9A179800F059F80544BB
:102040001AE0BBF1000F07DB1498584504DD129825
:102050001B9910F80B0001E01B9930205246904765
:1020600005986D1C401E0BF1010B059004D12E202C
:1020700052461B9990476D1CB9F10000A9F1010966
:10208000DFDC05E018F8010B52461B9990476D1CE8
:102090000698411E06910028F4DC534621461B9AFF
:1020A0001798B1E6761C307800287FF497AC284664
:1020B0001DB0BDE8F08F52461B9990476D1CF1E7AB
:1020C0002D0000002B000000200000002DE9F04151
:1020D0000446002517461E46880406D503E0394607
:1020E0002020B0476D1C641EF9D52846BDE8F0815C
:1020F0002DE9F04104460025302790461E46C803CE
:1021000000D42027880406D403E041463846B0476F
:102110006D1C641EF9D52846BDE8F0813C210008FD
:102120000000002034020000B8170008E821000871
:10213000340200204C0200002418000851420842DA
:102140000D42124217421C42214226422B4230428B
:1021500036423C42424248424E4254425A42604217
:1021600066426C4272427842804288428E42944279
:102170009A42A042A642AC42B442BB42C242C942C9
:10218000D0333B01334201334901335001036357DC
:102190000142044209420E42134217421B421F42AF
:1021A000234227422B422F42334237423B423F4297
:1021B000434247424B424F42534257425A425D428A
:1021C00060426342664269426C426F4272427542AB
:1021D00078427B427E428142844287428A428D021B
:0821E000809042010313FE0F81
:04000005080000ED02
:00000001FF
